:020000040800F2
:10000000F010002439030008AB39000875380008E7
:10001000A939000893040008314C000800000000D2
:10002000000000000000000000000000A54A0008D9
:10003000D908000800000000AD390008A74A0008F0
:100040005303000853030008530300085303000838
:100050005303000853030008530300085303000828
:1000600053030008530300085303000895040008D5
:100070005303000853030008530300085303000808
:1000800053030008530300085303000853030008F8
:1000900053030008530300085303000853030008E8
:1000A00053030008530300085303000853030008D8
:1000B00053030008530300085303000853030008C8
:1000C00053030008530300085303000853030008B8
:1000D00053030008530300085303000853030008A8
:1000E00053030008530300080000000053030008F6
:1000F0005303000853030008530300085303000888
:10010000530300085303000853030008F13B0008A1
:100110005303000853030008530300085303000867
:100120005303000853030008530300085303000857
:100130005303000853030008530300085303000847
:1001400000000000000000000000000000000000AF
:100150005303000853030008530300085303000827
:100160005303000853030008530300085303000817
:100170005303000853030008530300080000000065
:1001800053030008530300085303000853030008F7
:1001900053030008530300085303000853030008E7
:1001A00053030008530300085303000853030008D7
:1001B00053030008530300085303000853030008C7
:1001C00053030008530300085303000853030008B7
:1001D00053030008530300085303000853030008A7
:1001E0005303000853030008530300085303000897
:1001F0005303000853030008530300085303000887
:100200005303000853030008530300085303000876
:100210005303000853030008530300085303000866
:1002200053030008530300085303000800000000B4
:1002300053030008530300080000000053030008A4
:100240005303000853030008530300085303000836
:100250005303000853030008530300085303000826
:100260005303000853030008530300085303000816
:100270005303000853030008530300080000000064
:100280005303000853030008530300080000000054
:10029000000000005303000800F002F800F03CF8F2
:1002A0000AA090E8000C82448344AAF10107DA45D1
:1002B00001D100F031F8AFF2090EBAE80F0013F0E7
:1002C000010F18BFFB1A43F00103184728F2000082
:1002D00048F20000103A24BF78C878C1FAD8520713
:1002E00024BF30C830C144BF04680C6070470000B0
:1002F0000023002400250026103A28BF78C1FBD82F
:10030000520728BF30C148BF0B6070471FB504F0CB
:10031000D6FC1FBD10B510BD00F082F81146FFF7E6
:10032000F5FF04F097FC00F0A0F803B4FFF7F2FF2C
:1003300003BC00F0A7F800000948804709480047BF
:10034000FEE7FEE7FEE7FEE7FEE7FEE7FEE7FEE785
:10035000FEE7FEE704480549054A064B70470000E2
:10036000554B000899020008F00A0024F010002400
:10037000F00C0024F00C002402F0FF0343EA0322F7
:1003800042EA024200F002B84FF000020429C0F035
:10039000128010F0030C00F01B80CCF1040CBCF1B7
:1003A000020F18BF00F8012BA8BF20F8022BA1EB09
:1003B0000C0100F00DB85FEAC17C24BF00F8012BEE
:1003C00000F8012B48BF00F8012B70474FF00002E6
:1003D00000B5134694469646203922BFA0E80C503B
:1003E000A0E80C50B1F12001BFF4F7AF090728BF16
:1003F000A0E80C5048BF0CC05DF804EB890028BF92
:1004000040F8042B08BF704748BF20F8022B11F0BA
:10041000804F18BF00F8012B704770477047704736
:10042000754600F02BF8AE4605006946534620F0AD
:100430000700854618B020B5FFF78CFFBDE82040C7
:100440004FF000064FF000074FF000084FF0000B90
:1004500021F00701AC46ACE8C009ACE8C009ACE843
:10046000C009ACE8C0098D46704710B50446AFF32B
:1004700000802046BDE81040FFF757BF0048704796
:10048000900A002401491820ABBEFEE726000200B6
:100490007047FEE7014800F067BB0000B800002489
:1004A000294A016891423AD0274A1832914236D0FF
:1004B000254A3032914232D0234A483291422ED0DE
:1004C000214A603291422AD01F4A7832914226D086
:1004D0001D4A9032914222D01B4AA83291421ED02E
:1004E0001A4A91421BD0194A1832914217D0174A22
:1004F0003032914213D0154A483291420FD0134AFC
:10050000603291420BD0114A7832914207D00F4AA3
:100510009032914203D00D4AA832914211D1CAB211
:100520001823103AB2FBF3F26FF30901032A02F029
:100530000703074AD25CC26500D9091D81650846D8
:10054000704721F0FF01F9E710000240100402405B
:10055000C84C000830B5224A012301689142CAB252
:100560001BD01F4C1434A14217D01D4C2834A1427B
:1005700013D01B4C3C34A1420FD0194C5034A14233
:100580000BD0174C6434A14207D0154C7834A142EB
:1005900003D0134C8C34A1420CD11421114C083AD5
:1005A000B2FBF1F10F4A803201F01F0504EB81012B
:1005B000AB4010E00C4D1824103A0D44B2FBF4F19E
:1005C000A82D00D80831094A01F01F0402EB81016F
:1005D000064AA3408032603080E80E0030BD000043
:1005E0000854025800580258F0FBFDBF00080240B2
:1005F00010B50279531E072B2DD8174C0168A14264
:100600001BD0154C1434A14217D0134C2834A142EE
:1006100013D0114C3C34A1420FD00F4C5034A142A6
:100620000BD00D4C6434A14207D00B4C7834A1425E
:1006300003D0094C8C34A14203D10849074C443102
:1006400002E00749064C443104EB8202C0E91B2159
:1006500001219940416710BD08540258FC580258C6
:10066000FC08024010B583694FF0C074826A0146ED
:10067000002053B1B3F5005F15D072B1012A0CD040
:10068000022A0AD0032A09D104E01AB1012A06D0AD
:10069000022A03D1C96AC90100D5012010BDC96A67
:1006A000A142FAD010BD002AF7D0012AF2D0022AC6
:1006B000F3D0032AF3D010BD2DE9F04F804E804FC8
:1006C000DFF8FC911836DFF8F8A148370468856D2B
:1006D0000AF1300ADFF8ECB14C45DFF8ECC1DFF885
:1006E000ECE16DD0B4426BD0544569D0BC4267D0C8
:1006F000DFF8D081A8F11808444561D05C455FD08F
:1007000064455DD074455BD0DFF8C481444557D063
:10071000DFF8BC8108F11808444551D0DFF8B081FA
:1007200008F1300844454BD0DFF8A48108F14808AF
:10073000444545D0DFF8988108F1600844453FD032
:10074000DFF88C8108F17808444539D0DFF88081E2
:1007500008F19008444533D0DFF8748108F1A80807
:1007600044452DD0DFF86C81444529D0DFF8648101
:1007700008F11408444523D0DFF8588108F128080F
:1007800044451DD0DFF84C8108F13C08444517D0A2
:10079000DFF8408108F15008444511D0DFF834817A
:1007A00008F1640844450BD0DFF8288108F1780887
:1007B000444505D0DFF81C8108F18C08444509D177
:1007C000D0E91948C4F80480C46E1CB1D0E91C48B3
:1007D000C4F8048004684C452ED0B4422CD0544553
:1007E0002AD0BC4228D0374E183EB44224D05C45B3
:1007F00022D0644520D074451ED0354EB4421BD063
:10080000334E1836B44217D0314E3036B44213D07E
:100810002F4E4836B4420FD02D4E6036B4420BD026
:100820002B4E7836B44207D0294E9036B44203D0CE
:10083000274EA836B44215D190F85C603F2406F0EC
:100840001F06B440AC600468256825F48025256047
:100850002EE09A600068C160BDE8F08F9960006882
:10086000C260F9E71B4EB4421BD01A4E1436B44294
:1008700017D0184E2836B44213D0164E3C36B44228
:100880000FD0144E5036B4420BD0124E6436B442E0
:1008900007D0104E7836B44203D00E4E8C36B44298
:1008A000DAD190F85C60012406F01F06B4406C6059
:1008B000046863608368402B0368CFD1C9E70000F8
:1008C0001000024088000240A0000240B800024030
:1008D0001004024008540258704772B6FEE7000048
:1008E0002DE9F05F28B190F83510022904D080215D
:1008F00041650120BDE8F09F904C904B0168183C89
:1009000018338E4ADFF83C92A1428D4CDFF838E272
:100910008E4FDFF83CB2DFF83CA28F4D8F4E31D0C6
:1009200091422FD099422DD0A1422BD0494529D0B8
:10093000714527D0B94225D0DFF810C20CF1180C50
:1009400061451FD0DFF808C2ACF1600C614519D0D9
:10095000DFF8FCC1ACF1480C614513D0DFF8F0C101
:10096000ACF1300C61450DD0DFF8E4C1ACF1180CEE
:10097000614507D0594505D0514503D0A94201D062
:10098000B1422CD1DFF8B4C14FF0040880F83580B3
:10099000ACF1180C61451DD091421BD0994219D081
:1009A000A14217D0494515D0714513D0B94211D095
:1009B0006648183081420DD065486038814209D0C0
:1009C00063484838814205D061483038814201D0BF
:1009D0005F481838086820F001000860ABE0D1F8E3
:1009E00000C02CF00E08DFF854C1C1F80080ACF153
:1009F000180C0168614527D0914225D0994223D037
:100A0000A14221D049451FD071451DD0B9421BD00C
:100A1000DFF838C10CF1180C614515D0DFF830C192
:100A2000ACF1600C61450FD0DFF824C1ACF1480C8B
:100A3000614509D0DFF818C1ACF1300C614503D035
:100A4000DFF80CC1ACF1180CD1F800C02CF0010C8F
:100A5000C1F800C0DFF8E4804FF0010C0168A8F194
:100A60001808414546D0914244D0994242D0A14213
:100A700040D049453ED071453CD0B9423AD0334A86
:100A80001832914236D0324A603A914232D0304ADE
:100A9000483A91422ED02E4A303A91422AD02C4ADE
:100AA000183A914226D0594524D0514522D0A94226
:100AB00020D0B1421ED02A4A91421BD0284A14327B
:100AC000914217D0264A2832914213D0244A3C3210
:100AD00091420FD0224A503291420BD0204A6432C8
:100AE000914207D01E4A7832914203D01C4A8C3280
:100AF000914218D1016E0A6822F480720A6090F85F
:100B00005C20816D02F01F020CFA02F24A60D0E90B
:100B100019124A60C16E31B10A6822F480720A600B
:100B2000D0E91C124A600022016D80F835C080F8BF
:100B3000342001B188470020DCE600002800024094
:100B4000580002407000024088000240A0000240AD
:100B50007004024088040240A0040240B80402402D
:100B600008540258406D70472DE9FC5F0446F74E6B
:100B70000020DFF8D88300904FF41652F44808F1B3
:100B80001808A56DDFF8C493DFF8C0A3016809F168
:100B9000300920680AF1480AB1FBF2F1B042019134
:100BA0002F68D5F800C0DFF8ACB335D04146884295
:100BB00032D0484530D050452ED058452CD0E5494C
:100BC0001831884228D0E3493031884224D0E149A5
:100BD0004831884220D0E04988421DD0DE49183192
:100BE000884219D0DC493031884215D0DA49483181
:100BF000884211D0DFF860E30EF1600E70450BD033
:100C0000D54A7832904207D0D34B9033984203D0E4
:100C1000D149A83188427DD194F85C20082102F0A6
:100C20001F0201FA02F23A424AD0B04232D04045A5
:100C300030D048452ED050452CD058452AD0C54AF2
:100C40001832904226D0C34A3032904222D0C14A54
:100C5000483290421ED0C04A90421BD0BE4A183241
:100C6000904217D0BC4A3032904213D0BA4A483230
:100C700090420FD0B84A603290420BD0B64A7832D8
:100C8000904207D0B44A9032904203D0B24AA83280
:100C9000904203D1026802F0040202E0026802F00E
:100CA00008026AB1026822F00402026094F85C0053
:100CB00000F01F008140A960606D40F00100606598
:100CC00094F85C00012100F01F008140394240D0BF
:100CD0002068B04234D0404532D0484530D05045ED
:100CE0002ED058452CD09B4A1832904228D0994A91
:100CF0003032904224D0974A4832904220D0964ACF
:100D000090421DD0944A1832904219D0924A303203
:100D1000904200E0AFE113D08F4A483290420FD0AA
:100D20008D4A603290420BD08B4A7832904207D085
:100D3000894A9032904203D0874AA83290427DD1AE
:100D4000406910F0800F04D0A960606D40F002008F
:100D5000606594F85C00042100F01F008140394276
:100D60003ED02068B04232D0404530D048452ED0E9
:100D700050452CD058452AD0764A1832904226D079
:100D8000744A3032904222D0724A483290421ED089
:100D9000714A90421BD0704A1832904217D06E4A66
:100DA0003032904213D06C4A483290420FD06A4A97
:100DB000603290420BD0684A7832904207D0664A3F
:100DC0009032904203D0644AA83290424ED10068DB
:100DD00010F0020F04D0A960606D40F0040060655F
:100DE00094F85C00102100F01F008140394258D077
:100DF0002068B04234D0404532D0484530D05045CC
:100E00002ED058452CD0534A1832904228D0514AFF
:100E10003032904224D04F4A4832904220D04E4A3D
:100E200090421DD04C4A1832904219D04A4A303272
:100E3000904215D0484A4832904200E014E00FD06A
:100E4000454A603290420BD0434A7832904207D0F4
:100E5000414A9032904203D03F4AA832904207D193
:100E6000006800F0080006E0006872E70068B7E775
:100E7000006800F00400A0B1A9602068016849037F
:100E800004D50068000308D5A16C07E00168C90516
:100E900003D4016821F008010160216C09B12046EA
:100EA000884794F85C00202100F01F0081403942FF
:100EB00079D02068B04232D0404530D048452ED05D
:100EC00050452CD058452AD0224A1832904226D07C
:100ED000204A3032904222D01E4A483290421ED0E0
:100EE0001D4A90421BD01C4A1832904217D01A4A11
:100EF0003032904213D0184A483290420FD0164AEE
:100F0000603290420BD0144A7832904207D0124A95
:100F10009032904203D0104AA832904203D1006828
:100F200000F0100002E0006800F00200B0B3A96019
:100F300094F835000428206801680FD049037ED555
:100F4000006800032BD4616C2AE00000100002400E
:100F50000C000024700002401004024021F0160131
:100F600001602068416921F080014161206C08B96D
:100F7000A06C20B12068016821F00801016094F89C
:100F80005C303F21012003F01F0300229940A9603B
:100F900084F8350084F83420216D65E003E0E16BCE
:100FA00009B120468847606D00287DD0606DC0077C
:100FB00059D02068042184F83510B0422BD0404528
:100FC00029D0484527D0504525D0584523D09D49A4
:100FD000884220D09B49183188421CD09949303131
:100FE000884218D09849884215D0974918318842CC
:100FF00011D09549303188420DD09349483188420B
:1010000009D091496031884205D08F4978318842B2
:1010100001D08D499031016821F001010160206803
:101020000099019A491C0091914202D80168C907B0
:10103000F6D10068C00710D003200FE0FFE7016879
:10104000C905ACD403680121002223F0100303601A
:1010500084F8351084F83420A1E7012084F83500A5
:10106000002084F83400E16C00291DD002B0204635
:10107000BDE8F05F0847754988421DD073491431B7
:10108000884219D071492831884215D06F493C31C6
:10109000884211D06D49503188420DD06B4964317E
:1010A000884209D0694900E084E07831884203D061
:1010B00066498C3188427DD194F85C8004270168B0
:1010C00008F01F0807FA08F717EA0C0F009746D038
:1010D0004F0744D500980F04686003D5C8033CD47B
:1010E000A16CC1E7880638D42068B0422DD055499C
:1010F0006039884229D0484527D0504525D05845E9
:1011000023D05049884220D04E49183188421CD003
:101110004C493031884218D04B49884215D04A4951
:101120001831884211D04849303188420DD04649A3
:101130004831884209D0704507D0904205D0984286
:1011400003D04149A831884203D1016821F0080148
:1011500002E0016821F004010160216C84E70227AC
:1011600007FA08F717EA0C0F00974ED08F074CD5F7
:1011700000980F04686003D5C80344D4616C73E71A
:10118000880640D42068B0422FD02E49603988426A
:101190002BD0484529D0504527D0584525D029493E
:1011A000884222D02749183188421ED02549303143
:1011B000884200E044E018D02349884215D02249F3
:1011C0001831884211D02049303188420DD01E4953
:1011D0004831884209D0704507D0904205D09842E6
:1011E00003D01949A831884203D1016821F01401C4
:1011F00002E0016821F00A010160012184F8351044
:10120000002084F83400E16B2EE7082202FA08F28D
:1012100012EA0C0F14D0090712D5016821F00E0153
:10122000016094F85C100120002201F01F0100FA17
:1012300001F16960606584F8350084F8342012E7B4
:10124000BDE8FC9F88000240100402400854025888
:101250002DE9F05F044600F05FFC002C07467DD0CE
:10126000E34E022120684FF00308DFF888934FF027
:101270000005DFF884A3B042DFF880B334D0DC4A45
:101280001832904230D048452ED050452CD0584589
:101290002AD0DA4A1832904226D0D84A30329042C8
:1012A00022D0D64A483290421ED0D54A90421BD016
:1012B000D34A1832904217D0D14A3032904213D0DC
:1012C000CF4A483290420FD0CD4A603290420BD084
:1012D000CB4A7832904207D0C94A9032904203D02C
:1012E000C74AA83290427DD184F83510B04284F8C4
:1012F00034502ED0BE49183188422AD0484528D0D3
:10130000504526D0584524D0BC491831884220D0B9
:10131000BA49303188421CD0B8494831884218D087
:10132000B749884215D0B6491831884211D0B4491E
:10133000303188420DD0B2494831884209D0B04995
:101340006031884205D0AE497831884201D0AC493D
:101350009031016821F00101016008E027E100BF40
:1013600000F0DAFBC01B052801D920211CE1206810
:101370000068C007F4D104F108002168D4E9053CF5
:101380008E4685C809681043D4E907281F43636A5D
:1013900038439C4F40EA0C001043394040EA0800B3
:1013A000042B40EA010003D1D4E90B121143084396
:1013B000954909686FF30F01B1F1005F0FD36168C0
:1013C000A1F12902052A08D9163A032A05D9083AB3
:1013D000012A02D94F39032901D840F48010CEF8F0
:1013E000000000E023E02068676A4069042F20F0D5
:1013F000070047EA00070DD1D4E90A01074349B1C4
:101400002046FFF72FF928B140206065012184F8BC
:101410003510CCE0206847612046FFF741F894F88A
:101420005C203F2102F01F029140816054E0774A26
:1014300090421BD0754B1433984217D0734B28330E
:10144000984213D0714B3C3398420FD06F4B5033BE
:1014500098420BD06D4B6433984207D06B4B783376
:10146000984203D0694B8C3398427DD184F8351073
:1014700084F83450664B0168A26801EA030E402AE2
:1014800073D0802A72D00022D4E90378D4E90531E0
:1014900042EAD70242EAD8085C4AD4E9077C48EA23
:1014A000D30848EAD10141EAD701524241EA1C116E
:1014B000142341EA0E01016020681044B0FBF3F0F0
:1014C0008000E0652046FEF7EBFF94F85C200121E8
:1014D00002F01F02914041602068B04257D0444959
:1014E0001831884253D0484551D050454FD05845C7
:1014F0004DD042491831884249D040493031884264
:1015000045D03E494831884241D03D4988423ED08D
:101510003B49183188423AD039493031884236D077
:1015200037494831884232D03549603188422ED01F
:101530003349783188422AD031499031884226D0C7
:101540002F49A831884222D0304988421FD02F49E4
:10155000143188421BD02D492831884217D02B499D
:101560003C31884213D002E01DE017E018E0274923
:10157000503188420BD025496431884207D0234935
:101580007831884203D021498C31884229D12046C4
:10159000FEF7E0FFA06880280CD00CE0102273E773
:1015A0004FF4804270E74021616584F83580012066
:1015B000BDE8F09F6560216E20790860D4E91901CB
:1015C00041606068401E072808D82046FFF710F8E1
:1015D000E06E0560D4E91C01416002E0E566256724
:1015E00065670120656584F835000020E0E70000AC
:1015F00010000240400002405800024070000240CB
:10160000100402403F8010FE0010005C0854025895
:101610000F00FEFF2DE9F84F04008C464FF000004C
:10162000009014D094F83400012812D094F835506A
:101630000120002184F83400012D0CD0C002606527
:101640000120009084F834100098BDE8F88F012044
:10165000FBE70220F9E78C4D0226206884F835600C
:10166000A8428A4D61658A4E8A4FDFF82C82DFF8E6
:101670002C92DFF82CA2DFF82CB226D0A84224D07E
:10168000B04222D0B84220D040451ED048451CD0A0
:1016900050451AD0584518D08349884215D0824900
:1016A0001831884211D08049303188420DD07E49AE
:1016B0004831884209D07C496031884205D07A4956
:1016C0007831884201D078499031016821F00101D8
:1016D000016061462046FEF7EFFF6B4920688842B3
:1016E0002CD0A8422AD0B04228D0B84226D04045BB
:1016F00024D0484522D0504520D058451ED06A4AB3
:1017000090421BD0684A1832904217D0664A303255
:10171000904213D0644A483290420FD0624A6032FD
:1017200090420BD0604A7832904207D05E4A9032A5
:10173000904203D05C4AA83290420CD1026822F059
:101740001E0242F016020260206C88B12068026816
:1017500042F008020BE0026822F00E0242F00A0298
:101760000260206C20B12068026842F0040202602E
:10177000206888424BD0A84249D0B04247D0B842F6
:1017800045D0404543D0484541D050453FD05845CD
:101790003DD0454A90423AD0434A1832904236D022
:1017A000414A3032904232D03F4A483290422ED0A5
:1017B0003D4A603290422AD03B4A7832904226D04D
:1017C000394A9032904222D0374AA83290421ED0F5
:1017D000364A90421BD0354A1432904217D0334AD1
:1017E0002832904213D0314A3C3290420FD02F4AD7
:1017F000503290420BD02D4A6432904207D02B4A8F
:101800007832904203D0294A8C3290420DD1206E1A
:101810000268D20303D5026842F480720260E06E6F
:1018200018B1026842F4807202602068884226D0B3
:10183000A84224D0B04222D0B84220D040451ED089
:1018400048451CD050451AD0584518D016498842F2
:1018500015D015491831884211D0134930318842CA
:101860000DD011494831884209D00F496031884272
:1018700005D00D497831884201D00B49903101687B
:1018800041F001010160DFE6100002402800024043
:1018900040000240580002407000024088000240B0
:1018A000A0000240B8000240100402400854025850
:1018B00070B5044600F030F90546601C02D00448BB
:1018C0000078044400F028F9401BA042FAD370BD10
:1018D000000000242DE9F84F03247D4D00234FF034
:1018E00001094FF0B04B4FF00F0AE9E009FA03F796
:1018F0003A4076D00E7906F00306012E01D0022E72
:1019000018D1D0F808C04FEA430ECE6804FA0EF89A
:101910002CEA080C06FA0EF646EA0C068660D0F8A9
:1019200004C00E792CEA070CC6F300169E4046EA66
:101930000C0646600E79F643B6070BD0C6684FEA30
:1019400043088F6804FA08FC26EA0C0607FA08F731
:101950003743C7600E7906F00306022E12D1DE0867
:101960000F694FEA437C00EB8606B646366A4FEABB
:10197000DC6C0AFA0CF807FA0CF726EA080637437B
:10198000CEF820700F7906684FEA430807F0030786
:1019900004FA08FC07FA08F726EA0C063743076042
:1019A0004E6816F4403F1CD04A4E376847F0020795
:1019B000376036689F0706F00206009623F003069C
:1019C00006F1B046B6463F0FD6F80864DFF8088146
:1019D0000AFA07FC404526EA0C0603D14FF0000C3A
:1019E00041E06CE0DFF8F4C0604502D14FF0010C3B
:1019F00039E0DFF8ECC0604502D14FF0020C32E074
:101A0000DFF8E0C0604502D14FF0030C2BE0DFF8B7
:101A1000D8C0604502D14FF0040C24E0DFF8CCC000
:101A2000604502D14FF0050C1DE0DFF8C4C06045F1
:101A300002D14FF0060C16E0DFF8B8C0604502D1C5
:101A40004FF0070C0FE0DFF8B0C0604502D14FF057
:101A5000080C08E0DFF8A4C0604502D14FF0090C83
:101A600001E04FF00A0C0CFA07FC4CEA060CCEF829
:101A700008C44F68DBF80060FF0226EA020600D5C2
:101A800016435F46CBF80060D1F804C0DBF8046071
:101A90005FEA8C2C26EA020600D516437E606E684B
:101AA0004F6826EA0206BF0300D516436E602E6813
:101AB0004F6826EA0206FF0300D516432E605B1C22
:101AC0000A6832FA03F67FF411AFBDE8F88F000020
:101AD00080000058F44402580000025800040258E4
:101AE00000080258000C0258001002580014025856
:101AF00000180258001C0258002002580024025806
:101B00000AB1816170470904FBE7000001480068E1
:101B1000000C70470010005C0148806870470000AE
:101B200000000024024881680278114481607047F7
:101B300000000024032010B500F0D4F800F012FFDC
:101B40000F4A104914681368C4F3032203F00F030B
:101B50008A5CC95C02F01F0201F01F01D0400A4AF2
:101B600020FA01F11160094908600F2000F010F817
:101B700008B1012010BD00F079F8002010BD000070
:101B800018440258D04C0008100000240C00002417
:101B900070B50D4D04462878A0B14FF47A71B1FBB1
:101BA000F0F00A490968B1FBF0F001F050FE48B9C5
:101BB000102C07D200222146501E00F073F800209E
:101BC0006C6070BD012070BD000000240C0000247A
:101BD000154BF0B5083B427813491A600B680A1F91
:101BE00023F001030B6043681360057BC67A827A99
:101BF000437B2D07847B45EA0665C77B90F809C0C7
:101C0000067A90F800E045EAC24040EA834040EAA4
:101C1000444040EA074040EA0C2040EA460040EADF
:101C20000E000860F0BD0000A0ED00E0BFF35F8F84
:101C3000044800210368034A23F4803303607032B0
:101C40001160704724ED00E0074A40F001000649AA
:101C500070321060086840F480300860BFF34F8F26
:101C6000BFF36F8F7047000024ED00E0054808B512
:101C7000016841F002010160006800F0020000907C
:101C800008BD0000F4440258002809DB410900F0B7
:101C90001F028900012001F1E0219040C1F80001FC
:101CA000704700000E4BF0B41B680D46C3F30223CF
:101CB000C3F10706042E00D90426191D072901D2F5
:101CC000002300E0DB1E012404FA06F19C40491EBB
:101CD0002940641E994014402143F0BC02F0A9BF82
:101CE0000CED00E0064900F0070210B54FF6FF04C6
:101CF0000868044B204040EA02201843086010BDE9
:101D00000CED00E00000FA05134970B50A68D243F3
:101D1000520705D5096801F00701814213D118E087
:101D20000A6822F0070202430A60FFF7F5FE0A4D37
:101D30004FF47A760446083D07E000BFFFF7ECFE5B
:101D4000001BB04201D9012070BD2868C043800447
:101D5000F4D4002070BD00000C4802582DE9FE4F5D
:101D60000546DFF8E48350F8081B0024F64FC9430A
:101D7000019005F12800264608F12408009008018A
:101D80001DD4A86E50B1B0F5801F0CD0B0F5001F67
:101D90000ED0B0F5401F1ED001240FE0386840F48B
:101DA0000030386017E00198022101F001FE03E0E5
:101DB0000098022101F08CFE04000CD026462888F1
:101DC000C043C00523D4A86D05281ED2DFE800F06B
:101DD0000C11161B1B00AA6ED8F8001021F440113C
:101DE0001143C8F80010EAE7386840F40030386062
:101DF00009E00198002101F0DBFD03E000980021DB
:101E000001F066FE044674B100E0012426462888ED
:101E1000C043800528D4E86D80281ED00CDC90B12A
:101E200040280ED114E0AA6DD8F8001021F0070167
:101E30001143C8F80010EAE7C02813D0B0F5807F3E
:101E400010D001240FE0386840F40030386009E019
:101E50000198002101F0ACFD03E00098002101F0A1
:101E600037FE04469CB126462888DFF8DC92C04342
:101E700009F12C0940052CD4D5F8A800B0F5800F45
:101E800020D00DDCA0B1B0F5001F0FD115E0EA6D38
:101E9000D8F8001021F4E0711143C8F80010E3E70E
:101EA000B0F5C00F13D0B0F5000F10D001240FE033
:101EB000386840F40030386009E00198002101F0F2
:101EC00077FD03E00098002101F002FE04467CB19A
:101ED00026462888C04300052DD4D5F8AC00B0F1C3
:101EE000007F21D00EDCA8B1B0F1807F10D116E0C8
:101EF000D5F8A820D9F8001021F460011143C9F8E1
:101F00000010E6E7B0F1407F13D0B0F1806F10D041
:101F100001240FE0386840F40030386009E001988F
:101F2000002101F045FD03E00098002101F0D0FD03
:101F3000044674B126462868C04380011FD4E86C6B
:101F4000D8B110280FD0202812D0302815D0012465
:101F500014E0D5F8AC20D9F8001021F0E06111436D
:101F6000C9F80010E7E7386840F40030386004E052
:101F70000198022101F01CFD044674B12646288810
:101F8000C043C0042BD4286EB0F5005F20D00DDC18
:101F9000A0B1B0F5805F0FD115E06B48EA6C20303E
:101FA000016821F0300111430160E8E7B0F5405FBE
:101FB00013D0B0F5804F10D001240FE0386840F402
:101FC0000030386009E00198002101F0F1FC03E0E5
:101FD0000098002101F07CFD04468CB1264628883B
:101FE000C043800429D4686EB0F5403F23D010DC94
:101FF00008B3B0F5803F14D0B0F5003F0FD115E025
:102000002A6ED8F8001021F4E0411143C8F80010FE
:10201000E5E7B0F5802F0ED0B0F5A02F0BD001244E
:102020000AE00198012101F0C3FC03E000980121BE
:1020300001F04EFD044694B126462888C043400472
:102040002AD4D5F8B000B0F1405F23D010DC08B33B
:10205000B0F1805F14D0B0F1005F0FD115E06A6E6F
:10206000D8F8001021F4E0211143C8F80010E4E78B
:10207000B0F1804F0ED0B0F1A04F0BD001240AE098
:102080000198012101F094FC03E00098012101F086
:102090001FFD044674B126462888C04300041FD49F
:1020A000286FD8B1B0F1805F0ED0B0F1005F10D0D2
:1020B000012414E0D5F8B020D9F8001021F0E04157
:1020C0001143C9F80010E7E7386840F40030386081
:1020D00004E00198012101F06BFC044674B126462E
:1020E0002868C043C0011ED4A86CD0B101280ED00E
:1020F000022811D0032814D0012413E02A6FD8F845
:10210000001021F040511143C8F80010E8E738688A
:1021100040F40030386004E00198022101F048FCEE
:102120000446ACB126462868DFF81CB0C043ABF1CA
:102130001C0B400252D40548016841F480710160D3
:10214000FFF7EAFC824611E02C440258004802588E
:10215000FA48AA6C016821F0030111430160E2E72B
:10216000FFF7DAFCA0EB0A00642835D8F4480068D1
:10217000C005F5D58CBBDFF8C4A3B5F8B4100AF1DF
:10218000240ADAF8000001F4407100F4407088423B
:1021900011D0DAF80010DAF8002021F4407142F48E
:1021A0008032CAF80020DAF8002022F48032CAF81F
:1021B0000020CAF80010D5F8B400B0F5807F1AD11D
:1021C000FFF7AAFC029012E0FFF7A6FC0299411A61
:1021D00041F2883081420AD9032426462878DFF864
:1021E0005CA3C0430AF1080AC00721D03CE0DAF83A
:1021F00000008007E8D5D5F8B410C1F3012003280A
:1022000058460DD0016821F47C510160B5F8B42026
:10221000DAF80010C2F30B021143CAF80010DDE730
:10222000C84A036802EA111223F47C511143ECE717
:10223000E86F182816D005DCA0B1082808D01028AF
:1022400004D10AE020280DD028280BD001240AE070
:102250000198012101F0ACFB03E00098012101F09D
:1022600037FC044664B126462878C04380071ED454
:10227000A86F062819D2DFE800F0160C1116161602
:10228000EA6FDAF8001021F038011143CAF80010A3
:10229000EAE70198012101F08BFB03E0009801219E
:1022A00001F016FC04467CB100E0012426462878A3
:1022B000C04340071FD4D5F89400062819D2DFE8A0
:1022C00000F0160C11161616AA6FDAF8001021F09D
:1022D00007011143CAF80010E9E70198012101F054
:1022E00067FB03E00098012101F0F2FB0446A4B172
:1022F00000E0012426462878C04380062BD4D5F878
:102300009000B0F1405F24D011DC10B3B0F1805FD9
:1023100015D0B0F1005F10D116E0D5F89420D9F8AF
:10232000001021F007011143C9F80010E3E7B0F1F4
:10233000804F0ED0B0F1A04F0BD001240AE00198DD
:10234000002101F035FB03E00098022101F0C0FB01
:10235000044694B126462878C04340062BD4D5F8CD
:102360009C00B0F5406F24D011DC10B3B0F5806F45
:1023700015D0B0F5006F10D116E0D5F89020DAF83E
:10238000001021F0E0411143CAF80010E3E7B0F576
:10239000805F0ED0B0F5A05F0BD001240AE0019859
:1023A000002101F005FB03E00098022101F090FB01
:1023B000044694B126462878C04300062BD4D5F8AD
:1023C000A000B0F5C04F24D011DC10B3B0F5005F11
:1023D00015D0B0F5804F10D116E0D5F89C20D9F873
:1023E000001021F4E0511143C9F80010E3E7B0F503
:1023F000004F0ED0B0F5204F0BD001240AE0019819
:10240000002101F0D5FA03E00098022101F060FB01
:10241000044654B126462878C04300071ED4D5F898
:102420008400B0F5805F0AD00FE0D5F8A020D9F87D
:10243000001021F460411143C9F80010EBE7009847
:10244000022101F045FB00B10126D5F88420DAF81D
:10245000001021F440511143CAF800102878C043FD
:10246000C00613D4D5F89800B0F5807F05D1009848
:10247000022101F02DFB00B10126D5F89820D9F8F2
:10248000001021F440711143C9F800102868C043BE
:10249000000316D4D5F8A40038B1B0F5803F09D0B8
:1024A000B0F5003F0BD001240AE00198002101F0B3
:1024B0007FFA03E00098022101F00AFB04468CB188
:1024C00026462868C043400322D4D5F88800B0F5DA
:1024D000801F11D0B0F5001F13D0B0F5401F15D0EC
:1024E000012414E0D5F8A420D9F8001021F44031DB
:1024F0001143C9F80010E4E7386840F40030386050
:1025000004E00098012101F0E3FA04465CB126469C
:102510002868C043C00323D4286DA8B1B0F5803F1C
:1025200017D001241BE0D5F88820DAF8001021F438
:1025300040111143CAF80010EAE700004C44025869
:1025400000480258CFFFFF00386840F40030386080
:1025500004E00198022101F02BFA0446E4B126467A
:102560002868C043800005D40098022101F0B0FA29
:1025700000B101262868C04380031BD4D5F8800031
:10258000B0B1B0F5807F0FD0B0F5007F10D0B0F5BE
:10259000407F0DD001240CE05A482A6D016821F4D7
:1025A000803111430160DBE7386840F40030386067
:1025B000ECB326462868C043C00207D46A6FD8F837
:1025C000001021F000411143C8F800102868C043F2
:1025D000C00008D4D5F8B820DBF8001021F4804101
:1025E0001143CBF800102868C043800207D4EA6E7C
:1025F000D8F8001021F080711143C8F80010286845
:10260000C04340000CD4DBF8001021F40041CBF8AB
:102610000010DBF80010D5F8BC201143CBF80010F7
:102620002868C04308D437486A6D016800E018E0A4
:1026300021F04051114301602868C043000208D4D2
:10264000D5F88C20DAF8001021F440011143CAF8C3
:10265000001028790024C04300F0010020430AD074
:102660000FE0D5F88020DAF8001021F44071114312
:10267000CAF800109EE70198002101F099F900B115
:1026800006462879C04300F00200204305D1019896
:10269000012101F08DF900B106462879C04300F010
:1026A0000400204305D10198022101F081F900B115
:1026B00006462879C04300F00800204305D1009861
:1026C000002101F005FA00B106462879C04300F068
:1026D0001000204305D10098012101F0F9F900B163
:1026E00006462879C04300F02000044304D1009836
:1026F000022101F0EDF900B916B10120BDE8FE8F0D
:102700000020FBE74C4402582DE9F05F04000F461F
:102710007ED0DFF83882D8F8000000F00F00B84211
:102720000CD2D8F8001021F00F013943C8F800107E
:10273000D8F8000000F00F00B84269D12078844D2D
:1027400040070AD52069296801F07001884204D940
:10275000296821F070010143296020787C4E361DE4
:1027600000070AD56069316801F07001884204D918
:10277000316821F07001014331602078C0060AD52C
:10278000A069316801F4E061884204D9316821F41C
:10279000E061014331602078DFF8B4B180060BF1CD
:1027A000080B0CD5E1695846DBF8002002F07002F6
:1027B000914204D9026822F070020A430260207834
:1027C00080070AD5E068296801F00F01884204D922
:1027D000296821F00F01014329602078C0073ED00D
:1027E0005B49A2682868183920F47060104328609B
:1027F0006068022818D0032819D00968012819D068
:10280000490700294ADADFF848A1AAF1080A00E0DE
:1028100044E0DAF8002022F007020243CAF8002060
:10282000FFF77AF9814612E009688903E9E7096848
:102830008901E6E7C905E4E7FFF76EF9A0EB0901B6
:1028400041F28830814202D90320BDE8F09F6168DF
:10285000DAF8000000F03800B0EBC10FECD12078BE
:1028600080070AD5E068296801F00F01884204D288
:10287000296821F00F0101432960D8F80010404673
:1028800001F00F01B9420BD9016821F00F01394362
:102890000160006800F00F00B84201D00120D4E7C9
:1028A000207840070AD52069296801F07001884224
:1028B00004D2296821F070010143296020780007C3
:1028C0000AD56069316801F07001884204D231682C
:1028D00021F07001014331602078C0060AD5A0695B
:1028E000316801F4E061884204D2316821F4E0618A
:1028F00001433160207880060CD5E1695846DBF849
:10290000002002F07002914204D2026822F07002AC
:102910000A43026000F026F80E492A682B68C2F3C9
:10292000032203F00F038A5CC95C02F01F0201F06E
:102930001F01D040084A20FA01F1116007490860E0
:1029400007480068BDE8F05FFFF722B90020005299
:1029500018440258D04C0008100000240C00002439
:1029600004000024454970B545480968434B103BB5
:1029700011F0380208D00111082A03D0102A0BD018
:10298000182A0BD0084670BD19688906FBD519684E
:10299000C1F3C101C84070BD3A4870BD3749374DD9
:1029A00018310C1D24350A68096826682D6802F064
:1029B000030406F00102C1F30511C5F3CC0515FBB4
:1029C00002F200EE102AB8EE400AE9B32F4ADFED1A
:1029D0002E0AB7EE001A6CB1DFED2D1A012C01D0D2
:1029E000022C43D002EE101A1068F8EE422A81EE53
:1029F000A22A1EE01C68A40611D51B6801EE901ADD
:102A00001168C3F3C103F8EE612AD84001EE900AC1
:102A1000C1F30800F8EE611A81EEA22A0BE001EE84
:102A2000901ADFED1C2A00BFF8EE611A106882EEE2
:102A3000A12AC0F3080001EE900AF8EE611A40EEF8
:102A4000201A31EE810A00E015E022EE000A10683B
:102A5000C0F34620401C00EE900AF8EE600A80EEBB
:102A6000201ABCEEC10A10EE100A70BD01EE901AD9
:102A7000DFED092AD8E7002070BD0000104402589D
:102A80000090D00340787D010000003930440258A6
:102A90000024744A0024744C20BCBE4B2DE9F05F26
:102AA00004007DD0FF4F2078FE4D1837DFF8F493F7
:102AB000103DC00748D0D9F80000396800F0380050
:102AC000102815D0182803D101F0030002280FD0D8
:102AD0006068B0F5803F12D010B1B0F5A02F18D0CB
:102AE000286820F480302860286820F4802009E0DD
:102AF0002868800328D560680028D2D024E02868A0
:102B000040F480302860606888B1FFF705F8064619
:102B100009E0286840F480202860F0E7FEF7FCFF19
:102B2000801B64286FD828688003F7D50CE0FEF777
:102B3000F3FF064605E000BFFEF7EEFF801B6428AA
:102B4000F0D828688003F7D4207841F20308D54EE6
:102B50000C3E800769D5D9F80000396810F03800BC
:102B60000ED0182801D188070AD0E06890B32968F0
:102B700021F0190101432960FEF7CEFF824631E0C2
:102B80002868400702D5E06800288AD0E1682868F4
:102B900020F0190008432860FEF7BEFF824607E0D8
:102BA000DFE000BFFEF7B8FFA0EB0A000228B9D8AB
:102BB00028684007F6D500BFFEF7A8FF40451BD8A0
:102BC0002069402812D0316821F47C3141EA00307C
:102BD00030602AE018E000BFFEF79EFFA0EB0A007D
:102BE00002289FD828684007F6D5E5E7306820F42A
:102BF0007C3040F40030EBE7207C316821F0FE416E
:102C000041EA0060E4E70DE1286820F00100286057
:102C1000FEF782FF824605E0FEF77EFFA0EB0A008A
:102C200002288DD828684007F6D42078C0065DD5E4
:102C3000D9F80000DFF86CB2396800F03800ABF169
:102C4000040B082810D0182803D101F00300012834
:102C50000AD0E0690028286838D040F08000286059
:102C6000FEF75AFF824623E02868C00523D5E069B5
:102C7000802876D11FE0206A202821D0316821F0F9
:102C8000F84141EA8060306030E000BF94F82010E5
:102C9000DBF8002022F07C5242EA0161CBF8001000
:102CA00024E000BFFEF738FFA0EB0A00022898D806
:102CB0002868C005F6D5FEF729FF4045E6D8DAE7D3
:102CC000306820F0F84040F08040DCE720F08000E1
:102CD0002860FEF721FF064605E000BFFEF71CFF57
:102CE000801B02289DD82868C005F7D420780007EB
:102CF00029D56C486169643000298046016811D08B
:102D000041F001010160FEF707FF064605E000BF44
:102D1000FEF702FF801B0228C9D8D8F80000800700
:102D2000F6D510E021F001010160FEF7F5FE064640
:102D300005E000BFFEF7F0FE801B022872D8D8F82D
:102D400000008007F6D42078800623D5A0690028EB
:102D5000286810D040F480502860FEF7DDFE06465B
:102D600005E036E1FEF7D8FE801B02285AD8286815
:102D70008004F7D50EE020F480502860FEF7CCFEEA
:102D8000064604E0FEF7C8FE801B02284AD82868E1
:102D90008004F7D4207840074FD5DFF80C81D8F8AD
:102DA000001041F48071C8F80010FEF7B5FE064629
:102DB00005E000BFFEF7B0FE801B642832D8D8F8CB
:102DC0000000C005F6D5374EA068603601280AD04D
:102DD00008B1052813D0306820F001003060306859
:102DE00020F0040002E0306840F001003060A0688C
:102DF00041F2883A90B1FEF78FFE80460AE03068D3
:102E000040F004003060EEE7FEF786FEA0EB08011C
:102E1000514507D830688007F6D50EE0FEF77CFEF6
:102E2000804607E084E000BFFEF776FEA0EB0801D5
:102E300051457DD830688007F6D4606AB0B3DFF8BA
:102E40006480D9F8001008F120084FF6F87B08F1EB
:102E50000409C1F3C2010329A8F1040A69D00228B8
:102E6000286820F08070286003D0FEF755FE0446E5
:102E700084E0FEF751FE064605E000BFFEF74CFE7B
:102E8000801B022877D828688001F7D4E26A40F2D4
:102E9000F331386854F8283F884340EA0210184359
:102EA000386004E01044025800480258B5E0217B25
:102EB000434622894FF4FE0C208A4FF0FE47490218
:102EC000267D521E401EA1F50071C2F308088AB289
:102ED000761E0CEA004042EA08020243504607EA26
:102EE00006610A431A60DAF8002022F00102CAF8EB
:102EF0000020D9F80020266A22EA0B0242EAC60224
:102F0000C9F80020DAF80010A26921F00C01114381
:102F1000CAF800100168E26921F002011143016062
:102F2000016841F480310160016841F4003101E041
:102F300021E027E00160016841F48021016001681F
:102F400041F001010160286840F080702860FEF7C0
:102F5000E3FD044605E000BFFEF7DEFD001B02288E
:102F600009D828688001F7D557E000BFFEF7D4FDE7
:102F7000001B022802D90320BDE8F09F28688001C9
:102F8000F4D44AE039680128D8F8000021D0A26AB8
:102F900001F0030393421CD1E26AC1F305118A4296
:102FA00017D1216BC0F30802491E8A4211D1616B0F
:102FB000C0F34622491E91420BD1A16BC0F30642D9
:102FC000491E914205D1E16BC0F30660491E814262
:102FD00001D00120D0E7A16C4E46D9F80000C0F323
:102FE000CC00814219D0DAF80000554620F00100EB
:102FF000CAF80000FEF790FD4FEA0007FEF78CFDCF
:10300000B842FBD0A26C306820EA0B0040EAC20054
:103010003060286840F0010028600020ACE770476D
:103020002DE9F0470446006800210369426987687A
:1030300094F8816000F130095FEA025C03EA02055E
:103040000AD51A0708D5816941F4006181612046DB
:1030500000F01BFABDE8F08715F0600F08D1680793
:1030600006D5616F20468847216F20468847012199
:1030700005F04100012805D1680703D4216F2046DF
:103080008847012105F02200022806D1680704D4F0
:10309000616F2046BDE8F04708470029DAD12807CC
:1030A0004FF001085BD52068816941F0080181611A
:1030B0002068816941F0100181612068816941F4D3
:1030C000006181612068016921F0080101612068C7
:1030D000806810F4404F20D023E0E0680F2806D924
:1030E0002068616E006B0860606E001D0FE00728AD
:1030F00006D9B9F80000616E0880606E801C06E099
:103100002068616E90F830000870606E401C606648
:10311000B4F86A00401EA4F86A00B4F86A000028F7
:10312000DBD1204600F06AFD84F88180D4F8840069
:1031300018B12046FFF773FF8CE7052E07D0042E49
:1031400009D0032E86D1204600F07EFB82E7204680
:1031500000F07CFB7EE7204600F096F97AE715F454
:10316000587FE9D068060AD5D4F8840040F00400FE
:10317000C4F884002068816941F040018161A8059C
:103180000AD5D4F8840040F00100C4F88400206817
:10319000816941F400718161E8050AD5D4F88400A1
:1031A00040F00800C4F884002068816941F480710F
:1031B0008161A8060AD5D4F8840040F08000C4F8E4
:1031C00084002068816941F020018161D4F8840085
:1031D0000028B1D0206840F26B32C7F38131036818
:1031E000032923F0010101602068016921EA02013D
:1031F000016102D084F881809BE72068104D8168CE
:1032000021F440418160E06F50B10565E06FFDF74A
:1032100067FB28B1D4F8840040F04000C4F8840073
:10322000A06F002888D00565A06FFDF759FB002826
:103230008CD0D4F8840040F04000C4F8840009E742
:10324000B93C00082DE9F047040029D0594A4FF055
:1032500000092068584B594D9042C4F8289006D078
:10326000984204D0A84202D0E1680F2918D8E1683A
:103270004FF0010AE76B0831C9080AEB5716714392
:10328000904205D0984203D0A84201D0082907D81F
:10329000904203D0984201D0A84204D1102902D90B
:1032A0000120BDE8F08794F8810020B9204684F819
:1032B000809000F085F8022084F881002068016881
:1032C00021F0010101602068A1698268B1F1806F7D
:1032D00002F4F81110D16268B2F5800F01D01AB172
:1032E0000AE0A26B22B107E0A26BB2F1805F03D1CA
:1032F000026842F4805202606068400209D5E068CA
:10330000072806D32068236D026822F480721A43CE
:1033100003E02068026822F480720260A66AE06915
:10332000E26B25683043E3680A4310431843A86002
:10333000D4E90D02D4E90581636A25691843D4F8FC
:1033400020C00A43266810432843A56DD4E90172C2
:10335000D4E9123140EA080040EA0C00384308433F
:10336000104318432843F060606868B9206881689A
:1033700021F4C05141F4006181602068816821F42A
:10338000C06141F4806181602068016D21F001011C
:1033900001656068400206D52068626DC16821F051
:1033A00000411143C160C4F8849084F881A00020DA
:1033B00077E700000030014000380040003C00404A
:1033C00070B5B6B00646142130A8FCF7FFFFC02147
:1033D0006846FCF7FBFF27493068884248D18114D2
:1033E000002018900546CDE900106846FEF7B6FCAF
:1033F00008B1FDF772FA2048016841F4004101600C
:10340000006800F4004035901B480838016841F01E
:1034100004010160006830AB022100F00400359027
:103420004FF4A050062283E82300144830A9CDE9C8
:103430003352FEF74FFA124C3E211248402284E8E4
:10344000270003152046C4E90435A561E56125621E
:103450006562FDF7FDFE08B1FDF73FFA0022B46793
:1034600033201146A663FEF71DFC3320FEF70CFC4B
:1034700036B070BD003C0040E844025800080258D5
:10348000B800002410000240704770472DE9F84F43
:10349000044600689946174600F1200B8A46FEF75D
:1034A0003BFB064694F88100012839D1BAF1000FA0
:1034B0007ED0002FFCD094F88000012830D0A26884
:1034C00000254FF0010884F88080032184F88110E2
:1034D000C4F88450C4F85CA06566A4F868506567B9
:1034E00025672C34B2F5C02FA786E786E58754F808
:1034F0002C0D18D0C16821F4C02141F40031C16005
:10350000206841686FF30F0139434160206801680A
:1035100041F0010101606068B0F5800F08D00CE057
:103520000220BDE8F88F016841F400610160E7E71F
:103530002068016841F400710160E0680F281CD820
:1035400020E02068416989070BD5E16D09680162B7
:10355000E06D001DE065B4F86200401EA4F8620052
:103560000BE0FEF7D9FA811B494503D3B9F1FF3FC0
:1035700003D09DE0B9F1000F32D0B4F8620000280A
:10358000DFD179E007282FD872E0206841698907E8
:103590001ED5B4F8621001290DD9E16B59B1E16D66
:1035A00009680162E06D001DE065B4F8620000E0AA
:1035B0007CE0801E09E0E06D0188ABF80010E06D52
:1035C000801CE065B4F86200401EA4F862000BE0C5
:1035D000FEF7A2FA811B494503D3B9F1FF3F03D09F
:1035E00066E0B9F1000F63D0B4F862000028CCD1D6
:1035F00042E02068416989072ED5B4F8621003299A
:103600000CD9E16B402909D9E16D09680162E06DCF
:10361000001DE065B4F86200001F1AE0B4F8621003
:1036200001290CD9E16B51B1E06D0188ABF80010B4
:10363000E06D801CE065B4F86200801E09E0E16D79
:10364000097880F82010E06D401CE065B4F8620055
:10365000401EA4F862000BE0FEF75EFA811B4945AC
:1036600003D3B9F1FF3F03D022E0B9F1000F1FD01F
:10367000B4F862000028BCD100224B460821204645
:10368000009600F055FB28B1D4F8840040F02000EB
:10369000C4F88400204600F0B1FA84F88180D4F8A0
:1036A000840084F8805000283FF43BAF012038E7C5
:1036B000204600F0A3FAD4F8841084F8805041F436
:1036C0008071C4F8841084F88180032029E7000009
:1036D0002DE9F041044690F88100164601283DD1BD
:1036E00000293AD0002E7FD094F88000012835D0F0
:1036F000A2680025012784F88070032084F88100E7
:10370000C4F88450656665672567E165A4F868506C
:103710002C34B2F5C02FA686E686E58754F82C0D2A
:103720001FD0C16821F4C02141F40031C0F80C1051
:10373000E1684FF480420F2903D9A06F806990425D
:1037400009D1A06F07294FF400530FD9806998421F
:103750001DD090421BD084F8805045E00220BDE887
:10376000F081016841F400610160E1E781699942FB
:1037700005D1B4F86210491C4908A4F862108069A8
:1037800090420ED1B4F86200C01C800807E00F29F7
:1037900007D8904205D1B4F86200401C4008A4F854
:1037A0006200A06F25490164A16F2548C863A16F1D
:1037B0002448C864A06F05652068816821F4004131
:1037C0008160B4F862302268E16DA06F2032FDF7AD
:1037D00021FF58B1D4F8840084F8805040F01000E4
:1037E000C4F8840084F881700120B8E7A06FC06934
:1037F000B0F5807F206841686FF30F0100D031433E
:1038000041602068816841F400418160206801695D
:1038100041F4487101612068016841F001010160D3
:103820006068B0F5800F04D12068016841F4007130
:103830000160002084F8805091E70000FF3C000800
:10384000093D0008D33C0008704770477047401E90
:10385000B0F1807F10B501D3012010BD4FF0E024FE
:1038600060610F21601701F0E4F90020A0610721D9
:10387000216110BDFEE70000094808B5016841F06C
:103880000101016000680022114600F00100009073
:103890000B20FEF707FABDE808400B20FEF7F4B94D
:1038A000D84402582DE9F04186B014216846FCF74F
:1038B0008DFD2348016841F080010160016801F03D
:1038C00080010591016841F004010160016801F087
:1038D00004010591016841F001010160016801F0F6
:1038E00001010591016841F00801016000684FF491
:1038F0003066144F002200F008003146059038462B
:10390000FEF7FEF8DFF84080002204214046FEF773
:10391000F7F800240096012569463846CDE90154A0
:103920000394FDF7D7FF04200090CDE901546946C8
:1039300040460394FDF7CEFF06B0BDE8F0810000DD
:10394000E044025800080258000C02582DE9F041EA
:103950004FF480041348124A07266511E70023013B
:1039600080E8F4000021C0E90513C1611A01016279
:1039700041628162C162C0E90D21C1630164416499
:103980008164C164016541658165FFF75BFC0028C6
:1039900003D0BDE8F041FCF7A0BFBDE8F081000016
:1039A000003C004030000024FEE7FEE770470000C6
:1039B0002DE9F047454D044689464FF0000A286836
:1039C000C04380070AD0414E283E306820F0806016
:1039D0003060FEF7A1F80746B04608E00120BDE8D8
:1039E000F08700BFFEF798F8C01B022867D8D8F808
:1039F00000000001F6D4206829684FF4FE0721F486
:103A00007C313E0241EA00302860207AA389B4F874
:103A100004C040022D4D2D495B1E227CACF1010CEF
:103A20001035091DA0F5007080B2521ECCF3080CB1
:103A300007EA034340EA0C00184306EA0262104317
:103A400028600868626920F0C000104308600A68B6
:103A5000A06922F0200202430A60281D0A6822F0B1
:103A600010020A6002684FF6F873E4699A4342EA6A
:103A7000C40202600868B9F1000F40F010020A6049
:103A800011D00868B9F1010F11D040F4001008609E
:103A9000D8F80000444640F08060C8F80000FEF707
:103AA0003BF805460DE0086840F40020EFE740F4DD
:103AB0008010ECE7FEF730F8401B022801D9032004
:103AC0008DE720680001F5D5504688E72844025864
:103AD0002DE9F047454D044689464FF0000A286815
:103AE000C04380070AD0414E283E306820F0805005
:103AF0003060FEF711F80746B04608E00120BDE847
:103B0000F08700BFFEF708F8C01B022867D8D8F876
:103B100000008000F6D4208829684FF4FE0721F0C9
:103B20007C713E0241EA00502860207AA389B4F8F3
:103B300004C040022D4D2D495B1E227CACF1010CCE
:103B40001835091DA0F5007080B2521ECCF3080C88
:103B500007EA034340EA0C00184306EA02621043F6
:103B600028600868626920F44060104308600A68B1
:103B7000A06922F4007202430A60281D0A6822F438
:103B800080720A6002684FF6F873E4699A4342EA69
:103B9000C40202600868B9F1000F40F480720A6044
:103BA00011D00868B9F1010F11D040F080700860A1
:103BB000D8F80000444640F08050C8F80000FDF7F7
:103BC000ABFF05460DE0086840F48000EFE740F4E5
:103BD0000000ECE7FDF7A0FF401B022801D90320FD
:103BE0008DE720688000F5D5504688E728440258C4
:103BF0000148FFF715BA00003000002410B5026834
:103C000040F26F335169946944F00804946102688A
:103C1000946944F0100494610268146824F001046B
:103C20001460026814699C4314610268936823F469
:103C30004043936090F88120042A0CD08A060AD56C
:103C4000D0F8842042F08002C0F884200268936992
:103C500043F02003936190F88120032A0CD04A0698
:103C60000AD5D0F8842042F00402C0F8842002680B
:103C7000936943F0400393618A050AD5D0F8842004
:103C800042F00102C0F884200268936943F4007393
:103C90009361C9050AD5D0F8841041F00801C0F835
:103CA000841001688A6942F480728A610021A0F858
:103CB0006210A0F86A1010BD10B5806B00210122BF
:103CC000A0F86A10A0F8621080F88120FFF7A7F929
:103CD00010BD10B5846BFCF745FF02280ED02046BE
:103CE000FFF78CFFD4F88410012041F01001C4F8D4
:103CF000841084F881002046FFF791F910BD10B5BB
:103D0000806BFFF7A2FD10BD10B5806B90F881109D
:103D1000072909D0816FC969B1F5807F05D0006896
:103D2000016941F00801016110BDFFF78DFD10BD73
:103D30002DE9F0411C4616460D460746DDF8188071
:103D40000AE000BFFDF7E8FEA0EB0800A04202D3A6
:103D5000601C01D00BE054B13868406935EA0000BE
:103D600007D00020B042EDD00020BDE8F081032054
:103D7000FBE70120F6E700002DE9FF4F0746144658
:103D800050000E4600254FF00109C2F101082A46F5
:103D9000042183B0C0F1000A3F48FDF7B1FE30199D
:103DA000069A81B2384600F039FA301B069A81B281
:103DB000384600F033FA3819069A80B2314600F0DE
:103DC0002DFA381B069A80B2314658E0B8F1000F40
:103DD00009DB0AF102000FFA80FA641E08EB0A0000
:103DE00024B20FFA80F809F102000FFA80F96D1C75
:103DF00008EB09002DB20FFA80F87819019006EB54
:103E0000040B069A1FFA8BF180B200F007FA781BB8
:103E1000069A1FFA8BF1009080B200F0FFF901982A
:103E2000A6EB040B1FFA8BF1069A80B200F0F6F9AC
:103E300000981FFA8BF1069A80B200F0EFF938195A
:103E4000019006EB050B069A1FFA8BF180B200F089
:103E5000E5F9381B069A1FFA8BF1009080B200F04A
:103E6000DDF90198A6EB050B1FFA8BF1069A80B2DB
:103E700000F0D4F900981FFA8BF1069A80B200F096
:103E8000CDF9A542A2DB07B0034801220421BDE819
:103E9000F04FFDF735BE0000000C02582DE9FE4F33
:103EA0009846144600220D46042107464148FDF776
:103EB00027FEC4EBC4304FF0010AC4F101024100F7
:103EC0000FFA81FB0FFA82F942462919B8B289B27A
:103ED000002600F0A3F9281B424681B2B8B200F0D8
:103EE0009DF938194246A9B2029080B200F096F9C5
:103EF000381B4246A9B2019080B200F08FF90298B7
:103F0000ABB2A9B2CDF8008082B2019880B244E091
:103F1000B9F1000F09DB0BF102000FFA80FB641E00
:103F200009EB0B0024B20FFA80F9CDF800800AF1FA
:103F300002000FFA80FA761C36B2BB19B81B09EBE7
:103F40000A010FFA81F9CDE901039AB229198BB25E
:103F500089B280B200F010F90198291B029B82B24D
:103F6000CDF8008098B28BB289B200F005F93A1B07
:103F7000CDF800803819A919CDE901028BB292B2AF
:103F800089B280B200F0F8F8029AA91B01988BB2AE
:103F900092B2CDF8008080B289B200F0EDF8A6426E
:103FA000B6DB03B0034801220421BDE8F04FFDF762
:103FB000A7BD0000000C02582DE9F84FDFF86CA0F7
:103FC0001F4614460D46DDF82890002204210646BF
:103FD0005046FDF795FDF02E26D2F02D24D2301953
:103FE000F02802D3C6F1F00084B2E819F02802D319
:103FF000C5F1F00087B206EB040800240BE0281995
:10400000CDF8009083B281B230461FFA88F200F0FA
:10401000B3F8641CE4B2BC42F1D95046BDE8F84F95
:1040200001220421FDF76CBDBDE8F88F000C025899
:104030002DE9FE4F9946904600220C460421064683
:104040003148FDF75DFD0027A8EB0601002901DCE2
:10405000A6EB0801A9EB040009B2002801DCA4EBDF
:1040600009004FF0FF32B04525B236B200B203D39B
:10407000012301939A4601E092460192A14503D3A0
:104080004FF0010BD94601E09346D9464FF00002AC
:10409000814207DB9146019201EBD1728846029082
:1040A000541026E092464FF0000B00EBD072804691
:1040B000029154101DE00E98A9B2DDE90C23009086
:1040C000B0B200F059F80298204404B2444508DB2D
:1040D0000198A4EB08010CB2321805EB0B0016B2E4
:1040E00005B27F1C06EB0A0105EB09000EB205B212
:1040F0003FB24745DFDD03B0034801220421BDE89C
:10410000F04FFDF7FDBC0000000C02582DE9F05FF8
:10411000F028984691460C46DDF828B0054626D290
:10412000F02C24D205EB09077F1EF02F1FDA04EBD9
:104130000806761EF02E1ADADFF838A000220421D5
:104140005046FDF7DDFCB3B22146BAB2284600F076
:10415000BDF94FEA4901584601FB08F100F002FCA5
:104160005046BDE8F05F01220421FDF7C9BCBDE85F
:10417000F09F0000000C02582DE9F05F0C46064647
:10418000181B1546002800DCE01AA91B002900DCDA
:10419000711B884207DD30464FF001082646044671
:1041A0001D46134601E04FF00008AE4205D93046E7
:1041B0002E46054620461C460346A91B181B0FFA2F
:1041C00081F9002800DCE01A0FFA80FB09EBD970B6
:1041D00047109C4201D2012001E04FF0FF3082469F
:1041E00018E000BF0A9AB8F1000F02D0314620460D
:1041F00001E02146304600F011F8A7EB0B0007B2B2
:10420000002F05DA04EB0A0107EB09008CB207B2B4
:10421000761CB6B2AE42E5D9BDE8F09F38B5F028BD
:10422000144619D2F02917D20B46024600F04EF977
:10423000200A8DF800008DF801400022074C04216F
:104240002046FDF75DFC0221684600F08BFB012251
:1042500020460421FDF754FC38BD0000000C025834
:104260002DE9F843164F1D4616468946089C002244
:10427000042180463846FDF743FC4B46324619463A
:1042800040460094FFF778FF42462B4649461046C9
:104290000094FFF771FF2B463246194640460094C2
:1042A000FFF76AFF32462B46494610460094FFF757
:1042B00063FF3846BDE8F84301220421FDF720BC26
:1042C000000C02582DE9F84F144F9A469346884641
:1042D0000A9E002204218146DDE90B543846FDF791
:1042E0000FFC53465A46414648460094FFF744FFA8
:1042F0002B463246514658460094FFF73DFF434651
:104300004A46294630460094FFF736FF3846BDE856
:10431000F84F01220421FDF7F3BB0000000C025806
:104320002DE9F041EF23074600211A46084600F028
:10433000CDF80E4E002204213046FDF7E1FB0024AB
:104340004FF416650A483A462946FCF715F808481E
:10435000294600F007FB641CA4B2302CF2D330468F
:10436000BDE8F04101220421FDF7CABB000C025850
:10437000300100247FB549484FF41661FCF704F87A
:104380000A20FDF795FA464C4FF4007500222946A5
:104390002046FDF7B5FB0A20FDF78AFA01222946DF
:1043A0002046FDF7ADFB1420FDF782FA3A2000F01D
:1043B000B9FA552000F01EFBB22000F0B3FA39A183
:1043C000D1E90001CDE900010521684600F0CAFAF3
:1043D000022000F0B7F8B72000F0A4FA352000F072
:1043E00009FBBB2000F09EFA192000F003FBC0205F
:1043F00000F098FA2C2000F0FDFAC22000F092FAAA
:10440000012000F0F7FAC32000F08CFA122000F02F
:10441000F1FAC42000F086FA202000F0EBFAC62062
:1044200000F080FA0F2000F0E5FAD02000F07AFAD0
:10443000A42000F0DFFAA12000F0DCFAE02000F078
:1044400071FA1AA00FC88DE80F000E21684600F01F
:1044500089FAE12000F066FA18A10FC98DE80F0073
:104460000E21684600F07EFA212000F05BFA112050
:1044700000F058FA132000F055FA292000F052FA03
:104480003220FDF715FA0020FFF74AFF04B020465E
:104490000122BDE870401102FDF732BB300100245B
:1044A000000802580C0C003333000000D0040D113A
:1044B000132B3F544C180D0B1F230000D0040C117C
:1044C000132C3F44512F1F1F202300002DE9F843D8
:1044D000DFF86C801C4615460E4600220746042174
:1044E0004046FDF70DFB2A2000F01CFA380A8DF833
:1044F00000008DF80170290A8DF802100421684629
:104500008DF8035000F02EFA2B2000F00BFA300A41
:104510008DF800008DF80160210A8DF80210042149
:1045200068468DF8034000F01DFA2C2000F0FAF9DF
:104530004046BDE8F84301220421FDF7E1BA00003E
:10454000000C025810B50446362000F0EBF954B1C7
:10455000012C0AD0022C0AD0032C0AD16020BDE81D
:10456000104000F047BAC020F9E7A020F7E700208C
:10457000F5E710BD2DE9FE4F4FF6FF752846FFF712
:10458000CFFE4FF47A7B5846FDF792F99A4C4FF4E0
:104590007848CDE90185142198A2606800900A202E
:1045A000236800F047FA5846FDF782F96810FFF7D4
:1045B000B7FE4FF4FA773846FDF77AF94046FFF731
:1045C000AFFE3846FDF774F91F20FFF7A9FE384605
:1045D000FDF76EF94FF4FC60FFF7A2FE3846FDF7D9
:1045E00067F94FF6E0763046FFF79AFE3846FDF75A
:1045F0005FF94BF64040FFF793FE3846FDF758F958
:1046000040F2CF10FFF78CFE3846FDF751F94FF618
:104610001F094846FFF784FE3846FDF749F948F27E
:104620001F40FFF77DFE3846FDF742F94CF2186057
:10463000FFF776FE3846FDF73BF942F61230FFF7FA
:104640006FFE3846FDF734F92846FFF769FE384615
:10465000FDF72EF96C4F6811CDE901050A216BA217
:104660007868009008463B6800F0E4F96A486BA25D
:10467000CDE9018541680091322103680A2000F0EC
:10468000D9F9CDE9016560684B2100900A202368C3
:1046900062A200F0CFF9CDE901957868642100901D
:1046A0000A203B685DA200F0C5F95846FDF700F905
:1046B0004046FFF735FE00270A215CA2CDE90167DD
:1046C000606800900846236800F0B4F96423009500
:1046D0001E211A460846FFF7C3FD5846FDF7E8F8C5
:1046E0004046FFF71DFECDE9016760680A21009092
:1046F00051A22368084600F09DF9322300951E213F
:104700001A460846FFF758FC5846FDF7D1F84046D0
:10471000FFF706FECDE9016760680A2100904AA212
:104720002368084600F086F93C212B4619220846EA
:10473000FFF722FB5846FDF7BBF84046FFF7F0FDB8
:10474000CDE9016760680A21009041A2236808460C
:1047500000F070F93C212B4619220846FFF79EFB1A
:104760005846FDF7A5F84046FFF7DAFDCDE90167A9
:1047700060680A21009039A22368084600F05AF9BF
:104780001E224FF028094FF03C0ACDF800A0462326
:104790001146CDE901951046FFF794FD5846FDF707
:1047A00087F84046FFF7BCFDCDE9016760680A2144
:1047B00000902DA22368084600F03CF91E22CDF897
:1047C00000A046231146CDE901951046FFF730FCC5
:1047D0005846FDF76DF82846FFF7A2FD25488023CF
:1047E00000211A4600900846FFF790FCBDE8FE4FF6
:1047F00040F6B830FDF75CB81C00002453706565C6
:10480000642054657374000024000024466F6E74A5
:1048100020746573742E00001400002448656C6CCD
:104820006F20537465766521000000005265637443
:104830002E2F4C696E652E0046696C6C65642052A3
:104840006563742E00000000436972636C652E007E
:1048500046696C6C6564204369722E00547269610C
:104860006E676C650000000046696C6C65642054DE
:1048700072690000F47400080FB42DE9FF5F002294
:104880001F460C46054626480421DDE913A9FDF71D
:1048900037F9C7F30726601E691EFFB2304439445A
:1048A00083B228468AB22146FFF710FE00252BE08E
:1048B0001098002409F0FF0B203810FB06514FEA36
:1048C0001A2002900AF0FF0001904FEA1920009090
:1048D000129830F8118014E008FA04F0000406D5AC
:1048E00002988DF80C0001988DF80D0004E00098F6
:1048F0008DF80C008DF80DB0022103A800F032F8FD
:10490000641CA742E8D86D1CAE42D1D804B004485C
:1049100001220421BDE8F01F5DF814EBFDF7F0B8AB
:10492000000C025831B50C4C002204212046FDF742
:10493000E7F80A4800224FF40061FDF7E1F8084863
:1049400001224FF0FF336946FEF7A0FD0122204609
:104950000421FDF7D5F838BD000C025800080258B4
:10496000300000242DE9F05FDFF878B000220C461B
:10497000064604215846FDF7C3F801221A48D10221
:10498000FDF7BEF8194F4FF48038DFF864904FF60A
:10499000FF7A1DE0444501D3514600E021463888A6
:1049A0008DB2A0420BD812482A463146FEF790FE3F
:1049B000D9F8780090F835100129FBD106E00C48B1
:1049C0004FF0FF332A463146FEF760FD641B2E444C
:1049D000002CDFD15846BDE8F05F01220421FDF72D
:1049E0008FB80000000C0258000802582C00002468
:1049F0003000002431B50C4C002204212046FDF784
:104A00007FF801220948D102FDF77AF8084801220F
:104A10004FF0FF336946FEF739FD0122204604219D
:104A2000FDF76EF838BD0000000C0258000802586F
:104A3000300000242DE9FE4FDFF8649098461446BC
:104A40000E460022054604214846DDE90DBAFDF771
:104A500057F808F0FF0718E07819F02809D3C8F3D1
:104A6000072081198EB200253044F02810D2202A68
:104A70000AD0CDE901BA0C98434631460090284649
:104A8000FFF7FAFE781985B2641C2278002AE3D178
:104A900003B0484601220421BDE8F04FFDF730B8CD
:104AA000000C02587047FDF73DB8000070B59CB08F
:104AB0004C216846FBF78AFC202113A8FBF786FCF3
:104AC0000220FDF721F921490A68214822F001025C
:104AD0000A600968016821F4404141F480410160A5
:104AE0000168002401F440411B9101688904FCD550
:104AF000022009900C220A90C5030321CDE90B0284
:104B0000CDE90015CDE90D014026CDE90F02CDE933
:104B1000110401236846CDE90336FDF7BFFF08B154
:104B200072B6FEE73F20CDE913041594012113A8C6
:104B300016941794189419941A94FDF7E5FD00281B
:104B400001D072B6FEE71CB070BD00002C04005806
:104B5000184802582C48F0B52C4A016841F47001FD
:104B60000160106800F00F00072804D2106820F0E0
:104B70000F00C01D106026490020254C10340B6822
:104B8000244D43F001030B6020600B682B400B6049
:104B9000136803F00F03072B04D9136823F00F03E6
:104BA000DB1D13601A4C1C4A18341C4B261D371D84
:104BB0002060174C1A4D28343060261D3860371D90
:104BC00023603B1D35601C1D3A60251D2E1D18609D
:104BD000331D22602860326018600A680C4B114C4B
:104BE00022F4802260330A60186020686FF30F009F
:104BF000B0F1005F03D20C490120C1F8080143F273
:104C0000D2000A490860F0BD88ED00E000200052A3
:104C1000004402587FEDF6EA800201010002020220
:104C20000000FF010010005C0080005100400052B5
:104C3000FEE7090700284FEA116104DB00F1E020DC
:104C400080F80014704700F00F0000F1E02080F8B9
:104C5000141D70471FB5002400940194029403941E
:104C6000FCF7E4FF01208DF80C001F218DF80810DF
:104C700087228DF809208DF80D008DF80000684618
:104C80008DF80A408DF80E408DF8014001948DF8A2
:104C90000B408DF80F40FCF79BFF0420FCF7D4FF7E
:104CA000FCF748FFFFF702FFFEF7FCFDFEF7E4FD0F
:104CB000FEF74CFEFFF75EFBFFF75CFCFCE74FF0F6
:104CC0004070E1EE100A704700061016000610163C
:104CD00000000000010203040102030406070809A2
:104CE00000000000000000000000000000000000C4
:104CF0000000000000100010001000100010001054
:104D0000000000100000000000280028002800001B
:104D1000000000000000000000000000002400244B
:104D2000007C00240048007C00480048000000008F
:104D3000003800540050003800140054005400386B
:104D400000100000002000540058003000280054DB
:104D500000140008000000000010002800280010C7
:104D6000003400480048003400000000001000102B
:104D70000010000000000000000000000000000023
:104D8000000800100020002000200020002000204B
:104D900000100008002000100008000800080008AB
:104DA0000008000800100020001000380010002843
:104DB00000000000000000000000000000000000F3
:104DC00000100010007C0010001000000000000027
:104DD00000000000000000000000000000000010C3
:104DE000001000100000000000000000000000386B
:104DF00000000000000000000000000000000000B3
:104E00000000000000000010000000000008000882
:104E10000010001000100010002000200000000012
:104E2000003800440044005400440044004400386A
:104E300000000000001000300050001000100010B2
:104E4000001000100000000000380044004400047E
:104E5000000800100020007C000000000038004422
:104E600000040018000400040044003800000000A2
:104E700000080018002800280048007C00080008EE
:104E800000000000007C00400040007800040004A6
:104E90000044003800000000003800440040007862
:104EA000004400440044003800000000007C00047E
:104EB000000800100010002000200020000000006A
:104EC00000380044004400380044004400440038E6
:104ED000000000000038004400440044003C00048E
:104EE0000044003800000000000000000010000036
:104EF00000000000000000100000000000000000A2
:104F00000000001000000000000000100010001061
:104F100000000000000C003000400030000C0000D9
:104F200000000000000000000000007C0000007C89
:104F300000000000000000000000000000600018F9
:104F40000004001800600000000000000038004469
:104F50000004000800100010000000100000000015
:104F600000380044004C0054005C00400040003811
:104F70000000000000100028002800280028007C05
:104F80000044004400000000007800440044007821
:104F90000044004400440078000000000038004451
:104FA0000040004000400040004400380000000085
:104FB0000070004800440044004400440048007071
:104FC00000000000007C00400040007C00400040E9
:104FD0000040007C00000000007C004000400078A1
:104FE0000040004000400040000000000038004445
:104FF00000400040005C0044004400380000000015
:10500000004400440044007C004400440044004448
:105010000000000000380010001000100010001008
:105020000010003800000000000400040004000428
:105030000004000400440038000000000044004860
:10504000005000600050004800480044000000008C
:105050000040004000400040004000400040007C14
:10506000000000000044006C006C00540044004448
:105070000044004400000000004400640064005448
:105080000054004C004C0044000000000038004474
:105090000044004400440044004400380000000084
:1050A0000078004400440044007800400040004084
:1050B0000000000000380044004400440044004464
:1050C000005400380004000000780044004400440C
:1050D0000078004800480044000000000038004408
:1050E00000400030000800040044003800000000C8
:1050F000007C0010001000100010001000100010C4
:105100000000000000440044004400440044004407
:10511000004400380000000000440044004400281F
:105120000028002800100010000000000044004487
:10513000005400540054006C0028002800000000B7
:105140000044002800280010001000280028004417
:105150000000000000440044002800280010001057
:105160000010001000000000007C00040008001087
:10517000001000200040007C00000000001800101B
:105180000010001000100010001000100010001897
:10519000002000200010001000100010000800087F
:1051A000000000000030001000100010001000107F
:1051B00000100010001000300010002800280044EB
:1051C00000000000000000000000000000000000DF
:1051D000000000000000000000000000000000FED1
:1051E000002000100000000000000000000000008F
:1051F000000000000000000000380044003C0044B3
:10520000004C0034000000000040004000580064E2
:10521000004400440064005800000000000000004A
:105220000038004400400040004400380000000006
:10523000000400040034004C00440044004C0034DE
:10524000000000000000000000380044007C004026
:105250000044003800000000000C0010007C00102A
:1052600000100010001000100000000000000000FE
:105270000034004C00440044004C0034000400782A
:1052800000400040005800640044004400440044D2
:10529000000000000010000000700010001000105E
:1052A000001000100000000000100000007000104E
:1052B0000010001000100010001000E0004000403E
:1052C000004800500060005000480044000000000A
:1052D00000700010001000100010001000100010EE
:1052E000000000000000000000780054005400544A
:1052F000005400540000000000000000005800644A
:10530000004400440044004400000000000000008D
:10531000003800440044004400440038000000000D
:10532000000000000058006400440044006400587D
:1053300000400040000000000034004C00440044E5
:10534000004C003400040004000000000058006419
:10535000004000400040004000000000000000004D
:10536000003800440030000800440038000000000D
:1053700000200020007800200020002000200018DD
:10538000000000000000000000440044004400440D
:10539000004C003400000000000000000044004405
:1053A0000028002800280010000000000000000075
:1053B000005400540054006C002800280000000035
:1053C00000000000004400280010001000280044E5
:1053D00000000000000000000044004400280028F5
:1053E000001000100010006000000000007C0008A9
:1053F000001000200040007C000000000018001099
:1054000000100010002000200010001000100018F4
:10541000001000100010001000100010001000100C
:1054200000100010003000100010001000080008EC
:105430000010001000100030000000000000007498
:10544000004C000000000000000000000000000010
:10545000000000000000000000000000000000004C
:10546000000000000000000000000000000000003C
:105470000000000C000C000C000C000C000C000CD8
:10548000000C000C000C000C0000000C000C0000D4
:10549000000000000000001B001B001B001B001B85
:1054A00000000000000000000000000000000000FC
:1054B0000000000000000000000080198019801921
:1054C0008019C07FC07F80190033C07FC07F003348
:1054D0000033003300330000000000000000001E15
:1054E000003F807580650074003C001E0007800549
:1054F000806580658075003F001E00040004000088
:105500000000007000D840D8C0D880D900730006D1
:10551000000C801BC036C066C046C0068003000079
:10552000000000000000001E003F00330033003385
:10553000001E000CC03CC066806380618063C03E7A
:10554000801C0000000000000000000C000C000C9B
:10555000000C000C00000000000000000000000033
:1055600000000000000000000000000080000001BA
:105570000003000600060004000C000C000C000CE8
:10558000000C000C0004000600060003000180006F
:10559000002000100018000C000C0004000600069B
:1055A00000060006000600060004000C000C0018AF
:1055B000001000200000000C002D003F001E0033F2
:1055C00000000000000000000000000000000000DB
:1055D0000000000000000000000000000000000CBF
:1055E000000C000C000CC0FFC0FF000C000C000CF5
:1055F000000C00000000000000000000000000009F
:10560000000000000000000000000000000000009A
:10561000000000000000000C000C00040004000862
:10562000000000000000000000000000000000007A
:105630000000001E001E000000000000000000002E
:10564000000000000000000000000000000000005A
:105650000000000000000000000000000000000C3E
:10566000000C000000000000000000030003000325
:105670000006000600060006000C000C000C000CE2
:105680000018001800180000000000000000001EB4
:10569000003F0033806180618061806D806D80613A
:1056A000806180610033003F001E000000000000A8
:1056B00000000006000E001E003600260006000650
:1056C00000060006000600060006000600060000B0
:1056D000000000000000001E003F807380618061B8
:1056E000800100030006000C001800300060807F7D
:1056F000807F0000000000000000001C003E0063EE
:1057000000630003000E000E000380018001806131
:105710008073003F001E0000000000000000000633
:10572000000E000E001E001E001600360036006639
:10573000807F807F00060006000600000000000059
:105740000000007F007F006000600060006E007F4E
:1057500080638001800180618073003F001E000033
:10576000000000000000001E003F803380610060E8
:10577000006E007F80738061806180618033003FB4
:10578000001E0000000000000000807F807F80017C
:105790000003000300060006000C000C000C0008CB
:1057A0000018001800180000000000000000001E93
:1057B000003F8063806180610021001E003F8061A6
:1057C000806180618061003F001E000000000000D9
:1057D0000000001E003F0073806180618061807363
:1057E000803F801D800180610073003F001E00002B
:1057F0000000000000000000000000000000000C9D
:10580000000C000000000000000000000000000C80
:10581000000C00000000000000000000000000007C
:1058200000000000000C000C000000000000000060
:105830000000000C000C0004000400080000000040
:105840000000000080008003000E00380060003877
:10585000000E800380000000000000000000000037
:1058600000000000000000000000807F807F00003A
:105870000000807F807F000000000000000000002A
:105880000000000000000000000000000040007068
:10589000001C000780010007001C00700040000091
:1058A00000000000000000000000001F803FC071E9
:1058B000C060C000C00180030007000E000C000C97
:1058C0000000000C000C0000000000000000001EA2
:1058D000003F803180718063806F806D806D806F4C
:1058E000806700600032003E001C000000000000E5
:1058F0000000000E000E001B001B001B001B80316F
:105900008031803F803F8031C060C060C060000057
:10591000000000000000007C007E00630063006364
:105920000063007E007E0063806180618063007F91
:10593000007E0000000000000000001E003F8031DB
:105940008061006000600060006000600060806155
:105950008031003F001E0000000000000000007CBD
:10596000007F00638063806180618061806180610D
:10597000806100630063007E007C00000000000086
:105980000000807F807F0060006000600060007F1A
:10599000007F0060006000600060807F807F00000A
:1059A000000000000000807F807F006000600060D9
:1059B0000060007F007F00600060006000600060A9
:1059C00000600000000000000000001E003F803169
:1059D000806100600060006080638063806180613E
:1059E0008031803F001E0000000000000000806148
:1059F00080618061806180618061807F807F806163
:105A00008061806180618061806100000000000031
:105A10000000003F003F000C000C000C000C000CCC
:105A2000000C000C000C000C000C003F003F0000BC
:105A300000000000000080018001800180018001E1
:105A40008001800180018001806180618073003F5E
:105A5000001E0000000000000000C06080610063C4
:105A600000660066006C0078007C006600660063DB
:105A700080618061C06000000000000000000060E4
:105A80000060006000600060006000600060006016
:105A9000006000600060807F807F000000000000E8
:105AA0000000C071C071C07BC07AC06AC06AC06E9D
:105AB000C064C060C060C060C060C060C060000002
:105AC0000000000000008071807180798079807909
:105AD000806D806D806D8065806780678067806382
