:020000040800F2
:10000000A050022479030008E73C00082D3B0008BB
:10001000E53C000817070008E5450008000000005F
:100020000000000000000000000000002144000863
:100030005D0B000800000000ED3C000823440008B0
:100040009303000893030008930300089303000838
:100050009303000893030008930300089303000828
:10006000930300089303000893030008190700088E
:100070009303000893030008930300089303000808
:1000800093030008930300089303000893030008F8
:1000900093030008930300089303000893030008E8
:1000A00093030008930300089303000893030008D8
:1000B00093030008930300089303000893030008C8
:1000C00093030008930300089303000893030008B8
:1000D00093030008930300089303000893030008A8
:1000E0009303000893030008000000009303000836
:1000F0009303000893030008930300089303000888
:10010000930300089303000893030008313F00089D
:100110009303000893030008930300089303000867
:100120009303000893030008930300089303000857
:100130009303000893030008930300089303000847
:1001400000000000000000000000000000000000AF
:100150009303000893030008930300089303000827
:100160009303000893030008930300089303000817
:1001700093030008930300089303000800000000A5
:1001800093030008930300089303000893030008F7
:1001900093030008930300089303000893030008E7
:1001A00093030008930300089303000893030008D7
:1001B00093030008930300089303000893030008C7
:1001C00093030008930300089303000893030008B7
:1001D00093030008930300089303000893030008A7
:1001E0009303000893030008930300089303000897
:1001F0009303000893030008930300089303000887
:100200009303000893030008930300089303000876
:100210009303000893030008930300089303000866
:1002200093030008930300089303000800000000F4
:1002300093030008930300080000000093030008E4
:100240009303000893030008930300089303000836
:100250009303000893030008930300089303000826
:100260009303000893030008930300089303000816
:1002700093030008930300089303000800000000A4
:100280009303000893030008930300080000000094
:10029000000000009303000800F002F800F05CF892
:1002A0000AA090E8000C82448344AAF10107DA45D1
:1002B00001D100F051F8AFF2090EBAE80F0013F0C7
:1002C000010F18BFFB1A43F001031847582104001F
:1002D000782104000A444FF0000C10F8013B13F0A1
:1002E000070408BF10F8014B1D1108BF10F8015B8F
:1002F000641E05D010F8016B641E01F8016BF9D182
:1003000013F0080F1EBF10F8014BAD1C0C1B09D1D8
:100310006D1E58BF01F801CBFAD505E014F8016B4A
:1003200001F8016B6D1EF9D59142D6D370470000DC
:100330000023002400250026103A28BF78C1FBD8EE
:10034000520728BF30C148BF0B6070471FB528F067
:1003500015FC1FBD10B510BD00F0A3F91146FFF745
:10036000F5FF23F081F800F0C1F903B4FFF7F2FFC5
:1003700003BC00F0C9F9000009488047094800475C
:10038000FEE7FEE7FEE7FEE7FEE7FEE7FEE7FEE745
:10039000FEE7FEE704480549054A064B70470000A2
:1003A0000945000899020008A0500124A050022429
:1003B000A0D00124A0D0012453EA020C00F06980EF
:1003C0002DE9F04B4FF00006002B1FBFB3FA83F569
:1003D00003FA05F424FA05F65E4012BF1643B2FA9A
:1003E00082F502FA05F4C5F120051EBF22FA05FCCC
:1003F00044EA0C04203556EA044C4FEA144418BF72
:10040000641C4FF000084FF00009904271EB030CA0
:1004100039D3002919BFB1FA81F701FA07F6B0FA0A
:1004200080F700FA07F6C7F120071EBF20FA07FC85
:1004300046EA0C062037B6FBF4FCA7EB0507103F95
:1004400007F01F0BCBF120060CFA0BFB2CFA06F67B
:1004500044BFB3460026202FA4BF5E464FF0000BDA
:100460005BEA060C08BF4FF0010B19EB0B09ABFB65
:10047000027C48EB0608C01B06FB02CC0BFB03CC3E
:1004800071EB0C01C1E70B46024641464846BDE808
:10049000F08B13B54FF000004FF00001AFF3008078
:1004A000BDE81C40704740EA0103024630B59B0797
:1004B00010D14FF0013400E008C208C91D1B9D4354
:1004C00015EAC41FF8D013F0FF0102F8011B0DD08C
:1004D0001B0AF8E711F8013B002B02F8013B05D09D
:1004E00011F8013B002B02F8013BF3D130BD10B5F0
:1004F000431C02E010F8011B71B18107FAD14FF0E3
:10050000013202C88C1A8C4314EAC211F9D0C01A05
:100510000A0603D0C01E10BDC01A10BD0A0401D0C7
:10052000801E10BD0902FCD0401E10BD10B5203A3F
:10053000C0F00B80B1E81850203AA0E81850B1E89C
:100540001850A0E81850BFF4F5AF5FEA027C24BF52
:10055000B1E81850A0E8185044BF18C918C0BDE849
:1005600010405FEA827C24BF51F8043B40F8043B12
:1005700008BF7047D20728BF31F8023B48BF11F8C7
:10058000012B28BF20F8023B48BF00F8012B704721
:1005900002F0FF0343EA032242EA024200F002B8FB
:1005A0004FF000020429C0F0128010F0030C00F09C
:1005B0001B80CCF1040CBCF1020F18BF00F8012B1A
:1005C000A8BF20F8022BA1EB0C0100F00DB85FEAE8
:1005D000C17C24BF00F8012B00F8012B48BF00F8B4
:1005E000012B70474FF0000200B513469446964623
:1005F000203922BFA0E80C50A0E80C50B1F1200136
:10060000BFF4F7AF090728BFA0E80C5048BF0CC0E3
:100610005DF804EB890028BF40F8042B08BF704741
:1006200048BF20F8022B11F0804F18BF00F8012BB3
:10063000704700004FF0013C50F8042B51F8043B88
:100640009A4215D1A2EB0C03934313EACC130BD1BE
:1006500050F8042B51F8043B9A4209D1A2EB0C0349
:10066000934313EACC13E7D04FF00000704700BF6C
:10067000D01A01BAB1FA81F101F0180122FA01F0A1
:10068000CB40C1F12001DBB2C0B2C01A2CFA01F399
:10069000D11A914311EAC311E6D1704770477047F0
:1006A0007047754600F02CF8AE4605006946534683
:1006B00020F00700854618B020B5FFF76BFEBDE8B7
:1006C00020404FF000064FF000074FF000084FF0B9
:1006D000000B21F00701AC46ACE8C009ACE8C0094A
:1006E000ACE8C009ACE8C0098D46704710B50446B7
:1006F000AFF300802046BDE81040FFF736BE000093
:10070000004870474050012401491820ABBEFEE765
:10071000260002007047FEE7014800F067BB0000BA
:10072000540A0024294A016891423AD0274A1832D3
:10073000914236D0254A3032914232D0234A483253
:1007400091422ED0214A603291422AD01F4A7832FB
:10075000914226D01D4A9032914222D01B4AA832A3
:1007600091421ED01A4A91421BD0194A1832914226
:1007700017D0174A3032914213D0154A483291426D
:100780000FD0134A603291420BD0114A7832914215
:1007900007D00F4A9032914203D00D4AA8329142BD
:1007A00011D1CAB21823103AB2FBF3F26FF3090168
:1007B000032A02F00703074AD25CC26500D9091D6B
:1007C00081650846704721F0FF01F9E710000240FB
:1007D00010040240868B020830B5224A01230168CA
:1007E0009142CAB21BD01F4C1434A14217D01D4CE9
:1007F0002834A14213D01B4C3C34A1420FD0194CD9
:100800005034A1420BD0174C6434A14207D0154C90
:100810007834A14203D0134C8C34A1420CD1142162
:10082000114C083AB2FBF1F10F4A803201F01F057A
:1008300004EB8101AB4010E00C4D1824103A0D443C
:10084000B2FBF4F1A82D00D80831094A01F01F04C9
:1008500002EB8101064AA3408032603080E80E003E
:1008600030BD00000854025800580258F0FBFDBF8C
:100870000008024010B50279531E072B2DD8174CE3
:100880000168A1421BD0154C1434A14217D0134C5F
:100890002834A14213D0114C3C34A1420FD00F4C4C
:1008A0005034A1420BD00D4C6434A14207D00B4C04
:1008B0007834A14203D0094C8C34A14203D10849B9
:1008C000074C443102E00749064C443104EB8202F4
:1008D000C0E91B2101219940416710BD085402580D
:1008E000FC580258FC08024010B583694FF0C074F0
:1008F000826A0146002053B1B3F5005F15D072B192
:10090000012A0CD0022A0AD0032A09D104E01AB124
:10091000012A06D0022A03D1C96AC90100D50120E3
:1009200010BDC96AA142FAD010BD002AF7D0012A31
:10093000F2D0022AF3D0032AF3D010BD2DE9F04FF4
:10094000804E804FDFF8FC911836DFF8F8A1483769
:100950000468856D0AF1300ADFF8ECB14C45DFF828
:10096000ECC1DFF8ECE16DD0B4426BD0544569D0F6
:10097000BC4267D0DFF8D081A8F11808444561D0A7
:100980005C455FD064455DD074455BD0DFF8C481C1
:10099000444557D0DFF8BC8108F11808444551D0D0
:1009A000DFF8B08108F1300844454BD0DFF8A4816E
:1009B00008F14808444545D0DFF8988108F16008FF
:1009C00044453FD0DFF88C8108F17808444539D0A0
:1009D000DFF8808108F19008444533D0DFF8748156
:1009E00008F1A80844452DD0DFF86C81444529D092
:1009F000DFF8648108F11408444523D0DFF85881FA
:100A000008F1280844451DD0DFF84C8108F13C0866
:100A1000444517D0DFF8408108F15008444511D013
:100A2000DFF8348108F1640844450BD0DFF82881F1
:100A300008F17808444505D0DFF81C8108F18C08DE
:100A4000444509D1D0E91948C4F80480C46E1CB1EA
:100A5000D0E91C48C4F8048004684C452ED0B44248
:100A60002CD054452AD0BC4228D0374E183EB44230
:100A700024D05C4522D0644520D074451ED0354E2C
:100A8000B4421BD0334E1836B44217D0314E3036F4
:100A9000B44213D02F4E4836B4420FD02D4E60369C
:100AA000B4420BD02B4E7836B44207D0294E903644
:100AB000B44203D0274EA836B44215D190F85C60FA
:100AC0003F2406F01F06B440AC600468256825F496
:100AD000802525602EE09A600068C160BDE8F08F37
:100AE00099600068C260F9E71B4EB4421BD01A4EF1
:100AF0001436B44217D0184E2836B44213D0164ECE
:100B00003C36B4420FD0144E5036B4420BD0124E85
:100B10006436B44207D0104E7836B44203D00E4E3D
:100B20008C36B442DAD190F85C60012406F01F06DE
:100B3000B4406C60046863608368402B0368CFD165
:100B4000C9E700001000024088000240A0000240F7
:100B5000B80002401004024008540258704772B6B0
:100B6000FEE700002DE9F05F28B190F8351002296A
:100B700004D0802141650120BDE8F09F904C904B4E
:100B80000168183C18338E4ADFF83C92A1428D4C24
:100B9000DFF838E28E4FDFF83CB2DFF83CA28F4D31
:100BA0008F4E31D091422FD099422DD0A1422BD0DF
:100BB000494529D0714527D0B94225D0DFF810C268
:100BC0000CF1180C61451FD0DFF808C2ACF1600CC5
:100BD000614519D0DFF8FCC1ACF1480C614513D078
:100BE000DFF8F0C1ACF1300C61450DD0DFF8E4C1A5
:100BF000ACF1180C614507D0594505D0514503D0DB
:100C0000A94201D0B1422CD1DFF8B4C14FF00408A1
:100C100080F83580ACF1180C61451DD091421BD095
:100C2000994219D0A14217D0494515D0714513D02A
:100C3000B94211D06648183081420DD065486038FD
:100C4000814209D063484838814205D06148303834
:100C5000814201D05F481838086820F00100086020
:100C6000ABE0D1F800C02CF00E08DFF854C1C1F899
:100C70000080ACF1180C0168614527D0914225D065
:100C8000994223D0A14221D049451FD071451DD0A2
:100C9000B9421BD0DFF838C10CF1180C614515D0F2
:100CA000DFF830C1ACF1600C61450FD0DFF824C132
:100CB000ACF1480C614509D0DFF818C1ACF1300C3B
:100CC000614503D0DFF80CC1ACF1180CD1F800C0BD
:100CD0002CF0010CC1F800C0DFF8E4804FF0010CEB
:100CE0000168A8F11808414546D0914244D0994284
:100CF00042D0A14240D049453ED071453CD0B94296
:100D00003AD0334A1832914236D0324A603A914250
:100D100032D0304A483A91422ED02E4A303A91424F
:100D20002AD02C4A183A914226D0594524D0514510
:100D300022D0A94220D0B1421ED02A4A91421BD0D3
:100D4000284A1432914217D0264A2832914213D0B1
:100D5000244A3C3291420FD0224A503291420BD069
:100D6000204A6432914207D01E4A7832914203D021
:100D70001C4A8C32914218D1016E0A6822F48072AA
:100D80000A6090F85C20816D02F01F020CFA02F2FA
:100D90004A60D0E919124A60C16E31B10A6822F482
:100DA00080720A60D0E91C124A600022016D80F84E
:100DB00035C080F8342001B188470020DCE600000F
:100DC00028000240580002407000024088000240A3
:100DD000A00002407004024088040240A0040240C7
:100DE000B804024008540258406D70472DE9FC5F7A
:100DF0000446F74E0020DFF8D88300904FF41652D7
:100E0000F44808F11808A56DDFF8C493DFF8C0A313
:100E1000016809F1300920680AF1480AB1FBF2F1D2
:100E2000B04201912F68D5F800C0DFF8ACB335D0DF
:100E30004146884232D0484530D050452ED05845A2
:100E40002CD0E5491831884228D0E3493031884216
:100E500024D0E1494831884220D0E04988421DD061
:100E6000DE491831884219D0DC493031884215D02A
:100E7000DA494831884211D0DFF860E30EF1600EA4
:100E800070450BD0D54A7832904207D0D34B90337F
:100E9000984203D0D149A83188427DD194F85C2092
:100EA000082102F01F0201FA02F23A424AD0B0428F
:100EB00032D0404530D048452ED050452CD05845F2
:100EC0002AD0C54A1832904226D0C34A30329042C6
:100ED00022D0C14A483290421ED0C04A90421BD014
:100EE000BE4A1832904217D0BC4A3032904213D0DA
:100EF000BA4A483290420FD0B84A603290420BD082
:100F0000B64A7832904207D0B44A9032904203D029
:100F1000B24AA832904203D1026802F0040202E011
:100F2000026802F008026AB1026822F0040202605C
:100F300094F85C0000F01F008140A960606D40F0F3
:100F40000100606594F85C00012100F01F00814001
:100F5000394240D02068B04234D0404532D0484574
:100F600030D050452ED058452CD09B4A1832904254
:100F700028D0994A3032904224D0974A4832904241
:100F800020D0964A90421DD0944A1832904219D0EF
:100F9000924A3032904200E0AFE113D08F4A48329B
:100FA00090420FD08D4A603290420BD08B4A7832FB
:100FB000904207D0894A9032904203D0874AA832A3
:100FC00090427DD1406910F0800F04D0A960606D1F
:100FD00040F00200606594F85C00042100F01F00FE
:100FE000814039423ED02068B04232D0404530D0B6
:100FF00048452ED050452CD058452AD0764A183234
:10100000904226D0744A3032904222D0724A4832FE
:1010100090421ED0714A90421BD0704A18329042C2
:1010200017D06E4A3032904213D06C4A4832904208
:101030000FD06A4A603290420BD0684A78329042B0
:1010400007D0664A9032904203D0644AA832904258
:101050004ED1006810F0020F04D0A960606D40F01E
:101060000400606594F85C00102100F01F008140CE
:10107000394258D02068B04234D0404532D048453B
:1010800030D050452ED058452CD0534A183290427B
:1010900028D0514A3032904224D04F4A48329042B0
:1010A00020D04E4A90421DD04C4A1832904219D05E
:1010B0004A4A3032904215D0484A4832904200E0C5
:1010C00014E00FD0454A603290420BD0434A783248
:1010D000904207D0414A9032904203D03F4AA83212
:1010E000904207D1006800F0080006E0006872E74F
:1010F0000068B7E7006800F00400A0B1A9602068AC
:101100000168490304D50068000308D5A16C07E015
:101110000168C90503D4016821F008010160216C50
:1011200009B12046884794F85C00202100F01F0098
:101130008140394279D02068B04232D0404530D029
:1011400048452ED050452CD058452AD0224A183236
:10115000904226D0204A3032904222D01E4A483255
:1011600090421ED01D4A90421BD01C4A1832904219
:1011700017D01A4A3032904213D0184A483290425F
:101180000FD0164A603290420BD0144A7832904207
:1011900007D0124A9032904203D0104AA8329042AF
:1011A00003D1006800F0100002E0006800F00200C7
:1011B000B0B3A96094F835000428206801680FD006
:1011C00049037ED5006800032BD4616C2AE000003F
:1011D000100002400C000024700002401004024085
:1011E00021F0160101602068416921F08001416110
:1011F000206C08B9A06C20B12068016821F00801BA
:10120000016094F85C303F21012003F01F030022AD
:101210009940A96084F8350084F83420216D65E098
:1012200003E0E16B09B120468847606D00287DD05E
:10123000606DC00759D02068042184F83510B04291
:101240002BD0404529D0484527D0504525D058457A
:1012500023D09D49884220D09B49183188421CD018
:1012600099493031884218D09849884215D0974919
:101270001831884211D09549303188420DD09349B8
:101280004831884209D091496031884205D08F4960
:101290007831884201D08D499031016821F00101F7
:1012A000016020680099019A491C0091914202D87E
:1012B0000168C907F6D10068C00710D003200FE00D
:1012C000FFE70168C905ACD403680121002223F0BF
:1012D0001003036084F8351084F83420A1E701205E
:1012E00084F83500002084F83400E16C00291DD01A
:1012F00002B02046BDE8F05F0847754988421DD01E
:1013000073491431884219D071492831884215D067
:101310006F493C31884211D06D49503188420DD01F
:101320006B496431884209D0694900E084E0783132
:10133000884203D066498C3188427DD194F85C8024
:101340000427016808F01F0807FA08F717EA0C0FCE
:10135000009746D04F0744D500980F04686003D526
:10136000C8033CD4A16CC1E7880638D42068B042D9
:101370002DD055496039884229D0484527D050455D
:1013800025D0584523D05049884220D04E491831A5
:1013900088421CD04C493031884218D04B49884291
:1013A00015D04A491831884211D048493031884215
:1013B0000DD046494831884209D0704507D0904247
:1013C00005D0984203D04149A831884203D1016831
:1013D00021F0080102E0016821F004010160216CA4
:1013E00084E7022707FA08F717EA0C0F00974ED098
:1013F0008F074CD500980F04686003D5C80344D408
:10140000616C73E7880640D42068B0422FD02E4923
:10141000603988422BD0484529D0504527D05845BF
:1014200025D02949884222D02749183188421ED028
:1014300025493031884200E044E018D023498842F1
:1014400015D022491831884211D0204930318842C4
:101450000DD01E494831884209D0704507D09042CE
:1014600005D0984203D01949A831884203D10168B8
:1014700021F0140102E0016821F00A01016001215C
:1014800084F83510002084F83400E16B2EE7082240
:1014900002FA08F212EA0C0F14D0090712D50168FB
:1014A00021F00E01016094F85C100120002201F08F
:1014B0001F0100FA01F16960606584F8350084F865
:1014C000342012E7BDE8FC9F88000240100402406F
:1014D000085402582DE9F05F044600F05FFC002C30
:1014E00007467DD0E34E022120684FF00308DFF865
:1014F00088934FF00005DFF884A3B042DFF880B393
:1015000034D0DC4A1832904230D048452ED0504575
:101510002CD058452AD0DA4A1832904226D0D84AE0
:101520003032904222D0D64A483290421ED0D54A1C
:1015300090421BD0D34A1832904217D0D14A303251
:10154000904213D0CF4A483290420FD0CD4A6032F9
:1015500090420BD0CB4A7832904207D0C94A9032A1
:10156000904203D0C74AA83290427DD184F835100A
:10157000B04284F834502ED0BE49183188422AD067
:10158000484528D0504526D0584524D0BC4918316C
:10159000884220D0BA49303188421CD0B8494831FD
:1015A000884218D0B749884215D0B64918318842C8
:1015B00011D0B449303188420DD0B2494831884207
:1015C00009D0B0496031884205D0AE4978318842AF
:1015D00001D0AC499031016821F00101016008E0BF
:1015E00027E100BF00F0DAFBC01B052801D920214C
:1015F0001CE120680068C007F4D104F108002168EC
:10160000D4E9053C8E4685C809681043D4E907280B
:101610001F43636A38439C4F40EA0C001043394033
:1016200040EA0800042B40EA010003D1D4E90B1280
:1016300011430843954909686FF30F01B1F1005F49
:101640000FD36168A1F12902052A08D9163A032AA5
:1016500005D9083A012A02D94F39032901D840F4A3
:101660008010CEF8000000E023E02068676A40693F
:10167000042F20F0070047EA00070DD1D4E90A0142
:10168000074349B12046FFF72FF928B14020606594
:10169000012184F83510CCE0206847612046FFF72F
:1016A00041F894F85C203F2102F01F0291408160D4
:1016B00054E0774A90421BD0754B1433984217D0B0
:1016C000734B2833984213D0714B3C3398420FD060
:1016D0006F4B503398420BD06D4B6433984207D018
:1016E0006B4B7833984203D0694B8C3398427DD151
:1016F00084F8351084F83450664B0168A26801EA1A
:10170000030E402A73D0802A72D00022D4E90378D5
:10171000D4E9053142EAD70242EAD8085C4AD4E962
:10172000077C48EAD30848EAD10141EAD70152428E
:1017300041EA1C11142341EA0E01016020681044A3
:10174000B0FBF3F08000E0652046FEF7EBFF94F875
:101750005C20012102F01F02914041602068B042EC
:1017600057D044491831884253D0484551D050454C
:101770004FD058454DD042491831884249D0404950
:101780003031884245D03E494831884241D03D49B8
:1017900088423ED03B49183188423AD039493031ED
:1017A000884236D037494831884232D03549603195
:1017B00088422ED03349783188422AD0314990313D
:1017C000884226D02F49A831884222D03049884209
:1017D0001FD02F49143188421BD02D49283188420F
:1017E00017D02B493C31884213D002E01DE017E0AE
:1017F00018E02749503188420BD02549643188428E
:1018000007D023497831884203D021498C3188425E
:1018100029D12046FEF7E0FFA06880280CD00CE01C
:10182000102273E74FF4804270E74021616584F82D
:1018300035800120BDE8F09F6560216E2079086049
:10184000D4E9190141606068401E072808D8204685
:10185000FFF710F8E06E0560D4E91C01416002E07A
:10186000E566256765670120656584F83500002019
:10187000E0E7000010000240400002405800024033
:1018800070000240100402403F8010FE0010005C17
:10189000085402580F00FEFF2DE9F84F04008C4653
:1018A0004FF00000009014D094F83400012812D0BA
:1018B00094F835500120002184F83400012D0CD01B
:1018C000C00260650120009084F834100098BDE8E3
:1018D000F88F0120FBE70220F9E78C4D02262068F3
:1018E00084F83560A8428A4D61658A4E8A4FDFF8D8
:1018F0002C82DFF82C92DFF82CA2DFF82CB226D055
:10190000A84224D0B04222D0B84220D040451ED0B8
:1019100048451CD050451AD0584518D083498842B4
:1019200015D082491831884211D08049303188421F
:101930000DD07E494831884209D07C4960318842C7
:1019400005D07A497831884201D0784990310168D0
:1019500021F00101016061462046FEF7EFFF6B496F
:10196000206888422CD0A8422AD0B04228D0B84261
:1019700026D0404524D0484522D0504520D0584557
:101980001ED06A4A90421BD0684A1832904217D043
:10199000664A3032904213D0644A483290420FD0A7
:1019A000624A603290420BD0604A7832904207D04F
:1019B0005E4A9032904203D05C4AA83290420CD1E9
:1019C000026822F01E0242F016020260206C88B10A
:1019D0002068026842F008020BE0026822F00E0262
:1019E00042F00A020260206C20B12068026842F0D6
:1019F00004020260206888424BD0A84249D0B0421D
:101A000047D0B84245D0404543D0484541D05045E5
:101A10003FD058453DD0454A90423AD0434A1832CB
:101A2000904236D0414A3032904232D03F4A48321A
:101A300090422ED03D4A603290422AD03B4A7832C2
:101A4000904226D0394A9032904222D0374AA8326A
:101A500090421ED0364A90421BD0354A14329042F2
:101A600017D0334A2832904213D0314A3C32904248
:101A70000FD02F4A503290420BD02D4A6432904200
:101A800007D02B4A7832904203D0294A8C329042B8
:101A90000DD1206E0268D20303D5026842F4807231
:101AA0000260E06E18B1026842F480720260206841
:101AB000884226D0A84224D0B04222D0B84220D0BA
:101AC00040451ED048451CD050451AD0584518D026
:101AD0001649884215D015491831884211D013494A
:101AE000303188420DD011494831884209D00F4920
:101AF0006031884205D00D497831884201D00B49C8
:101B00009031016841F001010160DFE61000024000
:101B1000280002404000024058000240700002408D
:101B200088000240A0000240B800024010040240B9
:101B30000854025870B5044600F030F90546601CA0
:101B400002D004480078044400F028F9401BA04269
:101B5000FAD370BD000000242DE9F84F03247D4D19
:101B600000234FF001094FF0B04B4FF00F0AE9E0AE
:101B700009FA03F73A4076D00E7906F00306012EF3
:101B800001D0022E18D1D0F808C04FEA430ECE681B
:101B900004FA0EF82CEA080C06FA0EF646EA0C06D1
:101BA0008660D0F804C00E792CEA070CC6F3001644
:101BB0009E4046EA0C0646600E79F643B6070BD007
:101BC000C6684FEA43088F6804FA08FC26EA0C0648
:101BD00007FA08F73743C7600E7906F00306022EAE
:101BE00012D1DE080F694FEA437C00EB8606B64649
:101BF000366A4FEADC6C0AFA0CF807FA0CF726EAA8
:101C000008063743CEF820700F7906684FEA43087C
:101C100007F0030704FA08FC07FA08F726EA0C069F
:101C2000374307604E6816F4403F1CD04A4E376871
:101C300047F00207376036689F0706F002060096F5
:101C400023F0030606F1B046B6463F0FD6F8086407
:101C5000DFF808810AFA07FC404526EA0C0603D1A2
:101C60004FF0000C41E06CE0DFF8F4C0604502D1B9
:101C70004FF0010C39E0DFF8ECC0604502D14FF0C5
:101C8000020C32E0DFF8E0C0604502D14FF0030CF7
:101C90002BE0DFF8D8C0604502D14FF0040C24E0FF
:101CA000DFF8CCC0604502D14FF0050C1DE0DFF835
:101CB000C4C0604502D14FF0060C16E0DFF8B8C092
:101CC000604502D14FF0070C0FE0DFF8B0C060456F
:101CD00002D14FF0080C08E0DFF8A4C0604502D143
:101CE0004FF0090C01E04FF00A0C0CFA07FC4CEA2B
:101CF000060CCEF808C44F68DBF80060FF0226EA45
:101D0000020600D516435F46CBF80060D1F804C048
:101D1000DBF804605FEA8C2C26EA020600D5164345
:101D20007E606E684F6826EA0206BF0300D5164340
:101D30006E602E684F6826EA0206FF0300D5164340
:101D40002E605B1C0A6832FA03F67FF411AFBDE81F
:101D5000F88F000080000058F44402580000025838
:101D60000004025800080258000C025800100258E3
:101D70000014025800180258001C02580020025893
:101D8000002402580AB1816170470904FBE7000092
:101D900001480068000C70470010005C0148806832
:101DA0007047000000000024024881680278114456
:101DB0008160704700000024032010B500F0D4F8C3
:101DC00000F01CFF0F4A104914681368C4F3032283
:101DD00003F00F038A5CC95C02F01F0201F01F01CF
:101DE000D0400A4A20FA01F11160094908600F2029
:101DF00000F010F808B1012010BD00F079F80020C3
:101E000010BD0000184402588E8B020810000024F8
:101E10000C00002470B50D4D04462878A0B14FF495
:101E20007A71B1FBF0F00A490968B1FBF0F001F0FA
:101E30006AFE48B9102C07D200222146501E00F03D
:101E400073F800206C6070BD012070BD000000249C
:101E50000C000024154BF0B5083B427813491A607A
:101E60000B680A1F23F001030B6043681360057BB6
:101E7000C67A827A437B2D07847B45EA0665C77B59
:101E800090F809C0067A90F800E045EAC24040EABE
:101E9000834040EA444040EA074040EA0C2040EAE0
:101EA000460040EA0E000860F0BD0000A0ED00E032
:101EB000BFF35F8F044800210368034A23F4803393
:101EC000036070321160704724ED00E0074A40F073
:101ED0000100064970321060086840F480300860E4
:101EE000BFF34F8FBFF36F8F7047000024ED00E00A
:101EF000054808B5016841F002010160006800F082
:101F00000200009008BD0000F4440258002809DBDC
:101F1000410900F01F028900012001F1E0219040F9
:101F2000C1F80001704700000E4BF0B41B680D466D
:101F3000C3F30223C3F10706042E00D90426191D9A
:101F4000072901D2002300E0DB1E012404FA06F178
:101F50009C40491E2940641E994014402143F0BC16
:101F600002F041BB0CED00E0064900F0070210B59D
:101F70004FF6FF040868044B204040EA0220184353
:101F8000086010BD0CED00E00000FA05134970B5C3
:101F90000A68D243520705D5096801F0070181425A
:101FA00013D118E00A6822F0070202430A60FFF723
:101FB000F5FE0A4D4FF47A760446083D07E000BF6F
:101FC000FFF7ECFE001BB04201D9012070BD28686C
:101FD000C0438004F4D4002070BD00000C480258B7
:101FE0002DE9FE4F0546DFF8E48350F8081B002476
:101FF000F64FC943019005F12800264608F1240850
:10200000009008011DD4A86E50B1B0F5801F0CD00F
:10201000B0F5001F0ED0B0F5401F1ED001240FE018
:10202000386840F40030386017E00198022101F070
:102030005FFE03E00098022101F0EAFE04000CD0EC
:1020400026462888C043C00523D4A86D05281ED283
:10205000DFE800F00C11161B1B00AA6ED8F8001068
:1020600021F440111143C8F80010EAE7386840F441
:102070000030386009E00198002101F039FE03E0EA
:102080000098002101F0C4FE044674B100E0012470
:1020900026462888C043800528D4E86D80281ED0B5
:1020A0000CDC90B140280ED114E0AA6DD8F80010D5
:1020B00021F007011143C8F80010EAE7C02813D047
:1020C000B0F5807F10D001240FE0386840F4003074
:1020D000386009E00198002101F00AFE03E0009851
:1020E000002101F095FE04469CB126462888DFF8C1
:1020F000DC92C04309F12C0940052CD4D5F8A80086
:10210000B0F5800F20D00DDCA0B1B0F5001F0FD1CD
:1021100015E0EA6DD8F8001021F4E0711143C8F819
:102120000010E3E7B0F5C00F13D0B0F5000F10D0EA
:1021300001240FE0386840F40030386009E001986D
:10214000002101F0D5FD03E00098002101F060FEC0
:1021500004467CB126462888C04300052DD4D5F816
:10216000AC00B0F1007F21D00EDCA8B1B0F1807FCF
:1021700010D116E0D5F8A820D9F8001021F460019C
:102180001143C9F80010E6E7B0F1407F13D0B0F179
:10219000806F10D001240FE0386840F400303860C0
:1021A00009E00198002101F0A3FD03E0009800215F
:1021B00001F02EFE044674B126462868C043800113
:1021C0001FD4E86CD8B110280FD0202812D03028A6
:1021D00015D0012414E0D5F8AC20D9F8001021F076
:1021E000E0611143C9F80010E7E7386840F40030B7
:1021F000386004E00198022101F07AFD044674B1D0
:1022000026462888C043C0042BD4286EB0F5005F52
:1022100020D00DDCA0B1B0F5805F0FD115E06B4888
:10222000EA6C2030016821F0300111430160E8E7D9
:10223000B0F5405F13D0B0F5804F10D001240FE00F
:10224000386840F40030386009E00198002101F05E
:102250004FFD03E00098002101F0DAFD04468CB147
:1022600026462888C043800429D4686EB0F5403FD4
:1022700023D010DC08B3B0F5803F14D0B0F5003F98
:102280000FD115E02A6ED8F8001021F4E041114377
:10229000C8F80010E5E7B0F5802F0ED0B0F5A02FFC
:1022A0000BD001240AE00198012101F021FD03E097
:1022B0000098012101F0ACFD044694B1264628881F
:1022C000C04340042AD4D5F8B000B0F1405F23D019
:1022D00010DC08B3B0F1805F14D0B0F1005F0FD113
:1022E00015E06A6ED8F8001021F4E0211143C8F817
:1022F0000010E4E7B0F1804F0ED0B0F1A04F0BD04A
:1023000001240AE00198012101F0F2FC03E00098A9
:10231000012101F07DFD044674B126462888C043A2
:1023200000041FD4286FD8B1B0F1805F0ED0B0F197
:10233000005F10D0012414E0D5F8B020D9F80010C7
:1023400021F0E0411143C9F80010E7E7386840F494
:102350000030386004E00198012101F0C9FC044616
:1023600074B126462868C043C0011ED4A86CD0B101
:1023700001280ED0022811D0032814D0012413E024
:102380002A6FD8F8001021F040511143C8F800100E
:10239000E8E7386840F40030386004E00198022132
:1023A00001F0A6FC0446ACB126462868DFF81CB054
:1023B000C043ABF11C0B400252D40548016841F404
:1023C00080710160FFF7EAFC824611E02C4402585C
:1023D00000480258FA48AA6C016821F00301114331
:1023E0000160E2E7FFF7DAFCA0EB0A00642835D8C9
:1023F000F4480068C005F5D58CBBDFF8C4A3B5F878
:10240000B4100AF1240ADAF8000001F4407100F473
:102410004070884211D0DAF80010DAF8002021F478
:10242000407142F48032CAF80020DAF8002022F429
:102430008032CAF80020CAF80010D5F8B400B0F510
:10244000807F1AD1FFF7AAFC029012E0FFF7A6FCEA
:102450000299411A41F2883081420AD90324264662
:102460002878DFF85CA3C0430AF1080AC00721D02E
:102470003CE0DAF800008007E8D5D5F8B410C1F3E5
:102480000120032858460DD0016821F47C510160D9
:10249000B5F8B420DAF80010C2F30B021143CAF801
:1024A0000010DDE7C84A036802EA111223F47C51E8
:1024B0001143ECE7E86F182816D005DCA0B1082816
:1024C00008D0102804D10AE020280DD028280BD0ED
:1024D00001240AE00198012101F00AFC03E00098C0
:1024E000012101F095FC044664B126462878C043DA
:1024F00080071ED4A86F062819D2DFE800F0160C5A
:1025000011161616EA6FDAF8001021F0380111439F
:10251000CAF80010EAE70198012101F0E9FB03E0A5
:102520000098012101F074FC04467CB100E0012414
:1025300026462878C04340071FD4D5F894000628C3
:1025400019D2DFE800F0160C11161616AA6FDAF889
:10255000001021F007011143CAF80010E9E70198C3
:10256000012101F0C5FB03E00098012101F050FCBE
:102570000446A4B100E0012426462878C043800622
:102580002BD4D5F89000B0F1405F24D011DC10B30B
:10259000B0F1805F15D0B0F1005F10D116E0D5F832
:1025A0009420D9F8001021F007011143C9F8001058
:1025B000E3E7B0F1804F0ED0B0F1A04F0BD0012473
:1025C0000AE00198002101F093FB03E0009802214A
:1025D00001F01EFC044694B126462878C04340060C
:1025E0002BD4D5F89C00B0F5406F24D011DC10B38B
:1025F000B0F5806F15D0B0F5006F10D116E0D5F8AA
:102600009020DAF8001021F0E0411143CAF80010E0
:10261000E3E7B0F5805F0ED0B0F5A05F0BD00124EA
:102620000AE00198002101F063FB03E00098022119
:1026300001F0EEFB044694B126462878C04300061C
:102640002BD4D5F8A000B0F5C04F24D011DC10B3C6
:10265000B0F5005F15D0B0F5804F10D116E0D5F879
:102660009C20D9F8001021F4E0511143C9F8001062
:10267000E3E7B0F5004F0ED0B0F5204F0BD00124AA
:102680000AE00198002101F033FB03E000980221E9
:1026900001F0BEFB044654B126462878C04300072B
:1026A0001ED4D5F88400B0F5805F0AD00FE0D5F8CD
:1026B000A020D9F8001021F460411143C9F800109E
:1026C000EBE70098022101F0A3FB00B10126D5F849
:1026D0008420DAF8001021F440511143CAF80010A8
:1026E0002878C043C00613D4D5F89800B0F5807F91
:1026F00005D10098022101F08BFB00B10126D5F82D
:102700009820D9F8001021F440711143C9F8001045
:102710002868C043000316D4D5F8A40038B1B0F53A
:10272000803F09D0B0F5003F0BD001240AE00198AA
:10273000002101F0DDFA03E00098022101F068FBBE
:1027400004468CB126462868C043400322D4D5F8FD
:102750008800B0F5801F11D0B0F5001F13D0B0F580
:10276000401F15D0012414E0D5F8A420D9F800109A
:1027700021F440311143C9F80010E4E7386840F40F
:102780000030386004E00098012101F041FB04466C
:102790005CB126462868C043C00323D4286DA8B185
:1027A000B0F5803F17D001241BE0D5F88820DAF877
:1027B000001021F440111143CAF80010EAE70000AC
:1027C0004C44025800480258CFFFFF00386840F4DC
:1027D0000030386004E00198022101F089FA0446D3
:1027E000E4B126462868C043800005D40098022141
:1027F00001F00EFB00B101262868C04380031BD402
:10280000D5F88000B0B1B0F5807F0FD0B0F5007F73
:1028100010D0B0F5407F0DD001240CE05A482A6D4D
:10282000016821F4803111430160DBE7386840F42E
:1028300000303860ECB326462868C043C00207D495
:102840006A6FD8F8001021F000411143C8F8001059
:102850002868C043C00008D4D5F8B820DBF80010C1
:1028600021F480411143CBF800102868C043800256
:1028700007D4EA6ED8F8001021F080711143C8F82F
:1028800000102868C04340000CD4DBF8001021F48D
:102890000041CBF80010DBF80010D5F8BC20114344
:1028A000CBF800102868C04308D437486A6D016827
:1028B00000E018E021F04051114301602868C04356
:1028C000000208D4D5F88C20DAF8001021F4400179
:1028D0001143CAF8001028790024C04300F0010019
:1028E00020430AD00FE0D5F88020DAF8001021F458
:1028F00040711143CAF800109EE70198002101F0D1
:10290000F7F900B106462879C04300F002002043E1
:1029100005D10198012101F0EBF900B106462879B3
:10292000C04300F00400204305D10198022101F0CA
:10293000DFF900B106462879C04300F008002043C3
:1029400005D10098002101F063FA00B1064628790C
:10295000C04300F01000204305D10098012101F090
:1029600057FA00B106462879C04300F0200004431E
:1029700004D10098022101F04BFA00B916B10120F0
:10298000BDE8FE8F0020FBE74C4402587047000072
:102990002DE9F05F04000F467ED0DFF83882D8F8CA
:1029A000000000F00F00B8420CD2D8F8001021F05F
:1029B0000F013943C8F80010D8F8000000F00F00EC
:1029C000B84269D12078844D40070AD5206929682A
:1029D00001F07001884204D9296821F07001014397
:1029E000296020787C4E361D00070AD56069316861
:1029F00001F07001884204D9316821F0700101436F
:102A000031602078C0060AD5A069316801F4E06120
:102A1000884204D9316821F4E061014331602078B3
:102A2000DFF8B4B180060BF1080B0CD5E16958460C
:102A3000DBF8002002F07002914204D9026822F013
:102A400070020A430260207880070AD5E06829688E
:102A500001F00F01884204D9296821F00F010143D8
:102A600029602078C0073ED05B49A26828681839E1
:102A700020F47060104328606068022818D0032892
:102A800019D00968012819D0490700294ADADFF866
:102A900048A1AAF1080A00E044E0DAF8002022F098
:102AA00007020243CAF80020FFF778F9814612E0D6
:102AB00009688903E9E709688901E6E7C905E4E7E8
:102AC000FFF76CF9A0EB090141F28830814202D98D
:102AD0000320BDE8F09F6168DAF8000000F03800DC
:102AE000B0EBC10FECD1207880070AD5E0682968E7
:102AF00001F00F01884204D2296821F00F0101433F
:102B00002960D8F80010404601F00F01B9420BD9F6
:102B1000016821F00F0139430160006800F00F00E7
:102B2000B84201D00120D4E7207840070AD52069B7
:102B3000296801F07001884204D2296821F07001EF
:102B400001432960207800070AD56069316801F0E7
:102B50007001884204D2316821F070010143316074
:102B60002078C0060AD5A069316801F4E061884286
:102B700004D2316821F4E06101433160207880069D
:102B80000CD5E1695846DBF8002002F07002914252
:102B900004D2026822F070020A43026000F02EF8AC
:102BA0000E492A682B68C2F3032203F00F038A5CE4
:102BB000C95C02F01F0201F01F01D040084A20FA50
:102BC00001F111600749086007480068BDE8F05F3F
:102BD000FFF720B900200052184402588E8B0208DB
:102BE000100000240C0000240400002402480168A6
:102BF00041F400210160704700440258454970B516
:102C000045480968434B103B11F0380208D00111C8
:102C1000082A03D0102A0BD0182A0BD0084670BD02
:102C200019688906FBD51968C1F3C101C84070BD98
:102C30003A4870BD3749374D18310C1D24350A68A4
:102C4000096826682D6802F0030406F00102C1F34A
:102C50000511C5F3CC0515FB02F200EE102AB8EE03
:102C6000400AE9B32F4ADFED2E0AB7EE001A6CB125
:102C7000DFED2D1A012C01D0022C43D002EE101AE8
:102C80001068F8EE422A81EEA22A1EE01C68A40613
:102C900011D51B6801EE901A1168C3F3C103F8EE59
:102CA000612AD84001EE900AC1F30800F8EE611ADB
:102CB00081EEA22A0BE001EE901ADFED1C2A00BF84
:102CC000F8EE611A106882EEA12AC0F3080001EE46
:102CD000900AF8EE611A40EE201A31EE810A00E007
:102CE00015E022EE000A1068C0F34620401C00EEFA
:102CF000900AF8EE600A80EE201ABCEEC10A10EECF
:102D0000100A70BD01EE901ADFED092AD8E7002005
:102D100070BD0000104402580090D00340787D013F
:102D200000000039304402580024744A0024744CD6
:102D300020BCBE4B064810B50068400506D5FFF71D
:102D400025FE03494FF48060091D086010BD000096
:102D5000644402582DE9F05F04007DD0FF4F2078D5
:102D6000FE4D1837DFF8F493103DC00748D0D9F86E
:102D70000000396800F03800102815D0182803D159
:102D800001F0030002280FD06068B0F5803F12D038
:102D900010B1B0F5A02F18D0286820F4803028603A
:102DA000286820F4802009E02868800328D560681E
:102DB0000028D2D024E0286840F480302860606881
:102DC00088B1FEF7EBFF064609E0286840F4802052
:102DD0002860F0E7FEF7E2FF801B64286FD82868C0
:102DE0008003F7D50CE0FEF7D9FF064605E000BFEB
:102DF000FEF7D4FF801B6428F0D828688003F7D43E
:102E0000207841F20308D54E0C3E800769D5D9F8E9
:102E10000000396810F038000ED0182801D188075A
:102E20000AD0E06890B3296821F0190101432960B4
:102E3000FEF7B4FF824631E02868400702D5E0681B
:102E400000288AD0E168286820F01900084328602B
:102E5000FEF7A4FF824607E0DFE000BFFEF79EFF1B
:102E6000A0EB0A000228B9D828684007F6D500BFB1
:102E7000FEF78EFF40451BD82069402812D03168EC
:102E800021F47C3141EA003030602AE018E000BFD4
:102E9000FEF784FFA0EB0A0002289FD828684007AD
:102EA000F6D5E5E7306820F47C3040F40030EBE7FD
:102EB000207C316821F0FE4141EA0060E4E70DE149
:102EC000286820F001002860FEF768FF824605E0D0
:102ED000FEF764FFA0EB0A0002288DD8286840079F
:102EE000F6D42078C0065DD5D9F80000DFF86CB2C2
:102EF000396800F03800ABF1040B082810D018280E
:102F000003D101F0030001280AD0E06900282868F5
:102F100038D040F080002860FEF740FF824623E072
:102F20002868C00523D5E069802876D11FE0206A93
:102F3000202821D0316821F0F84141EA80603060DA
:102F400030E000BF94F82010DBF8002022F07C5223
:102F500042EA0161CBF8001024E000BFFEF71EFF3B
:102F6000A0EB0A00022898D82868C005F6D5FEF71D
:102F70000FFF4045E6D8DAE7306820F0F84040F02F
:102F80008040DCE720F080002860FEF707FF06465F
:102F900005E000BFFEF702FF801B02289DD82868CD
:102FA000C005F7D42078000729D56C4861696430E2
:102FB00000298046016811D041F001010160FEF74F
:102FC000EDFE064605E000BFFEF7E8FE801B022886
:102FD000C9D8D8F800008007F6D510E021F001012B
:102FE0000160FEF7DBFE064605E000BFFEF7D6FEF9
:102FF000801B022872D8D8F800008007F6D4207809
:10300000800623D5A0690028286810D040F480509D
:103010002860FEF7C3FE064605E036E1FEF7BEFE79
:10302000801B02285AD828688004F7D50EE020F4C7
:1030300080502860FEF7B2FE064604E0FEF7AEFEC2
:10304000801B02284AD828688004F7D420784007DB
:103050004FD5DFF80C81D8F8001041F48071C8F822
:103060000010FEF79BFE064605E000BFFEF796FE49
:10307000801B642832D8D8F80000C005F6D5374E3A
:10308000A068603601280AD008B1052813D030683E
:1030900020F001003060306820F0040002E0306869
:1030A00040F001003060A06841F2883A90B1FEF72C
:1030B00075FE80460AE0306840F004003060EEE7BC
:1030C000FEF76CFEA0EB0801514507D83068800779
:1030D000F6D50EE0FEF762FE804607E084E000BF12
:1030E000FEF75CFEA0EB080151457DD830688007F3
:1030F000F6D4606AB0B3DFF86480D9F8001008F144
:1031000020084FF6F87B08F10409C1F3C201032936
:10311000A8F1040A69D00228286820F0807028608D
:1031200003D0FEF73BFE044684E0FEF737FE06467A
:1031300005E000BFFEF732FE801B022877D8286822
:103140008001F7D4E26A40F2F331386854F8283F3E
:10315000884340EA02101843386004E010440258E3
:1031600000480258B5E0217B434622894FF4FE0C0B
:10317000208A4FF0FE474902267D521E401EA1F5CF
:103180000071C2F308088AB2761E0CEA004042EAD7
:1031900008020243504607EA06610A431A60DAF859
:1031A000002022F00102CAF80020D9F80020266A87
:1031B00022EA0B0242EAC602C9F80020DAF800103F
:1031C000A26921F00C011143CAF800100168E269FC
:1031D00021F0020111430160016841F48031016076
:1031E000016841F4003101E021E027E0016001685D
:1031F00041F480210160016841F00101016028680B
:1032000040F080702860FEF7C9FD044605E000BF6D
:10321000FEF7C4FD001B022809D828688001F7D5F5
:1032200057E000BFFEF7BAFD001B022802D90320B9
:10323000BDE8F09F28688001F4D44AE0396801288D
:10324000D8F8000021D0A26A01F0030393421CD1F8
:10325000E26AC1F305118A4217D1216BC0F308025B
:10326000491E8A4211D1616BC0F34622491E914228
:103270000BD1A16BC0F30642491E914205D1E16B0F
:10328000C0F30660491E814201D00120D0E7A16C45
:103290004E46D9F80000C0F3CC00814219D0DAF8CC
:1032A0000000554620F00100CAF80000FEF776FD48
:1032B0004FEA0007FEF772FDB842FBD0A26C3068FF
:1032C00020EA0B0040EAC2003060286840F00100AC
:1032D00028600020ACE770472DE9F04704460068FD
:1032E000002103694269876894F8816000F1300920
:1032F0005FEA025C03EA02050AD51A0708D581696C
:1033000041F400618161204600F01BFABDE8F087BE
:1033100015F0600F08D1680706D5616F2046884711
:10332000216F20468847012105F04100012805D181
:10333000680703D4216F20468847012105F0220049
:10334000022806D1680704D4616F2046BDE8F04723
:1033500008470029DAD128074FF001085BD520681B
:10336000816941F0080181612068816941F01001A3
:1033700081612068816941F400618161206801698F
:1033800021F0080101612068806810F4404F20D0CE
:1033900023E0E0680F2806D92068616E006B0860A2
:1033A000606E001D0FE0072806D9B9F80000616EB5
:1033B0000880606E801C06E02068616E90F8300026
:1033C0000870606E401C6066B4F86A00401EA4F885
:1033D0006A00B4F86A000028DBD1204600F0AEFD98
:1033E00084F88180D4F8840018B12046FFF773FF79
:1033F0008CE7052E07D0042E09D0032E86D1204657
:1034000000F07EFB82E7204600F07CFB7EE7204652
:1034100000F096F97AE715F4587FE9D068060AD5E6
:10342000D4F8840040F00400C4F884002068816966
:1034300041F040018161A8050AD5D4F8840040F02C
:103440000100C4F884002068816941F40071816141
:10345000E8050AD5D4F8840040F00800C4F88400D8
:103460002068816941F480718161A8060AD5D4F889
:10347000840040F08000C4F884002068816941F035
:1034800020018161D4F884000028B1D0206840F286
:103490006B32C7F381310368032923F00101016016
:1034A0002068016921EA0201016102D084F881806B
:1034B0009BE72068104D816821F440418160E06FF6
:1034C00050B10565E06FFDF74DFB28B1D4F88400DD
:1034D00040F04000C4F88400A06F002888D0056543
:1034E000A06FFDF73FFB00288CD0D4F8840040F09B
:1034F0004000C4F8840009E7F93F00082DE9F047CF
:10350000040029D0594A4FF000092068584B594D02
:103510009042C4F8289006D0984204D0A84202D025
:10352000E1680F2918D8E1684FF0010AE76B08310C
:10353000C9080AEB57167143904205D0984203D050
:10354000A84201D0082907D8904203D0984201D060
:10355000A84204D1102902D90120BDE8F08794F8CF
:10356000810020B9204684F8809000F085F8022080
:1035700084F881002068016821F001010160206861
:10358000A1698268B1F1806F02F4F81110D162680C
:10359000B2F5800F01D01AB10AE0A26B22B107E0A8
:1035A000A26BB2F1805F03D1026842F480520260E4
:1035B0006068400209D5E068072806D32068236DBB
:1035C000026822F480721A4303E02068026822F441
:1035D00080720260A66AE069E26B25683043E368A6
:1035E0000A4310431843A860D4E90D02D4E90581C9
:1035F000636A25691843D4F820C00A43266810433B
:103600002843A56DD4E90172D4E9123140EA0800DB
:1036100040EA0C0038430843104318432843F06045
:10362000606868B92068816821F4C05141F4006184
:1036300081602068816821F4C06141F4806181600B
:103640002068016D21F0010101656068400206D526
:103650002068626DC16821F000411143C160C4F867
:10366000849084F881A0002077E7000000300140BA
:1036700000380040003C004070B5B6B0064614214A
:1036800030A8FCF7AFFFC0216846FCF7ABFF274925
:103690003068884248D18114002018900546CDE951
:1036A00000106846FEF79CFC08B1FDF758FA204868
:1036B000016841F400410160006800F40040359069
:1036C0001B480838016841F004010160006830AB14
:1036D000022100F0040035904FF4A050062283E848
:1036E0002300144830A9CDE93352FEF735FA124CC5
:1036F0003E211248402284E8270003152046C4E9F1
:103700000435A561E56125626562FDF7E3FE08B158
:10371000FDF725FA0022B46733201146A663FEF7B1
:1037200003FC3320FEF7F2FB36B070BD003C0040D6
:10373000E844025800080258540A002410000240CD
:10374000704770472DE9F84F0446006899461746C0
:1037500000F1200B8A46FEF721FB064694F8810013
:10376000012839D1BAF1000F7ED0002FFCD094F897
:103770008000012830D0A26800254FF0010884F8AD
:103780008080032184F88110C4F88450C4F85CA0C0
:103790006566A4F86850656725672C34B2F5C02FBC
:1037A000A786E786E58754F82C0D18D0C16821F468
:1037B000C02141F40031C160206841686FF30F01FE
:1037C000394341602068016841F00101016060688F
:1037D000B0F5800F08D00CE00220BDE8F88F01683A
:1037E00041F400610160E7E72068016841F400717D
:1037F0000160E0680F281CD820E020684169890733
:103800000BD5E16D09680162E06D001DE065B4F85B
:103810006200401EA4F862000BE0FEF7BFFA811BB5
:10382000494503D3B9F1FF3F03D09DE0B9F1000F43
:1038300032D0B4F862000028DFD179E007282FD811
:1038400072E02068416989071ED5B4F86210012929
:103850000DD9E16B59B1E16D09680162E06D001DA0
:10386000E065B4F8620000E07CE0801E09E0E06DF5
:103870000188ABF80010E06D801CE065B4F86200D0
:10388000401EA4F862000BE0FEF788FA811B494550
:1038900003D3B9F1FF3F03D066E0B9F1000F63D065
:1038A000B4F862000028CCD142E020684169890761
:1038B0002ED5B4F8621003290CD9E16B402909D93F
:1038C000E16D09680162E06D001DE065B4F8620019
:1038D000001F1AE0B4F8621001290CD9E16B51B154
:1038E000E06D0188ABF80010E06D801CE065B4F875
:1038F0006200801E09E0E16D097880F82010E06D1B
:10390000401CE065B4F86200401EA4F862000BE0C1
:10391000FEF744FA811B494503D3B9F1FF3F03D0B9
:1039200022E0B9F1000F1FD0B4F862000028BCD12A
:1039300000224B4608212046009600F099FB28B152
:10394000D4F8840040F02000C4F88400204600F041
:10395000F5FA84F88180D4F8840084F88050002837
:103960003FF43BAF012038E7204600F0E7FAD4F8F7
:10397000841084F8805041F48071C4F8841084F875
:103980008180032029E700002DE9F041044690F8EA
:103990008100164601283DD100293AD0002E7FD063
:1039A00094F88000012835D0A2680025012784F80A
:1039B0008070032084F88100C4F8845065666567D0
:1039C0002567E165A4F868502C34B2F5C02FA686AF
:1039D000E686E58754F82C0D1FD0C16821F4C0217C
:1039E00041F40031C0F80C10E1684FF480420F2917
:1039F00003D9A06F8069904209D1A06F07294FF4C5
:103A000000530FD9806998421DD090421BD084F892
:103A1000805045E00220BDE8F081016841F400617A
:103A20000160E1E78169994205D1B4F86210491C4F
:103A30004908A4F86210806990420ED1B4F862007F
:103A4000C01C800807E00F2907D8904205D1B4F8C0
:103A50006200401C4008A4F86200A06F2549016480
:103A6000A16F2548C863A16F2448C864A06F05658D
:103A70002068816821F400418160B4F862302268D6
:103A8000E16DA06F2032FDF707FF58B1D4F8840034
:103A900084F8805040F01000C4F8840084F88170ED
:103AA0000120B8E7A06FC069B0F5807F2068416849
:103AB0006FF30F0100D0314341602068816841F409
:103AC000004181602068016941F44871016120680A
:103AD000016841F0010101606068B0F5800F04D118
:103AE0002068016841F400710160002084F8805072
:103AF00091E700003F4000084940000813400008DB
:103B0000704770477047401EB0F1807F10B501D3F9
:103B1000012010BD4FF0E02460610F21601700F01C
:103B200062FD0020A0610721216110BDFEE70000B9
:103B30002DE9F84FF02A984617460C460A9E814612
:103B40002BD2B8F1F00F28D24346484600F08CFB48
:103B5000DFF84CA0002204215046FEF713F913E0D1
:103B60004D460DE030880221000A8DF800003078C3
:103B70008DF80100684600F0EBFB6D1CADB2B61C81
:103B8000BD42EFD9641CA4B24445E9D95046BDE812
:103B9000F84F01220421FEF7F5B8BDE8F88F0000C8
:103BA000000C0258094808B5016841F001010160A4
:103BB00000680022114600F0010000900B20FEF783
:103BC000B3F9BDE808400B20FEF7A0B9D84402586D
:103BD0002DE9F04186B014216846FCF703FD274823
:103BE000016841F080010160016801F080010591E8
:103BF000016841F004010160016801F004010591D0
:103C0000016841F001010160016801F001010591C5
:103C1000016841F008010160016801F008010591A7
:103C2000016841F00201016000684FF43066144FF2
:103C3000002200F00200314605903846FEF7A2F857
:103C4000DFF84080002204214046FEF79BF8002464
:103C50000096012569463846CDE901540394FDF7E5
:103C60007BFF04200090CDE901546946404603944F
:103C7000FDF772FF06B0BDE8F0810000E044025895
:103C800000080258000C02582DE9F0414FF480045E
:103C90001348124A07266511E700230180E8F40063
:103CA0000021C0E90513C1611A010162416281620C
:103CB000C162C0E90D21C163016441648164C164D2
:103CC000016541658165FFF719FC002803D0BDE857
:103CD000F041FCF744BFBDE8F0810000003C00402B
:103CE000CC090024FEE7FFF725F8FEE77047000047
:103CF0002DE9F047454D044689464FF0000A2868F3
:103D0000C04380070AD0414E283E306820F08060D2
:103D10003060FEF743F80746B04608E00120BDE8F2
:103D2000F08700BFFEF73AF8C01B022867D8D8F822
:103D300000000001F6D4206829684FF4FE0721F442
:103D40007C313E0241EA00302860207AA389B4F831
:103D500004C040022D4D2D495B1E227CACF1010CAC
:103D60001035091DA0F5007080B2521ECCF3080C6E
:103D700007EA034340EA0C00184306EA02621043D4
:103D800028600868626920F0C000104308600A6873
:103D9000A06922F0200202430A60281D0A6822F06E
:103DA00010020A6002684FF6F873E4699A4342EA27
:103DB000C40202600868B9F1000F40F010020A6006
:103DC00011D00868B9F1010F11D040F4001008605B
:103DD000D8F80000444640F08060C8F80000FDF7C5
:103DE000DDFF05460DE0086840F40020EFE740F4F1
:103DF0008010ECE7FDF7D2FF401B022801D9032019
:103E00008DE720680001F5D5504688E72844025820
:103E10002DE9F047454D044689464FF0000A2868D1
:103E2000C04380070AD0414E283E306820F08050C1
:103E30003060FDF7B3FF0746B04608E00120BDE85B
:103E4000F08700BFFDF7AAFFC01B022867D8D8F88B
:103E500000008000F6D4208829684FF4FE0721F086
:103E60007C713E0241EA00502860207AA389B4F8B0
:103E700004C040022D4D2D495B1E227CACF1010C8B
:103E80001835091DA0F5007080B2521ECCF3080C45
:103E900007EA034340EA0C00184306EA02621043B3
:103EA00028600868626920F44060104308600A686E
:103EB000A06922F4007202430A60281D0A6822F4F5
:103EC00080720A6002684FF6F873E4699A4342EA26
:103ED000C40202600868B9F1000F40F480720A6001
:103EE00011D00868B9F1010F11D040F0807008605E
:103EF000D8F80000444640F08050C8F80000FDF7B4
:103F00004DFF05460DE0086840F48000EFE740F4FF
:103F10000000ECE7FDF742FF401B022801D9032017
:103F20008DE720688000F5D5504688E72844025880
:103F30000148FFF7D1B90000CC09002410B5026890
:103F400040F26F335169946944F008049461026847
:103F5000946944F0100494610268146824F0010428
:103F60001460026814699C4314610268936823F426
:103F70004043936090F88120042A0CD08A060AD529
:103F8000D0F8842042F08002C0F88420026893694F
:103F900043F02003936190F88120032A0CD04A0655
:103FA0000AD5D0F8842042F00402C0F884200268C8
:103FB000936943F0400393618A050AD5D0F88420C1
:103FC00042F00102C0F884200268936943F4007350
:103FD0009361C9050AD5D0F8841041F00801C0F8F2
:103FE000841001688A6942F480728A610021A0F815
:103FF0006210A0F86A1010BD10B5806B002101227C
:10400000A0F86A10A0F8621080F88120FFF763F929
:1040100010BD10B5846BFCF7E7FE02280ED02046D9
:10402000FFF78CFFD4F88410012041F01001C4F890
:10403000841084F881002046FFF74DF910BD10B5BB
:10404000806BFFF75EFD10BD10B5806B90F881109E
:10405000072909D0816FC969B1F5807F05D0006853
:10406000016941F00801016110BDFFF749FD10BD74
:104070002DE9F0411C4616460D460746DDF818802E
:104080000AE000BFFDF78AFEA0EB0800A04202D3C1
:10409000601C01D00BE054B13868406935EA00007B
:1040A00007D00020B042EDD00020BDE8F081032011
:1040B000FBE70120F6E700002DE9F041EF2307467A
:1040C00000211A46084600F0CFF80E4E00220421C7
:1040D0003046FDF757FE00244FF434550A483A465F
:1040E0002946FCF755FA0848294600F031F9641CC6
:1040F000A4B20A2CF2D33046BDE8F04101220421DB
:10410000FDF740BE000C0258CC0A00247FB54A4897
:104110004FF43451FCF744FA0A20FDF70BFD474CED
:104120004FF40075002229462046FDF72BFE0A2099
:10413000FDF700FD012229462046FDF723FE14204D
:10414000FDF7F8FC3A2000F0E3F8552000F048F9BC
:10415000B22000F0DDF83AA1D1E90001CDE900017B
:104160000521684600F0F4F8022000F0B9F8B72005
:1041700000F0CEF8352000F033F9BB2000F0C8F88D
:10418000192000F02DF9C02000F0C2F82C2000F01A
:1041900027F9C22000F0BCF8012000F021F9C3206B
:1041A00000F0B6F8122000F01BF9C42000F0B0F8BF
:1041B000202000F015F9C62000F0AAF80F2000F02A
:1041C0000FF9D02000F0A4F8A42000F009F9A120F4
:1041D00000F006F9E02000F09BF81BA00FC88DE866
:1041E0000F000E21684600F0B3F8E12000F090F8CF
:1041F00019A10FC98DE80F000E21684600F0A8F83C
:10420000212000F085F8112000F082F8132000F042
:104210007FF8292000F07CF83220FDF78BFC4FF668
:10422000FF70FFF749FF04B020460122BDE870404F
:104230001102FDF7A7BD0000CC0A002400080258B7
:104240000C0C003333000000D0040D11132B3F542D
:104250004C180D0B1F230000D0040C11132C3F44ED
:10426000512F1F1F202300002DE9F843DFF86C8039
:104270001C4615460E460022074604214046FDF71F
:1042800081FD2A2000F044F8380A8DF800008DF8EE
:104290000170290A8DF80210042168468DF8035038
:1042A00000F056F82B2000F033F8300A8DF80000AB
:1042B0008DF80160210A8DF80210042168468DF8FE
:1042C000034000F045F82C2000F022F84046BDE8FD
:1042D000F84301220421FDF755BD0000000C0258EF
:1042E00010B50446362000F013F854B1012C0AD062
:1042F000022C0AD0032C0AD16020BDE8104000F047
:104300006FB8C020F9E7A020F7E70020F5E710BD5F
:1043100031B50C4C002204212046FDF733FD0A483C
:1043200000224FF40061FDF72DFD084801224FF0F7
:10433000FF336946FFF706FA012220460421FDF704
:1043400021FD38BD000C025800080258CC09002499
:104350002DE9F05FDFF878B000220C460646042114
:104360005846FDF70FFD01221A48D102FDF70AFD5C
:10437000194F4FF48038DFF864904FF6FF7A1DE054
:10438000444501D3514600E0214638888DB2A04211
:104390000BD812482A463146FFF7F6FAD9F87800CA
:1043A00090F835100129FBD106E00C484FF0FF339F
:1043B0002A463146FFF7C6F9641B2E44002CDFD194
:1043C0005846BDE8F05F01220421FDF7DBBC000088
:1043D000000C02580008025814000024CC090024E4
:1043E00031B50C4C002204212046FDF7CBFC012204
:1043F0000948D102FDF7C6FC084801224FF0FF33FF
:104400006946FFF79FF9012220460421FDF7BAFC17
:1044100038BD0000000C025800080258CC090024E6
:104420007047FDF7C1BC000030B59DB04C21684617
:10443000FCF7D8F8202113A8FCF7D4F80220FDF7E8
:10444000A5FD2E4900242E480A6822F001020A60C8
:104450000A68026842F440420260026802F4404284
:104460001B9202689204FCD5264A136843F00203AB
:104470001360126802F002021B92026842F440428A
:10448000026002680A6842F001020A60096801F0ED
:1044900001011B9101688904FCD5022009904C237D
:1044A00001210091C20301920A901325CDE90B036B
:1044B0000FAB0C21CDE90D0583E81300684612947B
:1044C000FEF748FC08B172B6FEE740201A900823B8
:1044D0000501CDE9163013ABCDE918053F210322C4
:1044E00083E81600042113A8FEF752FA08B172B649
:1044F000FEE7FEF77BFB1DB030BD00002C0400582A
:1045000018480258F44402582C48F0B52C4A016867
:1045100041F470010160106800F00F00072804D218
:10452000106820F00F00C01D106026490020254CA7
:1045300010340B68244D43F001030B6020600B68BE
:104540002B400B60136803F00F03072B04D913688B
:1045500023F00F03DB1D13601A4C1C4A18341C4B4C
:10456000261D371D2060174C1A4D28343060261D3B
:104570003860371D23603B1D35601C1D3A60251DCA
:104580002E1D1860331D22602860326018600A6892
:104590000C4B114C22F4802260330A6018602068B2
:1045A0006FF30F00B0F1005F03D20C490120C1F896
:1045B000080143F2D2000A490860F0BD88ED00E02E
:1045C00000200052004402587FEDF6EA800201010B
:1045D000000202020000FF010010005C0080005198
:1045E00000400052FEE7090700284FEA116104DB92
:1045F00000F1E02080F80014704700F00F0000F197
:10460000E02080F8141D704770B5002504466FF057
:104610002F0608E0206805EB8502411C216006EBAF
:104620004202007885182068007800F004F800281D
:10463000F0D1284670BD3038092801D801207047D4
:10464000002070470848442110B500F0B3FC07482B
:1046500000221E211EF054FA054CA06001F0A0FDBE
:104660000020207010BD0000483B00245962000863
:10467000340900242DE9F84F0E46814617461146AD
:10468000304600F023F940B100223946304600F0B0
:10469000C9F828B10020BDE8F88F4FF0FF30FAE7E5
:1046A000B6F906C00020B6F90210421EB6F904E0C1
:1046B000B6F900B0ACEB010CB7F802800CF1010CBC
:1046C000AEEB0B038A465B1C02FA83F302FA8CFC06
:1046D000A8EB0A0109B21AB200920FFA8CF2002973
:1046E0000EDD6BF30F040AEB01036EF30F056AF3A3
:1046F0001F44C9F8004063F31F45C9F80450012066
:10470000B7F906107388CB1AD21A12B2002A15DD37
:10471000B6F90630994211DAB6F8008009EBC00309
:10472000B6F804C00A44401C68F30F046CF30F058C
:1047300061F31F441C6062F31F455D60B7F90220FE
:10474000B6F902108A4200DD1146B7F90630B6F913
:104750000620934200DA1A46B7F800C0B6F90030D6
:10476000521A0FFA82F8ACEB030C0FFA8CF2002A03
:1047700013DDB8F1000F10DD63F30F04134401EBF8
:10478000080C63F30F0509EBC00361F31F44421CDF
:104790001C606CF31F4510465D60B7F90420338838
:1047A000D61A009B9B1B1BB2002B7FF778AF62F3DE
:1047B0000F0401EB080661F31F44134409EBC00129
:1047C00063F30F05421C0C6066F31F4510464D60F5
:1047D00061E770B5B1F90040B2F900309C4200DDEC
:1047E00023460380B1F90250B2F90240A54200DD30
:1047F0002C464480B1F90460B2F90450AE4200DAAC
:1048000035468580B1F90610B2F90620914200DBE9
:104810001146C180AB424FF0010001DC8C4200DD4B
:10482000002070BDF8B50D46B1F900100446B0F98E
:1048300000001646884247DBB4F90210B5F90220A1
:10484000914241DBB4F90410B5F9042091423BDCFC
:10485000B4F90610B5F90620914235DC96B3ADF8EF
:104860000000324660886946ADF80200284600F034
:1048700099F8002827D0A0883246ADF80000694694
:104880006088ADF80200284600F08CF800281AD0A5
:1048900020883246ADF800006946E088ADF8020095
:1048A000284600F07FF800280DD0A0883246ADF8E9
:1048B00000006946E088ADF80200284600F072F872
:1048C000002800D00120F8BD0020F8BDB0F900207C
:1048D000B1F904309A4213DCB0F90420B1F9003088
:1048E0009A420DDBB0F90220B1F906309A4207DC9A
:1048F000B0F90600B1F90210884201DB01207047CF
:1049000000207047F8B50D46B1F900100446B0F923
:1049100004001646884243DBB4F90600B5F90210DC
:1049200088423DDBB4F90000B5F90410884237DC59
:10493000B4F90210B5F90620914231DC76B3ADF836
:104940000000324660886946ADF80200284600F053
:1049500029F818BBA0883246ADF800006946608887
:10496000ADF80200284600F01DF8B8B9208832469C
:10497000ADF800006946E088ADF80200284600F076
:1049800011F858B9A0883246ADF800006946E088B1
:10499000ADF80200284600F005F808B10020F8BD87
:1049A0000120F8BD2DE9FC410546B1F900000E4695
:1049B0001446B5F9001088423ADBB5F90470B842E4
:1049C00036DCB6F90200B5F90230984230DBB5F9B1
:1049D000062090422CDC002C75DD781AD21A401C7F
:1049E000521C00B212B200EBD07002EBD272401037
:1049F0005210904200DB1046844200DD0446ADF8C0
:104A000000102888002231462044ADF80400688850
:104A1000ADF8020068882044ADF806006846FFF74C
:104A2000C1FF40B1BDF804002044ADF804003FE0F0
:104A30000020BDE8FC81E88800223146001BADF86B
:104A40000200E888ADF806006846FFF7ABFF28B122
:104A5000BDF804002044ADF8040011E0A88800224D
:104A60003146001BADF80000A888ADF80400684688
:104A7000FFF798FF50B1BDF80000001BADF8000033
:104A8000BDF80200001BADF8020016E068880022A5
:104A9000ADF80200314668882044ADF8060068464B
:104AA000FFF780FF70B1BDF80000001BADF80000FB
:104AB000BDF806002044ADF80600314668461BF0FC
:104AC00043FBB6E7FFE70120B3E710B5B1F90040BB
:104AD000B2F900309C4200DA23460380B1F902406B
:104AE000B2F902309C4200DA23464380B1F9044017
:104AF000B2F904309C4200DD23468380B1F90610F0
:104B0000B2F90620914200DC1146C18010BD10B5FB
:104B100018B910F0F7FB002800D0406810BD000065
:104B2000F8B505461DF088FF374C0026074600966D
:104B300035B1E868606028461EF0B0F8606802E0B1
:104B400010F0E0FB606000691BF000FA60684069EB
:104B500008B11BF0FBF96068C0691BF0F7F96068E9
:104B6000006A1BF0F3F96068016991B11BF080FBEA
:104B700020F0BEF91FF0E0FE6068B0F85011D9B324
:104B80000068017CC9071DD0C0684068D0B100250D
:104B900013E0A0F85061F8BD411991F8301151B9F6
:104BA00000F5AC7000F05DFA616801EBC5010A6BBD
:104BB0000260496B41606D1CADB26068B0F8501185
:104BC000A942E9D860684FF48071303016F046FE93
:104BD0006068202100F5987016F040FE6068A0F82B
:104BE000506138461DF021FF009060680068436AFC
:104BF00013B122680099984716F0BEFC00F032F815
:104C0000BDE8F84000F002B8F407002470B50A4D82
:104C10005FF00004C4EBC40655F8260008B116F096
:104C20001FFD1C2105EB860016F018FE641CE4B283
:104C3000042CEFD370BD0000243C002408494968CF
:104C40000AE04A68824202D00A68824203D10A7EA0
:104C500042F001020A7649690029F2D1704700004A
:104C6000C8070024704700000148042100F0A2B9E1
:104C70003C3B00240148202100F09CB9543B002417
:104C80002DE9FF411D0004464FF00000DDE90A67F1
:104C900002D1B6F5807F2BD003903B460190029065
:104CA000ADF80C1000906846ADF804102946ADF838
:104CB0000A20ADF80E2032461BF0ACF901A83B46A5
:104CC000324629461BF0A6F902A83B463246294641
:104CD0001BF0A0F903A83B46324629461BF09AF97F
:104CE000BDF90030BDF90400834209DA1D4608E031
:104CF000491EA180521EE28020806080BDE8FF81B5
:104D00000546BDF90820BDF90C108A4201DA1646A5
:104D100000E00E46B54203DA834206DA184604E0A4
:104D20008A4201DA104600E00846801E2080BDF964
:104D30000030BDF90420934201DD1D4600E0154618
:104D4000BDF90800BDF90C10884201DD064600E0FF
:104D50000E46B54205DD934201DD194604E01146D9
:104D600002E0884200DD0146891CA180BDF90230C5
:104D7000BDF90620934201DA1D4600E01546BDF953
:104D80000A00BDF90E10884201DA064600E00E4620
:104D9000B54205DA934201DA194604E0114602E011
:104DA000884200DA0146891E6180BDF90230BDF9F2
:104DB0000620934201DD1D4600E01546BDF90A00BC
:104DC000BDF90E10884201DD064600E00E46B542F0
:104DD00005DD934201DD194604E0114602E08842F8
:104DE00000DD0146891CE18088E700002DE9F041E3
:104DF000124C15460E4607461DF01EFE80462B46F9
:104E000032463946204614F04BFC20B1E1690020BF
:104E1000A06251B110E02C21204616F01FFD4FF08A
:104E20000040A0620020BDE8F08140461DF0FDFD7D
:104E3000E06108B90120E0612046F4E7783B0024F6
:104E40000848142110B500F0B5F814F0EFFB40B19C
:104E50000549016005494160054981600549C16016
:104E600010BDFEE7603B0024F98F0108799301082B
:104E700049950108C58F01087FB504000E4603D18E
:104E800010F040FA04002ED010F0B0FA00282AD01A
:104E900094F82800400726D44FF0000526B3ADF85B
:104EA00000502046ADF8025010F044FA401EADF814
:104EB0000400204610F084FA401E6A463146ADF8E0
:104EC000060002A8FFF785FC00280CD02068017CB2
:104ED00089070CD5DDE9001260680123A4F8503180
:104EE000C4E90C1280BB7FBDA4F850517FBD82691C
:104EF0000AB102A9904700260BE000BF04EBC601EF
:104F00000022303102A8FFF78DFC0028EED1761C7C
:104F1000B6B2B4F85001B042F0D880B2202804D222
:104F200004EBC000303002A904E004F1300069460F
:104F3000A4F850510DF085FFB4F850116068491C79
:104F4000A4F850110028D1D01DF0B4FE7FBD70B57B
:104F5000054600F012F804460CE02146284600F011
:104F60001EF806462146284600F0A2F8204616F014
:104F700077FB3446002CF0D170BD002800D040688B
:104F800070470022034600B5FFF7F7FF03E0521C0D
:104F9000184600F004F80100F9D1104600BD006881
:104FA000091D40587047006840587047002800D0DD
:104FB0008068704700224260C91C826021F00301B2
:104FC0000160704770B504460068083016F0BCFAFE
:104FD000050013D00022014620461EF09BFF6268A8
:104FE000294620461EF090FF616819B12A462046E6
:104FF0001EF090FFA068656000B9A560284670BDEE
:105000002DE9F04106000C460AD04CB1FFF7B5FF80
:10501000A04208D13046FFF7D5FF051E01D01EE0A3
:105020000020BDE8F0813068083016F08DFA051ECA
:10503000F7D030682A460759304639461EF064FFDB
:105040003A46294630461EF065FF2A46214630463C
:105050001EF060FF2246294630461EF055FF2846C6
:10506000DFE770B504460068083016F06DFA0500F9
:1050700013D00022014620461EF046FFA2682946B2
:1050800020461EF047FFA16819B12A4620461EF0AF
:105090003BFF6068A56000B96560284670BD28B117
:1050A000416809B9806808B1002070470120704745
:1050B00070B504000ED0FFF760FF88424FF0000289
:1050C000204608D1FFF76BFF011E606001D000226F
:1050D0001EE0A26070BDFFF769FF884220680844A7
:1050E0000AD10168A16029B12046BDE870400022C4
:1050F0001EF00ABF626070BD05682046FFF74FFFD3
:1051000006460246294620461EF0FEFE2A46314645
:105110002046BDE870401EF0FDBE10B50446006894
:1051200082680AB12146904720680068002801D0B3
:105130002060F5E710BD8068002801D0B0F91600A6
:1051400070478068002801D0807E8009704770B564
:1051500016460C46054651EA06001AD0284617F0B6
:10516000E3F8A86801233246018A21440182A86835
:10517000418A314441822146284619F089FC0022A7
:1051800028460B2113F0DAF9012803D1284619F03B
:10519000D9FB012070BD77B505000E4681B017D050
:1051A000622218F0FAFE040012D0206880B1632257
:1051B0002846314618F0F1FE10F0FF0208D02368AF
:1051C0002046039998470090BDF80000ADF80C0008
:1051D000039804B070BD00002DE9F04792B0074677
:1051E000408C994690468A461A9E40F00800788482
:1051F00038463A84328918F0D0FEA7F82090054648
:1052000032895146384618F0C8FE0446788CA542CB
:1052100020F00800788403D12904B1EB044F68D052
:10522000A7F8208051463289384618F0B6FE054668
:10523000804651463846A7F820900BF077FC00686E
:105240002A4631891CF0AAF930890B2823D147F668
:10525000FF794D4501D04C451DD1384619F064F811
:1052600000EBD0704510384617F033FF00EBD070DC
:105270004010C84506D1691C431C994200DA00E081
:10528000194688464C4506D1691C421C914201DAF8
:105290006C1C00E014461948FFF794FE05002BD063
:1052A0002F60C5E903843089A8806846C5F808A046
:1052B0000DF028F81248FF21CDE900501148029066
:1052C0001148039000200890CDE9090130880B9027
:1052D00070889DF8421040420C90F06807900020C2
:1052E00060F300018DF842103069069068460DF0B9
:1052F0007DF812B0BDE8F087FEE700006C3B0024AB
:105300000D820208F18302084D830208014814212E
:10531000FFF750BE6C3B00242DE9F84F0427904660
:105320000025894606462C46E6E000BFF06807EBFC
:10533000C401405881017CD480B230EA090112D006
:105340005FF0000130EA08000FD00020814270D0E9
:10535000F06810216A4650F8340082461BF068FE5F
:10536000002871D103E00121ECE70120EEE71121D3
:105370006A4650461BF05CFE002865D112216A4641
:1053800050461BF055FE00285ED113216A46504658
:105390001BF04EFE002857D115216A4650461BF0DF
:1053A00047FE002850D114216A4650461BF040FEAB
:1053B000F0BB0A216A4650461BF03AFEC0BB6B2187
:1053C0006A4650461BF034FE90BB6C216A4650463C
:1053D0001BF02EFE60BB01216A4650461BF028FEE2
:1053E00030BB04216A4650461BF022FE00BB02215E
:1053F0006A4650461BF01CFED0B903216A4650464F
:105400001BF016FEA0B905216A4650461BF010FE9F
:1054100070B906216A4650461BF00AFE40B9322197
:105420006A4650461BF004FE10B96E216A4601E040
:105430000AE060E050461BF0FBFD28B96D216A468A
:1054400050461BF0F5FD10B10320BDE8F88F69212F
:105450006A4650461BF0ECFDF0BB6A216A46504696
:105460001BF0E6FDC0BB6E216A4650461BF0E0FD16
:1054700090BB6D216A4650461BF0DAFD60BB3721B8
:105480006A4650461BF0D4FD30BB38216A46504670
:105490001BF0CEFD00BB35216A4650461BF0C8FD0F
:1054A000D0B940216A4650461BF0C2FDA0B9452143
:1054B0006A4650461BF0BCFD70B941216A46504611
:1054C0001BF0B6FD40B942216A4650461BF0B0FDC4
:1054D00010B943216A4600E009E050461BF0A8FDE0
:1054E00028B949216A4650461BF0A2FD08B10225A1
:1054F00001E005B90125641C708CC0F30510A042C1
:105500003FF614AF2846A0E7014840687047000006
:10551000F40700247047C0F30410072800D90720BF
:1055200070470000A0F57F41FF3905D0002804D066
:10553000712803D208490AE01F20704707497138D3
:1055400080B2096829B1064A5268904201D2085CCB
:10555000704700207047000080190408600900248B
:10556000740900240448182110B5FFF723FD0349EE
:105570000120087010BD0000183B00247C090024A5
:105580002DE9F041050090460C4615D0FAF7AFFF23
:105590000A4F064621462846BA689047BA6804462C
:1055A0002819414690470146701A03E06218AA5C28
:1055B0002A55641CA042F9D2BDE8F081900900246C
:1055C0002DE9F041094D90460E461C460746194606
:1055D0006A689047306020B1206800216A683844CA
:1055E0009047C8F80000BDE8F08100009009002451
:1055F0002DE9F04F87B01F4693468A4604464FF088
:105600000001DDE9105805B1298064B12078002837
:105610000AD0BAF1000F06D018F0060F4FF00006BE
:1056200015D0002004E0002007B0BDE8F08F401C3A
:10563000215C0A2904D00D2902D00029F7D100E00D
:10564000401C002DF0D04FF0FF312980ECE75FEADD
:10565000887001D541F6FF77894608468DF8141009
:10566000049126E00498CDF8189060B300235146C9
:105670000DF1180C05AACDE90223CDE9008C2044D8
:105680003B465A461DF05CFC0699A7EB01023144EB
:1056900017B20EB288B104990144049120780A2807
:1056A0000BD00D2809D0605C0A280ED00D280CD034
:1056B0000846205C08B1002FD4DC049840B105B145
:1056C0002E800498B0E70123D1E7481C0490F4E74A
:1056D000064A04A9204652689047002D0146F0D0A2
:1056E0000022504613F042F806B2E9E79009002480
:1056F0002DE9F0410600174688461ED0002F1CD029
:10570000FAF7F5FE04463846FAF7F1FE050014D024
:105710000B4A2C444146304692689047411903E0B9
:10572000621BB25C3255641EA142F9D930442A464C
:105730003946BDE8F04116F059B8BDE8F0810000E7
:1057400090090024027823294FF0000302D0012A97
:105750000ED012E032B1012A4FF0000104D0022A2B
:1057600004D00AE0012106E0017006E00123FBE716
:10577000202901D1022101700123184670472DE92B
:10578000F0410E46804600213346024608461DF091
:1057900023FE00270446401C15F0D6FE050008D065
:1057A000611C334642462F551DF016FE2846BDE8C3
:1057B000F081FEE72DE9F0471E4614460D4682466D
:1057C000DDF8209015E000BF4FEA54084A465046E5
:1057D00008FB065739469047002808DD44F30000CF
:1057E000C0EB540407EB0605A4F1010401E005DA5F
:1057F0004446002CE8D12046BDE8F0873846FBE758
:105800002DE9FC5F9B4681460CAB8A46DDE91160C1
:10581000DDE90F5793E812105FEA80784FF030030C
:105820001AD45EB15FEAC07808D000F00C0858EADC
:105830000C0803D0761E01E00B55641CBC4204D258
:10584000202CF9D301E00B55641C5FEAC07803D02B
:10585000B44201D2202CF6D35FEAC06825D55FEAB6
:1058600040580AD44CB1BC4201D0B44205D1641EA8
:1058700003D0102D03D1641E04E0102D02D0022DA0
:105880000AD00EE0850603D4202C1ED2782506E02F
:10589000202C1AD2582502E0202C16D262250D5554
:1058A000641C202C11D20B55641C202C0DD2BCF191
:1058B000000F01D02D2306E0430701D52B2302E082
:1058C000030702D520230B55641CC846CDE900BA56
:1058D00015468B468146AA46800714D1274607E025
:1058E0002A46C4466D1C2020DDE90031E0477F1CBC
:1058F000B742F5D307E02A466D1C641EDDE900318E
:105900001BF80400C047002CF5D15FEA897006D46B
:1059100009E02A466D1C2020DDE90031C047A5EBD7
:105920000A00B042F5D32846BDE8FC9F2DE9F04FB0
:105930008FB099468B46924686464FF00002DDE9CD
:105940001818DDE91C63DDE91A4709B923F01003D3
:1059500007AD580500D5C9B1B1FBF4F004FB101038
:10596000C0B20A2801D2303009E05FEA836C02D568
:105970004FF0410C01E04FF0610C60440A38B1FB7C
:10598000F4F1A854521C09B1202AE5D3CDF80880BF
:105990005946CDE90563CDE90052CDE903474B46B1
:1059A00052467046FFF72CFF0FB0BDE8F08F2DE98F
:1059B000FF4F8FB01CACDDE9239594E8030820ACC1
:1059C00094E8C004002450EA010201D125F010053A
:1059D0000DF11C086A0502D550EA010217D03246C3
:1059E0003B46FAF7E9FCD2B20A2A01D2303206E08D
:1059F000AB0601D5412300E061231A440A3A08F8B6
:105A00000420641C50EA010201D0202CE7D3CDE928
:105A100000840FAFCDF808B0CDE90595CDE9036A54
:105A200097E80F00FFF7ECFE13B0BDE8F08F9A4245
:105A300000D28854704770472DE9FF4F89B0054662
:105A400092464FF000040A98002800D1F74D6EE10D
:105A5000252804D00A992246641C53462DE2491C8D
:105A60004FF0000808460C9101782B2919D004DC6E
:105A7000202919D0232904D119E02D290ED030294D
:105A800009D00026C8B2FEF7D6FDB0B10CA8FEF7CB
:105A9000BBFD06461FE048F001010AE048F00201A4
:105AA00007E048F0040104E048F0080101E048F094
:105AB0001001401C88460C90D6E70C9908782A28DB
:105AC00009D1169840C81690002E02DA764248F0A6
:105AD0000208491C0C910C984FF0000B01782E29FC
