:020000040800F2
:1000000018070024390300081321000809200008FC
:10001000112100083F040008E93200080000000038
:100020000000000000000000000000005D3100083A
:100030004104000800000000152100085F3100089D
:100040005303000853030008530300085303000838
:100050005303000853030008530300085303000828
:100060005303000853030008530300085303000818
:100070005303000853030008530300085303000808
:1000800053030008530300085303000853030008F8
:1000900053030008530300085303000853030008E8
:1000A00053030008530300085303000853030008D8
:1000B00053030008530300085303000853030008C8
:1000C00053030008530300085303000853030008B8
:1000D00053030008530300085303000853030008A8
:1000E00053030008530300080000000053030008F6
:1000F0005303000853030008530300085303000888
:100100005303000853030008530300085303000877
:100110005303000853030008530300085303000867
:100120005303000853030008530300085303000857
:100130005303000853030008530300085303000847
:1001400000000000000000000000000000000000AF
:100150005303000853030008530300085303000827
:100160005303000853030008530300085303000817
:100170005303000853030008530300080000000065
:1001800053030008530300085303000853030008F7
:1001900053030008530300085303000853030008E7
:1001A00053030008530300085303000853030008D7
:1001B00053030008530300085303000853030008C7
:1001C00053030008530300085303000853030008B7
:1001D00053030008530300085303000853030008A7
:1001E0005303000853030008530300085303000897
:1001F0005303000853030008530300085303000887
:100200005303000853030008530300085303000876
:100210005303000853030008530300085303000866
:1002200053030008530300085303000800000000B4
:1002300053030008530300080000000053030008A4
:100240005303000853030008530300085303000836
:100250005303000853030008530300085303000826
:100260005303000853030008530300085303000816
:100270005303000853030008530300080000000064
:100280005303000853030008530300080000000054
:10029000000000005303000800F002F800F03CF8F2
:1002A0000AA090E8000C82448344AAF10107DA45D1
:1002B00001D100F031F8AFF2090EBAE80F0013F0E7
:1002C000010F18BFFB1A43F001031847D4D80000F0
:1002D000F4D80000103A24BF78C878C1FAD8520781
:1002E00024BF30C830C144BF04680C6070470000B0
:1002F0000023002400250026103A28BF78C1FBD82F
:10030000520728BF30C148BF0B6070471FB503F0CC
:1003100030F81FBD10B510BD00F058F81146FFF7BA
:10032000F5FF02F0F3FF00F076F803B4FFF7F2FFF9
:1003300003BC00F07DF800000948804709480047E9
:10034000FEE7FEE7FEE7FEE7FEE7FEE7FEE7FEE785
:10035000FEE7FEE704480549054A064B70470000E2
:100360000D32000899020008180100241807002423
:1003700018030024180300244FF0000200B51346B0
:1003800094469646203922BFA0E80C50A0E80C50B5
:10039000B1F12001BFF4F7AF090728BFA0E80C5066
:1003A00048BF0CC05DF804EB890028BF40F8042B5F
:1003B00008BF704748BF20F8022B11F0804F18BFCC
:1003C00000F8012B7047704770477047754600F082
:1003D0002BF8AE4605006946534620F007008546D7
:1003E00018B020B5FFF7B6FFBDE820404FF000067B
:1003F0004FF000074FF000084FF0000B21F007010D
:10040000AC46ACE8C009ACE8C009ACE8C009ACE84F
:10041000C0098D46704710B50446AFF300802046F2
:10042000BDE81040FFF781BF00487047B4000024CA
:1004300001491820ABBEFEE7260002007047FEE728
:10044000704772B6FEE7000070B5044600F030F960
:100450000546601C02D004480078044400F028F9E6
:10046000401BA042FAD370BD000000242DE9F84FD4
:1004700003247D4D00234FF001094FF0B04B4FF0A6
:100480000F0AE9E009FA03F73A4076D00E7906F050
:100490000306012E01D0022E18D1D0F808C04FEA71
:1004A000430ECE6804FA0EF82CEA080C06FA0EF693
:1004B00046EA0C068660D0F804C00E792CEA070CD8
:1004C000C6F300169E4046EA0C0646600E79F643D7
:1004D000B6070BD0C6684FEA43088F6804FA08FCD9
:1004E00026EA0C0607FA08F73743C7600E7906F0CC
:1004F0000306022E12D1DE080F694FEA437C00EB9F
:100500008606B646366A4FEADC6C0AFA0CF807FA39
:100510000CF726EA08063743CEF820700F790668F4
:100520004FEA430807F0030704FA08FC07FA08F744
:1005300026EA0C06374307604E6816F4403F1CD08D
:100540004A4E376847F00207376036689F0706F063
:100550000206009623F0030606F1B046B6463F0FAA
:10056000D6F80864DFF808810AFA07FC404526EA55
:100570000C0603D14FF0000C41E06CE0DFF8F4C052
:10058000604502D14FF0010C39E0DFF8ECC0604566
:1005900002D14FF0020C32E0DFF8E0C0604502D13A
:1005A0004FF0030C2BE0DFF8D8C0604502D14FF0CC
:1005B000040C24E0DFF8CCC0604502D14FF0050CFC
:1005C0001DE0DFF8C4C0604502D14FF0060C16E014
:1005D000DFF8B8C0604502D14FF0070C0FE0DFF83C
:1005E000B0C0604502D14FF0080C08E0DFF8A4C0AD
:1005F000604502D14FF0090C01E04FF00A0C0CFAF3
:1006000007FC4CEA060CCEF808C44F68DBF8006023
:10061000FF0226EA020600D516435F46CBF80060CB
:10062000D1F804C0DBF804605FEA8C2C26EA0206ED
:1006300000D516437E606E684F6826EA0206BF0347
:1006400000D516436E602E684F6826EA0206FF0347
:1006500000D516432E605B1C0A6832FA03F67FF45D
:1006600011AFBDE8F88F000080000058F444025834
:10067000000002580004025800080258000C0258FA
:10068000001002580014025800180258001C0258AA
:1006900000200258002402580AB181617047090401
:1006A000FBE7000001480068000C70470010005C88
:1006B00001488068704700000000002402488168FB
:1006C000027811448160704700000024032010B5B7
:1006D00000F0C6F800F004FF0F4A104914681368D0
:1006E000C4F3032203F00F038A5CC95C02F01F020B
:1006F00001F01F01D0400A4A20FA01F111600949B6
:1007000008600F2000F010F808B1012010BD00F0C3
:1007100079F8002010BD0000184402587C3300080E
:10072000100000240C00002470B50D4D04462878FC
:10073000A0B14FF47A71B1FBF0F00A490968B1FB3E
:10074000F0F001F04EFC48B9102C07D200222146EF
:10075000501E00F065F800206C6070BD012070BD77
:10076000000000240C000024154BF0B5083B427833
:1007700013491A600B680A1F23F001030B604368DA
:100780001360057BC67A827A437B2D07847B45EA1A
:100790000665C77B90F809C0067A90F800E045EA44
:1007A000C24040EA834040EA444040EA074040EA11
:1007B0000C2040EA460040EA0E000860F0BD000050
:1007C000A0ED00E0BFF35F8F044800210368034AF7
:1007D00023F48033036070321160704724ED00E031
:1007E000074A40F00100064970321060086840F482
:1007F00080300860BFF34F8FBFF36F8F70470000EA
:1008000024ED00E0054808B5016841F002010160EF
:10081000006800F00200009008BD0000F444025897
:100820000E4BF0B41B680D46C3F30223C3F1070659
:10083000042E00D90426191D072901D2002300E047
:10084000DB1E012404FA06F19C40491E2940641E67
:10085000994014402143F0BC02F047BD0CED00E08C
:10086000064900F0070210B54FF6FF040868044B74
:10087000204040EA02201843086010BD0CED00E063
:100880000000FA05134970B50A68D243520705D52E
:10089000096801F00701814213D118E00A6822F0CB
:1008A000070202430A60FFF703FF0A4D4FF47A760E
:1008B0000446083D07E000BFFFF7FAFE001BB04208
:1008C00001D9012070BD2868C0438004F4D4002001
:1008D00070BD00000C4802582DE9FE4F0546DFF8B8
:1008E000E48350F8081B0024F64FC943019005F13A
:1008F0002800264608F12408009008011DD4A86E9F
:1009000050B1B0F5801F0CD0B0F5001F0ED0B0F57F
:10091000401F1ED001240FE0386840F400303860DA
:1009200017E00198022101F0F7FB03E00098022193
:1009300001F082FC04000CD026462888C043C00584
:1009400023D4A86D05281ED2DFE800F00C11161B79
:100950001B00AA6ED8F8001021F440111143C8F80A
:100960000010EAE7386840F40030386009E0019888
:10097000002101F0D1FB03E00098002101F05CFCB4
:10098000044674B100E0012426462888C04380054F
:1009900028D4E86D80281ED00CDC90B140280ED100
:1009A00014E0AA6DD8F8001021F007011143C8F82F
:1009B0000010EAE7C02813D0B0F5807F10D00124E2
:1009C0000FE0386840F40030386009E001980021F9
:1009D00001F0A2FB03E00098002101F02DFC044689
:1009E0009CB126462888DFF8DC92C04309F12C0927
:1009F00040052CD4D5F8A800B0F5800F20D00DDC30
:100A0000A0B1B0F5001F0FD115E0EA6DD8F80010C5
:100A100021F4E0711143C8F80010E3E7B0F5C00F0E
:100A200013D0B0F5000F10D001240FE0386840F467
:100A30000030386009E00198002101F06DFB03E00F
:100A40000098002101F0F8FB04467CB12646288876
:100A5000C04300052DD4D5F8AC00B0F1007F21D003
:100A60000EDCA8B1B0F1807F10D116E0D5F8A82037
:100A7000D9F8001021F460011143C9F80010E6E72D
:100A8000B0F1407F13D0B0F1806F10D001240FE09F
:100A9000386840F40030386009E00198002101F026
:100AA0003BFB03E00098002101F0C6FB044674B153
:100AB00026462868C04380011FD4E86CD8B11028AE
:100AC0000FD0202812D0302815D0012414E0D5F8FA
:100AD000AC20D9F8001021F0E0611143C9F80010F2
:100AE000E7E7386840F40030386004E001980221FC
:100AF00001F012FB044674B126462888C043C004A6
:100B00002BD4286EB0F5005F20D00DDCA0B1B0F57D
:100B1000805F0FD115E06B48EA6C2030016821F04E
:100B2000300111430160E8E7B0F5405F13D0B0F544
:100B3000804F10D001240FE0386840F40030386056
:100B400009E00198002101F0E7FA03E00098002194
:100B500001F072FB04468CB126462888C04380040D
:100B600029D4686EB0F5403F23D010DC08B3B0F54F
:100B7000803F14D0B0F5003F0FD115E02A6ED8F8B1
:100B8000001021F4E0411143C8F80010E5E7B0F58A
:100B9000802F0ED0B0F5A02F0BD001240AE00198D1
:100BA000012101F0B9FA03E00098012101F044FBB2
:100BB000044694B126462888C04340042AD4D5F878
:100BC000B000B0F1405F23D010DC08B3B0F1805F1B
:100BD00014D0B0F1005F0FD115E06A6ED8F80010A4
:100BE00021F4E0211143C8F80010E4E7B0F1804F90
:100BF0000ED0B0F1A04F0BD001240AE001980121E2
:100C000001F08AFA03E00098012101F015FB044687
:100C100074B126462888C04300041FD4286FD8B179
:100C2000B0F1805F0ED0B0F1005F10D0012414E06D
:100C3000D5F8B020D9F8001021F0E0411143C9F8EF
:100C40000010E7E7386840F40030386004E00198AD
:100C5000012101F061FA044674B126462868C043B8
:100C6000C0011ED4A86CD0B101280ED0022811D02A
:100C7000032814D0012413E02A6FD8F8001021F0C3
:100C800040511143C8F80010E8E7386840F40030DC
:100C9000386004E00198022101F03EFA0446ACB14C
:100CA00026462868DFF81CB0C043ABF11C0B40029D
:100CB00052D40548016841F480710160FFF7F8FCE7
:100CC000824611E02C44025800480258FA48AA6CA7
:100CD000016821F0030111430160E2E7FFF7E8FC3E
:100CE000A0EB0A00642835D8F4480068C005F5D5A3
:100CF0008CBBDFF8C4A3B5F8B4100AF1240ADAF803
:100D0000000001F4407100F44070884211D0DAF81C
:100D10000010DAF8002021F4407142F48032CAF861
:100D20000020DAF8002022F48032CAF80020CAF845
:100D30000010D5F8B400B0F5807F1AD1FFF7B8FCE9
:100D4000029012E0FFF7B4FC0299411A41F2883098
:100D500081420AD9032426462878DFF85CA3C043E1
:100D60000AF1080AC00721D03CE0DAF80000800749
:100D7000E8D5D5F8B410C1F30120032858460DD0AA
:100D8000016821F47C510160B5F8B420DAF8001054
:100D9000C2F30B021143CAF80010DDE7C84A03682A
:100DA00002EA111223F47C511143ECE7E86F182892
:100DB00016D005DCA0B1082808D0102804D10AE01C
:100DC00020280DD028280BD001240AE00198012109
:100DD00001F0A2F903E00098012101F02DFA044688
:100DE00064B126462878C04380071ED4A86F062821
:100DF00019D2DFE800F0160C11161616EA6FDAF8B1
:100E0000001021F038011143CAF80010EAE70198F8
:100E1000012101F081F903E00098012101F00CFAB1
:100E200004467CB100E0012426462878C0434007F0
:100E30001FD4D5F89400062819D2DFE800F0160C6C
:100E400011161616AA6FDAF8001021F007011143E7
:100E5000CAF80010E9E70198012101F05DF903E00B
:100E60000098012101F0E8F90446A4B100E0012452
:100E700026462878C04380062BD4D5F89000B0F1E0
:100E8000405F24D011DC10B3B0F1805F15D0B0F119
:100E9000005F10D116E0D5F89420D9F8001021F0A9
:100EA00007011143C9F80010E3E7B0F1804F0ED0FD
:100EB000B0F1A04F0BD001240AE00198002101F00D
:100EC0002BF903E00098022101F0B6F9044694B131
:100ED00026462878C04340062BD4D5F89C00B0F5B0
:100EE000406F24D011DC10B3B0F5806F15D0B0F591
:100EF000006F10D116E0D5F89020DAF8001021F03C
:100F0000E0411143CAF80010E3E7B0F5805F0ED06E
:100F1000B0F5A05F0BD001240AE00198002101F098
:100F2000FBF803E00098022101F086F9044694B131
:100F300026462878C04300062BD4D5F8A000B0F58B
:100F4000C04F24D011DC10B3B0F5005F15D0B0F560
:100F5000804F10D116E0D5F89C20D9F8001021F46C
:100F6000E0511143C9F80010E3E7B0F5004F0ED08F
:100F7000B0F5204F0BD001240AE00198002101F0C8
:100F8000CBF803E00098022101F056F9044654B171
:100F900026462878C04300071ED4D5F88400B0F553
:100FA000805F0AD00FE0D5F8A020D9F8001021F416
:100FB00060411143C9F80010EBE70098022101F0ED
:100FC0003BF900B10126D5F88420DAF8001021F4AD
:100FD00040511143CAF800102878C043C00613D40A
:100FE000D5F89800B0F5807F05D10098022101F076
:100FF00023F900B10126D5F89820D9F8001021F482
:1010000040711143C9F800102868C043000316D48A
:10101000D5F8A40038B1B0F5803F09D0B0F5003F55
:101020000BD001240AE00198002101F075F803E0DB
:101030000098022101F000F904468CB12646286888
:10104000C043400322D4D5F88800B0F5801F11D0EA
:10105000B0F5001F13D0B0F5401F15D0012414E0E7
:10106000D5F8A420D9F8001021F440311143C9F873
:101070000010E4E7386840F40030386004E000987D
:10108000012101F0D9F804465CB126462868C04326
:10109000C00323D4286DA8B1B0F5803F17D0012438
:1010A0001BE0D5F88820DAF8001021F44011114334
:1010B000CAF80010EAE700004C4402580048025801
:1010C000CFFFFF00386840F40030386004E001983A
:1010D000022101F021F80446E4B126462868C04305
:1010E000800005D40098022101F0A6F800B1012685
:1010F0002868C04380031BD4D5F88000B0B1B0F598
:10110000807F0FD0B0F5007F10D0B0F5407F0DD0BC
:1011100001240CE05A482A6D016821F48031114302
:101120000160DBE7386840F400303860ECB32646F5
:101130002868C043C00207D46A6FD8F8001021F0B5
:1011400000411143C8F800102868C043C00008D40B
:10115000D5F8B820DBF8001021F480411143CBF81A
:1011600000102868C043800207D4EA6ED8F8001047
:1011700021F080711143C8F800102868C043400076
:101180000CD4DBF8001021F40041CBF80010DBF8A0
:101190000010D5F8BC201143CBF800102868C043DC
:1011A00008D437486A6D016800E018E021F040512A
:1011B000114301602868C043000208D4D5F88C2090
:1011C000DAF8001021F440011143CAF80010287920
:1011D0000024C04300F0010020430AD00FE0D5F8FE
:1011E0008020DAF8001021F440711143CAF8001091
:1011F0009EE70198002100F08FFF00B10646287994
:10120000C04300F00200204305D10198012100F005
:1012100083FF00B106462879C04300F00400204354
:1012200005D10198022100F077FF00B10646287928
:10123000C04300F00800204305D10098002100F0D1
:10124000FBFF00B106462879C04300F010002043A0
:1012500005D10098012100F0EFFF00B10646287982
:10126000C04300F02000044304D10098022100F0A4
:10127000E3FF00B916B10120BDE8FE8F0020FBE7B7
:101280004C4402582DE9F05F04000F467ED0DFF891
:101290003882D8F8000000F00F00B8420CD2D8F81D
:1012A000001021F00F013943C8F80010D8F80000F1
:1012B00000F00F00B84269D12078844D40070AD56C
:1012C0002069296801F07001884204D9296821F059
:1012D00070010143296020787C4E361D00070AD535
:1012E0006069316801F07001884204D9316821F0E9
:1012F0007001014331602078C0060AD5A0693168C9
:1013000001F4E061884204D9316821F4E0610143CD
:1013100031602078DFF8B4B180060BF1080B0CD5F2
:10132000E1695846DBF8002002F07002914204D9CE
:10133000026822F070020A430260207880070AD512
:10134000E068296801F00F01884204D9296821F07A
:101350000F01014329602078C0073ED05B49A26895
:101360002868183920F470601043286060680228EB
:1013700018D0032819D00968012819D04907002975
:101380004ADADFF848A1AAF1080A00E044E0DAF8F6
:10139000002022F007020243CAF80020FFF788F974
:1013A000814612E009688903E9E709688901E6E7EF
:1013B000C905E4E7FFF77CF9A0EB090141F28830A9
:1013C000814202D90320BDE8F09F6168DAF800008D
:1013D00000F03800B0EBC10FECD1207880070AD5BF
:1013E000E068296801F00F01884204D2296821F0E1
:1013F0000F0101432960D8F80010404601F00F01A9
:10140000B9420BD9016821F00F013943016000682E
:1014100000F00F00B84201D00120D4E72078400747
:101420000AD52069296801F07001884204D2296830
:1014300021F0700101432960207800070AD5606916
:10144000316801F07001884204D2316821F07001E6
:10145000014331602078C0060AD5A069316801F4E3
:10146000E061884204D2316821F4E06101433160D7
:10147000207880060CD5E1695846DBF8002002F0A0
:101480007002914204D2026822F070020A430260A4
:1014900000F026F80E492A682B68C2F3032203F0F5
:1014A0000F038A5CC95C02F01F0201F01F01D040EB
:1014B000084A20FA01F111600749086007480068EE
:1014C000BDE8F05FFFF730B9002000521844025821
:1014D0007C330008100000240C00002404000024C9
:1014E000454970B545480968434B103B11F0380237
:1014F00008D00111082A03D0102A0BD0182A0BD0CB
:10150000084670BD19688906FBD51968C1F3C10189
:10151000C84070BD3A4870BD3749374D18310C1D71
:1015200024350A68096826682D6802F0030406F06D
:101530000102C1F30511C5F3CC0515FB02F200EE63
:10154000102AB8EE400AE9B32F4ADFED2E0AB7EEB3
:10155000001A6CB1DFED2D1A012C01D0022C43D002
:1015600002EE101A1068F8EE422A81EEA22A1EE05E
:101570001C68A40611D51B6801EE901A1168C3F30C
:10158000C103F8EE612AD84001EE900AC1F30800C9
:10159000F8EE611A81EEA22A0BE001EE901ADFED5F
:1015A0001C2A00BFF8EE611A106882EEA12AC0F36F
:1015B000080001EE900AF8EE611A40EE201A31EEB2
:1015C000810A00E015E022EE000A1068C0F3462010
:1015D000401C00EE900AF8EE600A80EE201ABCEE85
:1015E000C10A10EE100A70BD01EE901ADFED092A53
:1015F000D8E7002070BD0000104402580090D003CE
:1016000040787D0100000039304402580024744ABB
:101610000024744C20BCBE4B2DE9F05F04007DD04B
:10162000FF4F2078FE4D1837DFF8F493103DC007C8
:1016300048D0D9F80000396800F03800102815D0DB
:10164000182803D101F0030002280FD06068B0F51C
:10165000803F12D010B1B0F5A02F18D0286820F428
:1016600080302860286820F4802009E02868800302
:1016700028D560680028D2D024E0286840F4803063
:101680002860606888B1FFF713F8064609E028680B
:1016900040F480202860F0E7FFF70AF8801B6428F8
:1016A0006FD828688003F7D50CE0FFF701F80646ED
:1016B00005E000BFFEF7FCFF801B6428F0D8286817
:1016C0008003F7D4207841F20308D54E0C3E800702
:1016D00069D5D9F80000396810F038000ED0182804
:1016E00001D188070AD0E06890B3296821F0190178
:1016F00001432960FEF7DCFF824631E0286840079D
:1017000002D5E06800288AD0E168286820F0190036
:1017100008432860FEF7CCFF824607E0DFE000BF09
:10172000FEF7C6FFA0EB0A000228B9D828684007D8
:10173000F6D500BFFEF7B6FF40451BD8206940280C
:1017400012D0316821F47C3141EA003030602AE067
:1017500018E000BFFEF7ACFFA0EB0A0002289FD8FC
:1017600028684007F6D5E5E7306820F47C3040F47F
:101770000030EBE7207C316821F0FE4141EA006057
:10178000E4E70DE1286820F001002860FEF790FFF3
:10179000824605E0FEF78CFFA0EB0A0002288DD8F8
:1017A00028684007F6D42078C0065DD5D9F8000037
:1017B000DFF86CB2396800F03800ABF1040B082890
:1017C00010D0182803D101F0030001280AD0E069E5
:1017D0000028286838D040F080002860FEF768FFB5
:1017E000824623E02868C00523D5E069802876D1A9
:1017F0001FE0206A202821D0316821F0F84141EA19
:101800008060306030E000BF94F82010DBF80020EA
:1018100022F07C5242EA0161CBF8001024E000BFC4
:10182000FEF746FFA0EB0A00022898D82868C005FA
:10183000F6D5FEF737FF4045E6D8DAE7306820F006
:10184000F84040F08040DCE720F080002860FEF7A0
:101850002FFF064605E000BFFEF72AFF801B022887
:101860009DD82868C005F7D42078000729D56C4892
:101870006169643000298046016811D041F001019E
:101880000160FEF715FF064605E000BFFEF710FFFA
:10189000801B0228C9D8D8F800008007F6D510E0D0
:1018A00021F001010160FEF703FF064605E000BFDD
:1018B000FEF7FEFE801B022872D8D8F800008007D1
:1018C000F6D42078800623D5A0690028286810D097
:1018D00040F480502860FEF7EBFE064605E036E156
:1018E000FEF7E6FE801B02285AD828688004F7D548
:1018F0000EE020F480502860FEF7DAFE064604E091
:10190000FEF7D6FE801B02284AD828688004F7D448
:10191000207840074FD5DFF80C81D8F8001041F44B
:101920008071C8F80010FEF7C3FE064605E000BF50
:10193000FEF7BEFE801B642832D8D8F80000C00530
:10194000F6D5374EA068603601280AD008B10528C0
:1019500013D0306820F001003060306820F00400BF
:1019600002E0306840F001003060A06841F2883A3F
:1019700090B1FEF79DFE80460AE0306840F004001A
:101980003060EEE7FEF794FEA0EB0801514507D862
:1019900030688007F6D50EE0FEF78AFE804607E045
:1019A00084E000BFFEF784FEA0EB080151457DD81E
:1019B00030688007F6D4606AB0B3DFF86480D9F885
:1019C000001008F120084FF6F87B08F10409C1F374
:1019D000C2010329A8F1040A69D00228286820F06E
:1019E0008070286003D0FEF763FE044684E0FEF7B3
:1019F0005FFE064605E000BFFEF75AFE801B022888
:101A000077D828688001F7D4E26A40F2F331386869
:101A100054F8283F884340EA02101843386004E035
:101A20001044025800480258B5E0217B4346228901
:101A30004FF4FE0C208A4FF0FE474902267D521ECD
:101A4000401EA1F50071C2F308088AB2761E0CEAA6
:101A5000004042EA08020243504607EA06610A4390
:101A60001A60DAF8002022F00102CAF80020D9F842
:101A70000020266A22EA0B0242EAC602C9F80020C8
:101A8000DAF80010A26921F00C011143CAF8001025
:101A90000168E26921F0020111430160016841F42B
:101AA00080310160016841F4003101E021E027E06C
:101AB0000160016841F480210160016841F0010189
:101AC0000160286840F080702860FEF7F1FD044650
:101AD00005E000BFFEF7ECFD001B022809D82868CE
:101AE0008001F7D557E000BFFEF7E2FD001B02289A
:101AF00002D90320BDE8F09F28688001F4D44AE0B1
:101B000039680128D8F8000021D0A26A01F0030347
:101B100093421CD1E26AC1F305118A4217D1216BAD
:101B2000C0F30802491E8A4211D1616BC0F34622FC
:101B3000491E91420BD1A16BC0F30642491E91424E
:101B400005D1E16BC0F30660491E814201D001203E
:101B5000D0E7A16C4E46D9F80000C0F3CC0081421A
:101B600019D0DAF80000554620F00100CAF800004C
:101B7000FEF79EFD4FEA0007FEF79AFDB842FBD044
:101B8000A26C306820EA0B0040EAC200306028688E
:101B900040F0010028600020ACE700002DE9F0478C
:101BA000040029D0594A4FF000092068584B594D7C
:101BB0009042C4F8289006D0984204D0A84202D09F
:101BC000E1680F2918D8E1684FF0010AE76B083186
:101BD000C9080AEB57167143904205D0984203D0CA
:101BE000A84201D0082907D8904203D0984201D0DA
:101BF000A84204D1102902D90120BDE8F08794F849
:101C0000810020B9204684F8809000F085F80220F9
:101C100084F881002068016821F0010101602068DA
:101C2000A1698268B1F1806F02F4F81110D1626885
:101C3000B2F5800F01D01AB10AE0A26B22B107E021
:101C4000A26BB2F1805F03D1026842F4805202605D
:101C50006068400209D5E068072806D32068236D34
:101C6000026822F480721A4303E02068026822F4BA
:101C700080720260A66AE069E26B25683043E3681F
:101C80000A4310431843A860D4E90D02D4E9058142
:101C9000636A25691843D4F820C00A4326681043B4
:101CA0002843A56DD4E90172D4E9123140EA080055
:101CB00040EA0C0038430843104318432843F060BF
:101CC000606868B92068816821F4C05141F40061FE
:101CD00081602068816821F4C06141F48061816085
:101CE0002068016D21F0010101656068400206D5A0
:101CF0002068626DC16821F000411143C160C4F8E1
:101D0000849084F881A0002077E700000030014033
:101D100000380040003C004010B5B6B00446142125
:101D200030A8FEF729FBC0216846FEF725FB1949BC
:101D3000206888422BD18114002018900446CDE9F8
:101D400000106846FEF7C8FD08B1FEF77AFB12489E
:101D5000016841F400410160006800F400403590E2
:101D60000D480838016841F004010160006830AB9B
:101D7000022100F0040035904FF4A050062283E8C1
:101D80001300064830A9CDE93342FEF76FFB36B0A9
:101D900010BD0000003C0040E84402580008025812
:101DA0002DE9F84F044600689946174600F1200BCC
:101DB0008A46FEF77DFC064694F88100012839D159
:101DC000BAF1000F7ED0002FFCD094F880000128DB
:101DD00030D0A26800254FF0010884F880800321EC
:101DE00084F88110C4F88450C4F85CA06566A4F837
:101DF0006850656725672C34B2F5C02FA786E78643
:101E0000E58754F82C0D18D0C16821F4C02141F4A5
:101E10000031C160206841686FF30F0139434160B0
:101E20002068016841F0010101606068B0F5800F31
:101E300008D00CE00220BDE8F88F016841F4006191
:101E40000160E7E72068016841F400710160E06823
:101E50000F281CD820E02068416989070BD5E16D67
:101E600009680162E06D001DE065B4F86200401E83
:101E7000A4F862000BE0FEF71BFC811B494503D36D
:101E8000B9F1FF3F03D09DE0B9F1000F32D0B4F8B3
:101E900062000028DFD179E007282FD872E020689F
:101EA000416989071ED5B4F8621001290DD9E16B8B
:101EB00059B1E16D09680162E06D001DE065B4F89B
:101EC000620000E07CE0801E09E0E06D0188ABF874
:101ED0000010E06D801CE065B4F86200401EA4F8BC
:101EE00062000BE0FEF7E4FB811B494503D3B9F127
:101EF000FF3F03D066E0B9F1000F63D0B4F8620091
:101F00000028CCD142E02068416989072ED5B4F879
:101F1000621003290CD9E16B402909D9E16D0968E8
:101F20000162E06D001DE065B4F86200001F1AE078
:101F3000B4F8621001290CD9E16B51B1E06D018850
:101F4000ABF80010E06D801CE065B4F86200801E04
:101F500009E0E16D097880F82010E06D401CE06533
:101F6000B4F86200401EA4F862000BE0FEF7A0FB8C
:101F7000811B494503D3B9F1FF3F03D022E0B9F1FA
:101F8000000F1FD0B4F862000028BCD100224B46DD
:101F900008212046009600F03DFA28B1D4F88400CC
:101FA00040F02000C4F88400204600F0D5F984F801
:101FB0008180D4F8840084F8805000283FF43BAF3F
:101FC000012038E7204600F0C7F9D4F8841084F8DF
:101FD000805041F48071C4F8841084F8818003201B
:101FE00029E7401EB0F1807F10B501D3012010BD5C
:101FF0004FF0E02460610F21601701F076F90020B6
:10200000A0610721216110BDFEE700002DE9F0412C
:1020100086B014216846FEF7AFF92348016841F005
:1020200080010160016801F080010591016841F0C3
:1020300004010160016801F004010591016841F0AB
:1020400001010160016801F001010591016841F0A1
:102050000801016000684FF43066144F002200F060
:102060000800314605903846FEF716FBDFF8408041
:10207000002204214046FEF70FFB002400960125B4
:1020800069463846CDE901540394FEF7EFF9042080
:102090000090CDE90154694640460394FEF7E6F905
:1020A00006B0BDE8F0810000E04402580008025884
:1020B000000C02582DE9F0414FF480041348124AF5
:1020C00007266511E700230180E8F4000021C0E93C
:1020D0000513C1611A01016241628162C162C0E9F6
:1020E0000D21C163016441648164C164016541657E
:1020F0008165FFF753FD002803D0BDE8F041FEF7EE
:10210000A0B9BDE8F0810000003C00402C00002494
:10211000FEE7FEE7704700002DE9F047454D044615
:1021200089464FF0000A2868C04380070AD0414E14
:10213000283E306820F080603060FEF7B9FA07462C
:10214000B04608E00120BDE8F08700BFFEF7B0FA16
:10215000C01B022867D8D8F800000001F6D4206818
:1021600029684FF4FE0721F47C313E0241EA003039
:102170002860207AA389B4F804C040022D4D2D496F
:102180005B1E227CACF1010C1035091DA0F500701E
:1021900080B2521ECCF3080C07EA034340EA0C005D
:1021A000184306EA0262104328600868626920F05A
:1021B000C000104308600A68A06922F020020243B0
:1021C0000A60281D0A6822F010020A6002684FF6B1
:1021D000F873E4699A4342EAC40202600868B9F1FC
:1021E000000F40F010020A6011D00868B9F1010F29
:1021F00011D040F400100860D8F80000444640F0C8
:102200008060C8F80000FEF753FA05460DE0086844
:1022100040F40020EFE740F48010ECE7FEF748FAC6
:10222000401B022801D903208DE720680001F5D565
:10223000504688E7284402582DE9F047454D0446AA
:1022400089464FF0000A2868C04380070AD0414EF3
:10225000283E306820F080503060FEF729FA0746AB
:10226000B04608E00120BDE8F08700BFFEF720FA85
:10227000C01B022867D8D8F800008000F6D4208858
:1022800029684FF4FE0721F07C713E0241EA0050BC
:102290002860207AA389B4F804C040022D4D2D494E
:1022A0005B1E227CACF1010C1835091DA0F50070F5
:1022B00080B2521ECCF3080C07EA034340EA0C003C
:1022C000184306EA0262104328600868626920F435
:1022D0004060104308600A68A06922F4007202435B
:1022E0000A60281D0A6822F480720A6002684FF6AC
:1022F000F873E4699A4342EAC40202600868B9F1DB
:10230000000F40F480720A6011D00868B9F1010F23
:1023100011D040F080700860D8F80000444640F0CA
:102320008050C8F80000FEF7C3F905460DE00868C4
:1023300040F48000EFE740F40000ECE7FEF7B8F966
:10234000401B022801D903208DE720688000F5D5C5
:10235000504688E72844025810B5026840F26F33AF
:102360005169946944F0080494610268946944F0E6
:10237000100494610268146824F001041460026877
:1023800014699C4314610268936823F4404393608A
:1023900090F88120042A0CD08A060AD5D0F884202F
:1023A00042F08002C0F884200268936943F0200361
:1023B000936190F88120032A0CD04A060AD5D0F800
:1023C000842042F00402C0F884200268936943F03C
:1023D000400393618A050AD5D0F8842042F00102B7
:1023E000C0F884200268936943F400739361C905BF
:1023F0000AD5D0F8841041F00801C0F884100168B3
:102400008A6942F480728A610021A0F86210A0F803
:102410006A1010BD2DE9F0411C4616460D460746D0
:10242000DDF818800AE000BFFEF742F9A0EB0800D3
:10243000A04202D3601C01D00BE054B1386840695F
:1024400035EA000007D00020B042EDD00020BDE802
:10245000F0810320FBE70120F6E700002DE9FF4FA4
:102460000746144650000E4600254FF00109C2F100
:1024700001082A46042183B0C0F1000A3F48FEF754
:102480000BF93019069A81B2384600F039FA301B40
:10249000069A81B2384600F033FA3819069A80B2AB
:1024A000314600F02DFA381B069A80B2314658E0CA
:1024B000B8F1000F09DB0AF102000FFA80FA641E7E
:1024C00008EB0A0024B20FFA80F809F102000FFAB3
:1024D00080F96D1C08EB09002DB20FFA80F878190D
:1024E000019006EB040B069A1FFA8BF180B200F004
:1024F00007FA781B069A1FFA8BF1009080B200F061
:10250000FFF90198A6EB040B1FFA8BF1069A80B233
:1025100000F0F6F900981FFA8BF1069A80B200F0ED
:10252000EFF93819019006EB050B069A1FFA8BF1AB
:1025300080B200F0E5F9381B069A1FFA8BF1009083
:1025400080B200F0DDF90198A6EB050B1FFA8BF1C4
:10255000069A80B200F0D4F900981FFA8BF1069A1F
:1025600080B200F0CDF9A542A2DB07B003480122FA
:102570000421BDE8F04FFEF78FB80000000C0258B0
:102580002DE9FE4F9846144600220D4604210746C9
:102590004148FEF781F8C4EBC4304FF0010AC4F1A2
:1025A000010241000FFA81FB0FFA82F94246291914
:1025B000B8B289B2002600F0A3F9281B424681B2C6
:1025C000B8B200F09DF938194246A9B2029080B223
:1025D00000F096F9381B4246A9B2019080B200F093
:1025E0008FF90298ABB2A9B2CDF8008082B20198FF
:1025F00080B244E0B9F1000F09DB0BF102000FFAE1
:1026000080FB641E09EB0B0024B20FFA80F9CDF8B1
:1026100000800AF102000FFA80FA761C36B2BB196C
:10262000B81B09EB0A010FFA81F9CDE901039AB24F
:1026300029198BB289B280B200F010F90198291BD8
:10264000029B82B2CDF8008098B28BB289B200F0C2
:1026500005F93A1BCDF800803819A919CDE9010216
:102660008BB292B289B280B200F0F8F8029AA91B3C
:1026700001988BB292B2CDF8008080B289B200F09E
:10268000EDF8A642B6DB03B0034801220421BDE801
:10269000F04FFEF701B80000000C02582DE9F84F8A
:1026A000DFF86CA01F4614460D46DDF82890002286
:1026B000042106465046FDF7EFFFF02E26D2F02DFE
:1026C00024D23019F02802D3C6F1F00084B2E81900
:1026D000F02802D3C5F1F00087B206EB040800240D
:1026E0000BE02819CDF8009083B281B230461FFA72
:1026F00088F200F0B3F8641CE4B2BC42F1D9504651
:10270000BDE8F84F01220421FDF7C6BFBDE8F88FF0
:10271000000C02582DE9FE4F9946904600220C46C7
:10272000042106463148FDF7B7FF0027A8EB060154
:10273000002901DCA6EB0801A9EB040009B200287E
:1027400001DCA4EB09004FF0FF32B04525B236B2F0
:1027500000B203D3012301939A4601E0924601920D
:10276000A14503D34FF0010BD94601E09346D9466A
:102770004FF00002814207DB9146019201EBD172DA
:1027800088460290541026E092464FF0000B00EB72
:10279000D0728046029154101DE00E98A9B2DDE976
:1027A0000C230090B0B200F059F80298204404B213
:1027B000444508DB0198A4EB08010CB2321805EB84
:1027C0000B0016B205B27F1C06EB0A0105EB0900EF
:1027D0000EB205B23FB24745DFDD03B00348012228
:1027E0000421BDE8F04FFDF757BF0000000C025870
:1027F0002DE9F05FF028984691460C46DDF828B0A8
:10280000054626D2F02C24D205EB09077F1EF02FB7
:102810001FDA04EB0806761EF02E1ADADFF838A06D
:10282000002204215046FDF737FFB3B22146BAB269
:10283000284600F0BBF94FEA4901584601FB08F170
:1028400000F000FC5046BDE8F05F01220421FDF7D6
:1028500023BFBDE8F09F0000000C02582DE9F05F97
:102860000C460646181B1546002800DCE01AA91B7A
:10287000002900DC711B884207DD30464FF001085B
:10288000264604461D46134601E04FF00008AE42BE
:1028900005D930462E46054620461C460346A91B50
:1028A000181B0FFA81F9002800DCE01A0FFA80FBF0
:1028B00009EBD97047109C4201D2012001E04FF092
:1028C000FF30824618E000BF0A9AB8F1000F02D02C
:1028D0003146204601E02146304600F011F8A7EBD2
:1028E0000B0007B2002F05DA04EB0A0107EB090021
:1028F0008CB207B2761CB6B2AE42E5D9BDE8F09F05
:1029000038B5F028144619D2F02917D20B460246E2
:1029100000F04CF9200A8DF800008DF801400022EB
:10292000074C04212046FDF7B7FE0221684600F05F
:1029300089FB012220460421FDF7AEFE38BD0000D0
:10294000000C02582DE9F843164F1D4616468946DD
:10295000089C0022042180463846FDF79DFE4B4628
:102960003246194640460094FFF778FF42462B4610
:10297000494610460094FFF771FF2B463246194630
:1029800040460094FFF76AFF32462B464946104600
:102990000094FFF763FF3846BDE8F84301220421A5
:1029A000FDF77ABE000C02582DE9F84F144F9A46F5
:1029B000934688460A9E002204218146DDE90B5495
:1029C0003846FDF769FE53465A464146484600944C
:1029D000FFF744FF2B463246514658460094FFF716
:1029E0003DFF43464A46294630460094FFF736FFEE
:1029F0003846BDE8F84F01220421FDF74DBE000026
:102A0000000C02582DE9F843EF23054600211A4631
:102A1000084600F0CBF8DFF844800022042140464D
:102A2000FDF73AFE00242E0AEFB200258DF8006073
:102A3000022168468DF8017000F004FB6D1CADB2F8
:102A4000F02DF3D3641CA4B2F02CEED34046BDE8C5
:102A5000F84301220421FDF71FBE0000000C0258BC
:102A60007FB50A20FDF7F0FC454C4FF400750022BD
:102A700029462046FDF710FE0A20FDF7E5FC01225D
:102A800029462046FDF708FE1420FDF7DDFC3A201C
:102A900000F0B8FA552000F009FBB22000F0B2FABD
:102AA00038A1D1E90001CDE900010521684600F017
:102AB000C9FA022000F0B6F8B72000F0A3FA3520DA
:102AC00000F0F4FABB2000F09DFA192000F0EEFAB5
:102AD000C02000F097FA2C2000F0E8FAC22000F0A5
:102AE00091FA012000F0E2FAC32000F08BFA1220E4
:102AF00000F0DCFAC42000F085FA202000F0D6FABD
:102B0000C62000F07FFA0F2000F0D0FAD02000F0AD
:102B100079FAA42000F0CAFAA12000F0C7FAE02058
:102B200000F070FA19A00FC88DE80F000E2168465A
:102B300000F088FAE12000F065FA18A10FC98DE8CD
:102B40000F000E21684600F07DFA212000F05AFAAD
:102B5000112000F057FA132000F054FA292000F059
:102B600051FA3220FDF770FC0020FFF74BFF04B054
:102B700020460122BDE870401102FDF78DBD000026
:102B8000000802580C0C003333000000D0040D1173
:102B9000132B3F544C180D0B1F230000D0040C11B5
:102BA000132C3F44512F1F1F202300002DE9F84311
:102BB000DFF86C801C4615460E46002207460421AD
:102BC0004046FDF769FD2A2000F01CFA380A8DF80E
:102BD00000008DF80170290A8DF802100421684662
:102BE0008DF8035000F02EFA2B2000F00BFA300A7B
:102BF0008DF800008DF80160210A8DF80210042183
:102C000068468DF8034000F01DFA2C2000F0FAF918
:102C10004046BDE8F84301220421FDF73DBD000018
:102C2000000C025810B50446362000F0EBF954B100
:102C3000012C0AD0022C0AD0032C0AD16020BDE856
:102C4000104000F033BAC020F9E7A020F7E70020D9
:102C5000F5E710BD2DE9FE4F4FF6FF752846FFF74B
:102C6000D1FE4FF47A7B5846FDF7EEFB9A4C4FF4B9
:102C70007848CDE90185142198A2606800900A2067
:102C8000236800F033FA5846FDF7DEFB6810FFF7C3
:102C9000B9FE4FF4FA773846FDF7D6FB4046FFF70A
:102CA000B1FE3846FDF7D0FB1F20FFF7ABFE3846DC
:102CB000FDF7CAFB4FF4FC60FFF7A4FE3846FDF7B2
:102CC000C3FB4FF6E0763046FFF79CFE3846FDF733
:102CD000BBFB4BF64040FFF795FE3846FDF7B4FBD3
:102CE00040F2CF10FFF78EFE3846FDF7ADFB4FF6F2
:102CF0001F094846FFF786FE3846FDF7A5FB48F258
:102D00001F40FFF77FFE3846FDF79EFB4CF2186030
:102D1000FFF778FE3846FDF797FB42F61230FFF7D3
:102D200071FE3846FDF790FB2846FFF76BFE3846EC
:102D3000FDF78AFB6C4F6811CDE901050A216BA2F2
:102D40007868009008463B6800F0D0F96A486BA2AA
:102D5000CDE9018541680091322103680A2000F025
:102D6000C5F9CDE9016560684B2100900A20236810
:102D700062A200F0BBF9CDE901957868642100906A
:102D80000A203B685DA200F0B1F95846FDF75CFBF4
:102D90004046FFF737FE00270A215CA2CDE9016714
:102DA000606800900846236800F0A0F9642300954D
:102DB0001E211A460846FFF7C5FD5846FDF744FB9D
:102DC0004046FFF71FFECDE9016760680A210090C9
:102DD00051A22368084600F089F9322300951E218C
:102DE0001A460846FFF75AFC5846FDF72DFB4046A9
:102DF000FFF708FECDE9016760680A2100904AA24A
:102E00002368084600F072F93C212B461922084637
:102E1000FFF724FB5846FDF717FB4046FFF7F2FD8E
:102E2000CDE9016760680A21009041A22368084645
:102E300000F05CF93C212B4619220846FFF7A0FB65
:102E40005846FDF701FB4046FFF7DCFDCDE9016781
:102E500060680A21009039A22368084600F046F90C
:102E60001E224FF028094FF03C0ACDF800A046235F
:102E70001146CDE901951046FFF796FD5846FDF73E
:102E8000E3FA4046FFF7BEFDCDE9016760680A211D
:102E900000902DA22368084600F028F91E22CDF8E4
:102EA00000A046231146CDE901951046FFF732FCFC
:102EB0005846FDF7C9FA2846FFF7A4FD25488023A8
:102EC00000211A4600900846FFF792FCBDE8FE4F2D
:102ED00040F6B830FDF7B8BA1C00002453706565A1
:102EE000642054657374000024000024466F6E74DF
:102EF00020746573742E00001400002448656C6C07
:102F00006F2053746576652100000000526563747C
:102F10002E2F4C696E652E0046696C6C65642052DC
:102F20006563742E00000000436972636C652E00B7
:102F300046696C6C6564204369722E005472696145
:102F40006E676C650000000046696C6C6564205417
:102F500072690000A05B00080FB42DE9FF5F00223A
:102F60001F460C46054626480421DDE913A9FDF756
:102F700093FBC7F30726601E691EFFB23044394435
:102F800083B228468AB22146FFF710FE00252BE0C7
:102F90001098002409F0FF0B203810FB06514FEA6F
:102FA0001A2002900AF0FF0001904FEA19200090C9
:102FB000129830F8118014E008FA04F0000406D5E5
:102FC00002988DF80C0001988DF80D0004E000982F
:102FD0008DF80C008DF80DB0022103A800F032F836
:102FE000641CA742E8D86D1CAE42D1D804B0044896
:102FF00001220421BDE8F01F5DF814EBFDF74CBB86
:10300000000C025831B50C4C002204212046FDF77B
:1030100043FB0A4800224FF40061FDF73DFB0848DE
:1030200001224FF0FF336946FEF7BAFE0122204627
:103030000421FDF731FB38BD000C0258000802588E
:103040002C0000242DE9F047DFF8549000220C46B4
:10305000064604214846FDF71FFB01221148D10214
:10306000FDF71AFB4FF480374FF6FF784FF0FF3A29
:103070000DE0BC4201D3404600E02046534685B2F5
:1030800009482A463146FEF78BFE641B2E44002C6D
:10309000EFD14846BDE8F04701220421FDF7FCBA14
:1030A000000C0258000802582C00002431B50C4CCA
:1030B000002204212046FDF7EFFA01220948D1023F
:1030C000FDF7EAFA084801224FF0FF336946FEF7A0
:1030D00067FE012220460421FDF7DEFA38BD00001C
:1030E000000C0258000802582C0000242DE9FE4F65
:1030F000DFF86490984614460E46002205460421E7
:103100004846DDE90DBAFDF7C7FA08F0FF0718E0F9
:103110007819F02809D3C8F3072081198EB2002549
:103120003044F02810D2202A0AD0CDE901BA0C98F8
:103130004346314600902846FFF70EFF781985B2C6
:10314000641C2278002AE3D103B0484601220421FE
:10315000BDE8F04FFDF7A0BA000C02587047FDF72C
:10316000ADBA000070B59CB04C216846FDF704F97B
:10317000202113A8FDF700F90220FDF783FB214968
:103180000A68214822F001020A600968016821F4F6
:10319000404141F4804101600168002401F4404154
:1031A0001B9101688904FCD5022009900C220A9029
:1031B000C5030321CDE90B02CDE90015CDE90D01D1
:1031C0004026CDE90F02CDE9110401236846CDE97F
:1031D0000336FEF721FA08B172B6FEE73F20CDE9CB
:1031E00013041594012113A8169417941894199494
:1031F0001A94FEF747F8002801D072B6FEE71CB01B
:1032000070BD00002C040058184802582C48F0B536
:103210002C4A016841F470010160106800F00F0051
:10322000072804D2106820F00F00C01D1060264946
:103230000020254C10340B68244D43F001030B6033
:1032400020600B682B400B60136803F00F03072B03
:1032500004D9136823F00F03DB1D13601A4C1C4ABA
:1032600018341C4B261D371D2060174C1A4D28346E
:103270003060261D3860371D23603B1D35601C1DE6
:103280003A60251D2E1D1860331D226028603260B3
:1032900018600A680C4B114C22F4802260330A60DB
:1032A000186020686FF30F00B0F1005F03D20C4983
:1032B0000120C1F8080143F2D2000A490860F0BDBC
:1032C00088ED00E000200052004402587FEDF6EA4D
:1032D00080020101000202020000FF010010005CF8
:1032E0000080005100400052FEE7090700284FEA25
:1032F000116104DB00F1E02080F80014704700F059
:103300000F0000F1E02080F8141D70471FB5002465
:103310000094019402940394FDF754FA01208DF86F
:103320000C001F218DF8081087228DF809208DF8D8
:103330000D008DF8000068468DF80A408DF80E40AB
:103340008DF8014001948DF80B408DF80F40FDF78A
:103350000BFA0420FDF744FAFDF7B8F9FFF702FF76
:10336000FEF754FEFEF7A6FEFFF77AFBFFF772FCAE
:10337000FCE74FF04070E1EE100A704700000000DB
:10338000010203040102030406070809000000000B
:10339000000000000000000000000000000000002D
:1033A00000100010001000100010001000000010AD
:1033B0000000000000280028002800000000000095
:1033C000000000000000000000240024007C002415
:1033D0000048007C0048004800000000003800540D
:1033E0000050003800140054005400380010000051
:1033F0000020005400580030002800540014000839
:1034000000000000001000280028001000340048D0
:103410000048003400000000001000100010000000
:103420000000000000000000000000000008001084
:1034300000200020002000200020002000100008B4
:10344000002000100008000800080008000800081C
:1034500000100020001000380010002800000000BC
:10346000000000000000000000000000001000103C
:10347000007C0010001000000000000000000000B0
:10348000000000000000000000000010001000100C
:1034900000000000000000000000003800000000F4
:1034A000000000000000000000000000000000001C
:1034B00000000010000000000008000800100010CC
:1034C0000010001000200020000000000038004420
:1034D0000044005400440044004400380000000050
:1034E00000100030005000100010001000100010FC
:1034F00000000000003800440044000400080010F0
:103500000020007C00000000003800440004001887
:103510000004000400440038000000000008001807
:10352000002800280048007C000800080000000077
:10353000007C004000400078000400040044003893
:1035400000000000003800440040007800440044BF
:103550000044003800000000007C00040008001057
:10356000001000200020002000000000003800446F
:1035700000440038004400440044003800000000CB
:103580000038004400440044003C0004004400387B
:10359000000000000000000000100000000000001B
:1035A00000000010000000000000000000000010FB
:1035B00000000000000000100010001000000000DB
:1035C000000C003000400030000C00000000000043
:1035D000000000000000007C0000007C00000000F3
:1035E0000000000000000000006000180004001847
:1035F00000600000000000000038004400040008E3
:10360000001000100000001000000000003800440E
:10361000004C0054005C00400040003800000000F6
:1036200000100028002800280028007C00440044E6
:10363000000000000078004400440078004400448A
:1036400000440078000000000038004400400040C2
:1036500000400040004400380000000000700048B6
:103660000044004400440044004800700000000092
:10367000007C00400040007C004000400040007C96
:1036800000000000007C0040004000780040004046
:1036900000400040000000000038004400400040AE
:1036A000005C004400440038000000000044004476
:1036B0000044007C0044004400440044000000003A
:1036C000003800100010001000100010001000382A
:1036D00000000000000400040004000400040004D2
:1036E0000044003800000000004400480050006022
:1036F0000050004800480044000000000040004026
:1037000000400040004000400040007C00000000FD
:103710000044006C006C0054004400440044004429
:103720000000000000440064006400540054004C99
:10373000004C0044000000000038004400440044F5
:1037400000440044004400380000000000780044B9
:1037500000440044007800400040004000000000A9
:103760000038004400440044004400440054003841
:103770000004000000780044004400440078004841
:1037800000480044000000000038004400400030C1
:10379000000800040044003800000000007C001015
:1037A00000100010001000100010001000000000B9
:1037B00000440044004400440044004400440038F5
:1037C00000000000004400440044002800280028B5
:1037D0000010001000000000004400440054005499
:1037E0000054006C0028002800000000004400285D
:1037F00000280010001000280028004400000000ED
:1038000000440044002800280010001000100010A0
:1038100000000000007C00040008001000100020E0
:103820000040007C00000000001800100010001094
:1038300000100010001000100010001800200020E0
:103840000010001000100010000800080000000028
:1038500000300010001000100010001000100010C8
:103860000010003000100028002800440000000074
:103870000000000000000000000000000000000048
:103880000000000000000000000000FE002000100A
:103890000000000000000000000000000000000028
:1038A0000000000000380044003C0044004C00349C
:1038B0000000000000400040005800640044004444
:1038C00000640058000000000000000000380044C0
:1038D00000400040004400380000000000040004E4
:1038E0000034004C00440044004C00340000000050
:1038F0000000000000380044007C00400044003814
:1039000000000000000C0010007C001000100010EF
:103910000010001000000000000000000034004C07
:1039200000440044004C0034000400780040004093
:1039300000580064004400440044004400000000BB
:1039400000100000007000100010001000100010A7
:1039500000000000001000000070001000100010B7
:1039600000100010001000E000400040004800502F
:10397000006000500048004400000000007000108B
:1039800000100010001000100010001000000000D7
:10399000000000000078005400540054005400540B
:1039A00000000000000000000058006400440044D3
:1039B0000044004400000000000000000038004403
:1039C00000440044004400380000000000000000F3
:1039D0000058006400440044006400580040004067
:1039E000000000000034004C00440044004C00344F
:1039F0000004000400000000005800640040004083
:103A000000400040000000000000000000380044BA
:103A100000300008004400380000000000200020B2
:103A20000078002000200020002000180000000086
:103A3000000000000044004400440044004C0034F6
:103A4000000000000000000000440044002800289E
:103A50000028001000000000000000000054005486
:103A60000054006C00280028000000000000000046
:103A7000004400280010001000280044000000004E
:103A8000000000000044004400280028001000103E
:103A90000010006000000000007C00080010002002
:103AA0000040007C00000000001800100010001012
:103AB000002000200010001000100018001000105E
:103AC0000010001000100010001000100010001076
:103AD0000030001000100010000800080010001056
:103AE000001000300000000000000074004C0000D6
:103AF00000000000000000000000000000000000C6
:103B000000000000000000000000000000000000B5
:103B10000000000000000000000000000000000C99
:103B2000000C000C000C000C000C000C000C000C35
:103B3000000C000C0000000C000C00000000000055
:103B40000000001B001B001B001B001B00000000EE
:103B50000000000000000000000000000000000065
:103B60000000000000008019801980198019C07FB2
:103B7000C07F80190033C07FC07F00330033003323
:103B800000330000000000000000001E003F8075B0
:103B900080650074003C001E00078005806580651C
:103BA0008075003F001E000400040000000000704B
:103BB00000D840D8C0D880D900730006000C801B04
:103BC000C036C066C046C00680030000000000008A
:103BD0000000001E003F003300330033001E000CC5
:103BE000C03CC066806380618063C03E801C000072
:103BF000000000000000000C000C000C000C000C89
:103C000000000000000000000000000000000000B4
:103C1000000000000000000080000001000300061A
:103C200000060004000C000C000C000C000C000C42
:103C300000040006000600030001800000200010C0
:103C40000018000C000C0004000600060006000628
:103C5000000600060004000C000C001800100020F4
:103C60000000000C002D003F001E0033000000008B
:103C70000000000000000000000000000000000044
:103C800000000000000000000000000C000C000C10
:103C9000000CC0FFC0FF000C000C000C000C00006A
:103CA0000000000000000000000000000000000014
:103CB0000000000000000000000000000000000004
:103CC0000000000C000C00040004000800000000CC
:103CD0000000000000000000000000000000001EC6
:103CE000001E0000000000000000000000000000B6
:103CF00000000000000000000000000000000000C4
:103D000000000000000000000000000C000C00009B
:103D1000000000000000000300030003000600068E
:103D200000060006000C000C000C000C0018001827
:103D300000180000000000000000001E003F0033DB
:103D4000806180618061806D806D80618061806153
:103D50000033003F001E00000000000000000006CD
:103D6000000E001E003600260006000600060006B3
:103D70000006000600060006000600000000000025
:103D80000000001E003F807380618061800100039D
:103D90000006000C001800300060807F807F00006B
:103DA000000000000000001C003E006300630003F0
:103DB000000E000E00038001800180618073003FCF
:103DC000001E00000000000000000006000E000EB3
:103DD000001E001E0016003600360066807F807FC1
:103DE0000006000600060000000000000000007F42
:103DF000007F006000600060006E007F80638001D3
:103E0000800180618073003F001E00000000000000
:103E10000000001E003F803380610060006E007F64
:103E200080738061806180618033003F001E0000EC
:103E3000000000000000807F807F800100030003FD
:103E400000060006000C000C000C0008001800180A
:103E500000180000000000000000001E003F80630A
:103E6000806180610021001E003F8061806180616F
:103E70008061003F001E0000000000000000001EE6
:103E8000003F00738061806180618073803F801D8E
:103E9000800180610073003F001E000000000000F0
:103EA00000000000000000000000000C000C0000FA
:103EB00000000000000000000000000C000C0000EA
:103EC00000000000000000000000000000000000F2
:103ED000000C000C00000000000000000000000CBE
:103EE000000C0004000400080000000000000000B6
:103EF00080008003000E003800600038000E800350
:103F00008000000000000000000000000000000031
:103F1000000000000000807F807F00000000807FA4
:103F2000807F000000000000000000000000000092
:103F3000000000000000000000400070001C0007AE
:103F400080010007001C007000400000000000001D
:103F5000000000000000001F803FC071C060C00072
:103F6000C00180030007000E000C000C0000000CD4
:103F7000000C0000000000000000001E003F803127
:103F800080718063806F806D806D806F806700605E
:103F90000032003E001C0000000000000000000E87
:103FA000000E001B001B001B001B80318031803F76
:103FB000803F8031C060C060C06000000000000031
:103FC0000000007C007E0063006300630063007EED
:103FD000007E0063806180618063007F007E00005E
:103FE000000000000000001E003F80318061006082
:103FF0000060006000600060006080618031003F10
:10400000001E0000000000000000007C007F006334
:104010008063806180618061806180618061006314
:104020000063007E007C0000000000000000807F34
:10403000807F0060006000600060007F007F0060A3
:10404000006000600060807F807F00000000000052
:104050000000807F807F0060006000600060007F63
:10406000007F006000600060006000600060000091
:10407000000000000000001E003F803180610060F1
:104080000060006080638063806180618031803F78
:10409000001E00000000000000008061806180615F
:1040A000806180618061807F807F806180618061CC
:1040B0008061806180610000000000000000003F1E
:1040C000003F000C000C000C000C000C000C000C5D
:1040D000000C000C000C003F003F0000000000003E
:1040E0000000800180018001800180018001800149
:1040F00080018001806180618073003F001E0000AC
:10410000000000000000C06080610063006600667F
:10411000006C0078007C006600660063806180614E
:10412000C06000000000000000000060006000604F
:10413000006000600060006000600060006000607F
:104140000060807F807F0000000000000000C071E0
:10415000C071C07BC07AC06AC06AC06EC064C060F3
:10416000C060C060C060C060C060000000000000AF
:10417000000080718071807980798079806D806D98
:10418000806D8065806780678067806380630000E2
:10419000000000000000001E003F003380618061CD
:1041A0008061806180618061806180610033003F57
:1041B000001E0000000000000000007E007F806301
:1041C0008061806180618063007F007E00600060AC
:1041D0000060006000600000000000000000001EA1
:1041E000003F003380618061806180618061806117
:1041F000806580670033803F401E000000000000A3
:104200000000007E007F8063806180618063007FAA
:10421000007E00660063006380618061C060000012
:10422000000000000000000E001F803180310030CF
:104230000038001E00078003806180618031003FEC
:10424000001E0000000000000000C0FFC0FF000CC6
:10425000000C000C000C000C000C000C000C000CFE
:10426000000C000C000C0000000000000000806149
:104270008061806180618061806180618061806136
:10428000806180618073003F001E0000000000001C
:104290000000C060C060C060803180318031001B90
:1042A000001B001B001B000E000E000E000400008F
:1042B000000000000000C0C0C0C0C0C0C0C0C0C07E
:1042C000C0CC804C804C805E805280528073806174
:1042D00080610000000000000000C0C080608061BC
:1042E0000033003B001E000C000C001E001F003BB2
:1042F00080718061C0C00000000000000000C0C0EC
:104300008061806100330033001E001E000C000C31
:10431000000C000C000C000C000C00000000000061
:104320000000803F803F8001000300030006000C76
:10433000000C0018001800300060807F807F0000B3
:1043400000000000000F000F000C000C000C000C1F
:10435000000C000C000C000C000C000C000C000CFD
:10436000000C000C000F000F0000001800180018CF
:10437000000C000C000C000C0006000600060006F5
:10438000000300030003000000000000001E001EE8
:1043900000060006000600060006000600060006ED
:1043A000000600060006000600060006001E001EAD
:1043B0000000000C000C001E00120033003380616E
:1043C000806100000000000000000000000000000C
:1043D00000000000000000000000000000000000DD
:1043E00000000000000000000000000000000000CD
:1043F00000000000E0FF0000000000380018000C82
:1044000000000000000000000000000000000000AC
:10441000000000000000000000000000000000009C
:10442000000000000000001F803F80618001801FAD
:10443000803F80618063807FC03800000000000002
:1044400000000060006000600060006E007F80730C
:1044500080618061806180618073007F006E0000F8
:104460000000000000000000000000000000001E2E
:10447000003F807380610060006080618073003F56
:10448000001E00000000000000008001800180018B
:104490008001801D803F80738061806180618061C8
:1044A0008073803F801D00000000000000000000BD
:1044B000000000000000001E003F00738061807F4C
:1044C000807F00608071003F001E0000000000003F
:1044D0000000C007C00F000C000C807F807F000C24
:1044E000000C000C000C000C000C000C000C000078
:1044F000000000000000000000000000801D803F60
:10450000807380618061806180618073803F801DE5
:1045100080018063007F003E00000060006000605A
:104520000060006F807F8071806180618061806148
:1045300080618061806100000000000000000006D2
:10454000000600000000003E003E000600060006D7
:10455000000600060006000600060000000000003D
:104560000006000600000000003E003E00060006B7
:1045700000060006000600060006000600060046CB
:10458000007E003C00000060006000600060806110
:1045900000630066006C007C00760063006380614D
:1045A000C0600000000000000000003E003E000669
:1045B00000060006000600060006000600060006CB
:1045C00000060006000600000000000000000000D9
:1045D00000000000000080DDC0FFC0CEC0CCC0CC19
:1045E000C0CCC0CCC0CCC0CCC0CC0000000000000F
:1045F00000000000000000000000006F807F80715C
:104600008061806180618061806180618061000083
:104610000000000000000000000000000000001E7C
:10462000003F807380618061806180618073003FA2
:10463000001E00000000000000000000000000005C
:10464000006E007F80738061806180618061807313
:10465000007F006E006000600060006000000000ED
:1046600000000000801D803F807380618061806158
:1046700080618073803F801D800180018001800106
:10468000000000000000000000000067803F0039CB
:1046900000300030003000300030003000300000CA
:1046A0000000000000000000000000000000001EEC
:1046B000803F80610060007F803F80018061007FDB
:1046C000001E0000000000000000000000080018AC
:1046D0000018007F007F001800180018001800184C
:1046E0000018801F800F0000000000000000000084
:1046F0000000000000008061806180618061806155
:10470000806180618063807F803D00000000000048
:1047100000000000000000000000C0608031803117
:104720008031001B001B001B000E000E0006000065
:10473000000000000000000000000000000080DD1C
:1047400080DD80DD005500550055007700770022A0
:104750000022000000000000000000000000000037
:104760000000806100330033001E000C000C001EAE
:1047700000330033806100000000000000000000F2
:104780000000000080618061803100330033001B35
:10479000001B001B000E000E000E001C007C0070B1
:1047A00000000000000000000000C07FC07F80010A
:1047B00000030006000C00180030C07FC07F00001E
:1047C00000000000800380070006000600060006C7
:1047D0000006000E001C001C000E0006000600066D
:1047E000000600068007800300060006000600069B
:1047F0000006000600060006000600060006000689
:104800000006000600060006000600060038003C10
:10481000000C000C000C000C000C000E0007000740
:10482000000E000C000C000C000C000C003C0038CA
:1048300000000000000000000000000000008038C0
:10484000807F004700000000000000000000000022
:104850000000000000000000000000000000000058
:104860000000000000000000000000000000000048
:104870000000000000000000000000000000000038
:104880000000000000000000E003E003E003E0039C
:10489000E003E003E003E003C003C003C001C00184
:1048A000C001C001C001000000000000E003E003FF
:1048B000E003000000000000000000003C1E3C1E61
:1048C0003C1E3C1E3C1E3C1E3C1E00000000000026
:1048D00000000000000000000000000000000000D8
:1048E00000000000000000000000000000000000C8
:1048F000CE01CE03DE039E039C039C07FF3FFF7F98
:104900003807380F780F780F780EFFFFFFFFF01E83
:10491000F01CE01CE03CE03DE0390000000000003D
:1049200000000000FC03FE0FEE1FE01EE01EE01E74
:10493000E01EE01FE00FE007F003FC01FE01FE01B6
:10494000FE01FE01FE01FE01FE3DFC3FF00FE00115
:10495000E001000000000000033E07F78FE78EE74C
:104960009EE3BCE3B8E7F8E7F0F7E03FC001FF03E0
:10497000FF07F307F30FF31EF33CF338F3787FF0F0
:104980003FE000000000000000000000E007F80F1A
:10499000780F781F781F781F780FF00FE00F801FB7
:1049A000C37FC3FBE7F3F7F1F7F0FFF07FF03EF8CA
:1049B0007F7CFF3FEF1F00000000000000000000B0
:1049C000E003E003E003E003E003C003C0010000F4
:1049D00000000000000000000000000000000000D7
:1049E00000000000000000000000000000000000C7
:1049F000000000003F007C00F001E001C003C007A0
:104A000080078007800F000F000F000F000F000FBE
:104A1000000F800F80078007C007C003E001F0018E
:104A20007C003F000F000000007E001FC007C00395
:104A3000E001F001F000F000F80078007800780064
:104A4000780078007800F800F000F000F001E00154
:104A5000C003C007001F007E00780000E003C00311
:104A6000C001CE39FF3F7F3F20037003F807780F66
:104A70003C1F38060000000000000000000000009D
:104A80000000000000000000000000000000000026
:104A9000000000000000000000000000C001C00194
:104AA000C001C001C001C001C001FFFFFFFFC00184
:104AB000C001C001C001C001C00100000000000031
:104AC00000000000000000000000000000000000E6
:104AD00000000000000000000000000000000000D6
:104AE000000000000000E003E003E003E003E00159
:104AF000E001E001C00180030000000000000000B0
:104B00000000000000000000000000000000FE3F68
:104B1000FE3F000000000000000000000000000058
:104B20000000000000000000000000000000000085
:104B30000000000000000000000000000000000075
:104B40000000000000000000000000000000E00382
:104B5000E003E003E00300000000000000000000AC
:104B60000F000F001E001E003C003C007800780083
:104B7000F000F000E001E001C003C00380078007FF
:104B8000000F000F001E001E003C003C0078007863
:104B900000F00000F007F80F7C1F3E3E1E3C1F7C1B
:104BA0001F7C0F780F780F780F780F780F780F78B9
:104BB0001F7C1F7C1E3C3E3E7C1FF80FF007000050
:104BC0000000000000000000F000F007F03FF03FA0
:104BD000F001F001F001F001F001F001F001F0014D
:104BE000F001F001F001F001F001F001F001FF3FF0
:104BF000FF3F00000000000000000000E00FF83F51
:104C00007C3C3C003E003E003E003C003C007C0002
:104C1000F800F001E003C0078007000F001E003E0F
:104C2000003CFE3FFE3F00000000000000000000CE
:104C3000F00FF81F7C1C3E003E003E003C003C0094
:104C4000F800F00FF80F7C003E001E001E001E0052
:104C50001E003E007C1CF81FE01F0000000000004A
:104C6000000000007800F800F800F801F803F807E9
:104C7000F807780F781E781E783C78787878FFFFF0
:104C8000FFFF780078007800780078007800000056
:104C90000000000000000000FC1FFC1FFC1F001EA5
:104CA000001E001E001E001EE01FF81FFC007C00FE
:104CB0003E003E001E003E003E003C007C1CF81FF3
:104CC000E01F00000000000000000000FC01FE07E3
:104CD0008E0F001F001E003E003C003CF83DFC3FD4
:104CE0003E7F1F7E0F3C0F3C0F3C0F3C0F3E1F1EB4
:104CF0003E1FFC0FF0030000000000000000000059
:104D0000FF3FFF3FFF3F0F001E001E003C0038002A
:104D10007800F000F000E001E001C003C00380076C
:104D2000800F800F000F001F001F00000000000018
:104D300000000000F807FC0F3E1F1E1E1E3E1E3E18
:104D40001E1E3C1FF80FF007F80FFC1E3E3E1F3CD6
:104D50001F7C0F7C0F7C1F3C3E3FFC1FF0070000B8
:104D60000000000000000000F007F80F7C1E3E3C31
:104D70001E3C1F7C1F7C1F7C1F7C1F3C3F3EFF1F77
:104D8000EF071F001E001E003E003C00F838F03FF9
:104D9000E01F000000000000000000000000000014
:104DA0000000000000000000E003E003E003E00377
:104DB0000000000000000000000000000000E00310
:104DC000E003E003E003000000000000000000003A
:104DD000000000000000000000000000E003E0030D
:104DE000E003E003000000000000000000000000FD
:104DF0000000E003E003E003E003E001E001E00184
:104E0000C00380030000000000000000000000005C
:104E100003000F003F00FC00F003C00F003F00FE46
:104E2000003FC00FF003FC003F000F000300000034
:104E30000000000000000000000000000000000072
:104E4000000000000000000000000000FFFFFFFF66
:104E5000000000000000FFFFFFFF00000000000056
:104E60000000000000000000000000000000000042
:104E7000000000000000000000E000F8007E801F3D
:104E8000E007F8017E001F007E00F801E007801FA8
:104E9000007E00F800E000000000000000000000BC
:104EA000F01FFC3F3E381F381F381E001E003C001C
:104EB0007800F000E001C003C003C007C007000095
:104EC00000000000C007C007C0070000000000008D
:104ED00000000000F803FE0F1E1F0F3E7F3CFF780E
:104EE000EF79C773C7F38FF38FF38FF39FF39FF3BC
:104EF000FF73FF7BF779003C1C1FFC0FF8030000D9
:104F00000000000000000000000000000000E003BE
:104F1000E003F007F007F007780F780F7C0E3C1ED7
:104F20003C1E3E3CFE3FFF3F1F780F780FF007F01E
:104F300007F000000000000000000000000000007A
:104F40000000F83FFC3F3E3C1E3C1E3C1E3C3E3CED
:104F50007C3CF03FF83F7E3C1F3C1F3C0F3C0F3C2D
:104F60001F3CFE3FF83F0000000000000000000072
:104F7000000000000000FF01FF07871F003E003C0B
:104F8000007C00780078007800780078007C007C55
:104F9000003E003F831FFF07FF01000000000000EC
:104FA00000000000000000000000F07FFC7F7E7821
:104FB0001F781F780F780F780F780F780F780F7899
:104FC0000F780F781F781E787E78F87FE07F0000DA
:104FD0000000000000000000000000000000FF3F93
:104FE000FF3F003E003E003E003E003E003EFE3FD2
:104FF000FE3F003E003E003E003E003E003EFF3FC2
:10500000FF3F000000000000000000000000000062
:105010000000FF1FFF1F001E001E001E001E001EBE
:10502000001EFF1FFF1F001E001E001E001E001E90
:10503000001E001E001E0000000000000000000016
:10504000000000000000FE03FF0F871F003E007CF1
:10505000007C007800F800F87FF87FF80F780F7C6C
:105060000F7C0F3E8F1FFF0FFE03000000000000AB
:10507000000000000000000000001F7C1F7C1F7C5F
:105080001F7C1F7C1F7C1F7C1F7CFF7FFF7F1F7C82
:105090001F7C1F7C1F7C1F7C1F7C1F7C1F7C0000D3
:1050A0000000000000000000000000000000FF3FC2
:1050B000FF3FE003E003E003E003E003E003E0037D
:1050C000E003E003E003E003E003E003E003FF3F6D
:1050D000FF3F000000000000000000000000000092
:1050E0000000FC1FFC1F7C007C007C007C007C001E
:1050F0007C007C007C007C007C007C0078007800D8
:10510000F838F03FC03F0000000000000000000041
:105110000000000000001F3C1E3C3C3C783CF03C82
:10512000E03DE03FC03F803FC03FE03FF03DF03C0E
:10513000783C7C3C3E3C1F3C0F3C000000000000E3
:1051400000000000000000000000003E003E003EA5
:10515000003E003E003E003E003E003E003E003E5F
:10516000003E003E003E003E003EFF3FFF3F00008D
:1051700000000000000000000000000000001FF818
:105180001FFC1FFC3FFE3FFE3FFE7FFF77FF77FFC8
:10519000F7F7E7F7E7F3E7F3C7F307F007F007F0F0
:1051A00007F0000000000000000000000000000008
:1051B00000000F7C0F7C0F7E0F7F0F7F8F7F8F7F14
:1051C000CF7FEF7BEF79FF79FF78FF787F783F78AB
:1051D0003F781F781F7800000000000000000000EA
:1051E000000000000000F007FC1F3E3E1F7C0F780F
:1051F0000F780FF80FF80FF80FF80FF80FF80F7877
:105200000F781F7C3E3EFC1FF007000000000000EE
:1052100000000000000000000000FC3FFF3F1F3EB8
:105220000F3E0F3E0F3E0F3E1F3E3F3EFC3FF03F06
:10523000003E003E003E003E003E003E003E0000BC
:105240000000000000000000000000000000F00767
:10525000FC1F3E3E1F7C0F780F780FF80FF80FF8F9
:105260000FF80FF80FF80F780F781F7C3E3EFC1FE9
:10527000F8077C003F000F00030000000000000062
:105280000000F03FFC3F7E3C3E3C1E3C1E3C3E3C52
:105290003C3CFC3CF03FE03FF03DF83C7C3C3E3C7D
:1052A0001E3C1F3C0F3C00000000000000000000FE
:1052B000000000000000FC07FE1F0E3E003C003C0A
:1052C000003C003EC01FF80FFE037F001F000F00D0
:1052D0000F001F203E3CFC3FF01F000000000000BC
:1052E00000000000000000000000FFFFFFFFE003DF
:1052F000E003E003E003E003E003E003E003E00396
:10530000E003E003E003E003E003E003E003000068
:1053100000000000000000000000000000000F7C02
:105320000F7C0F7C0F7C0F7C0F7C0F7C0F7C0F7C25
:105330000F7C0F7C0F7C0F7C1E3C1E3C3E3EFC1FF6
:10534000F007000000000000000000000000000066
:10535000000007F007F007F80F780F7C1E3C1E3C9A
:105360001E3E3C1E3C1F781F780FF80FF007F00719
:10537000F007E003E0030000000000000000000070
:1053800000000000000003E003F003F007F0E7F383
:10539000E7F3E7F3E773F77BF77FFF7F7F7F7F7F9D
:1053A0007E7F7E3F3E3E3E3E3E3E000000000000CF
:1053B0000000000000000000000007F80F7C1E3E07
:1053C0003E3E3C1FF80FF007E007E003E003F00764
:1053D000F80F7C0F7C1E3E3C1F780F780FF000000A
:1053E000000000000000000000000000000007F8BE
:1053F00007780F7C1E3C1E3E3C1F780FF80FF0070D
:10540000E003E003E003E003E003E003E003E00384
:10541000E0030000000000000000000000000000A9
:105420000000FF7FFF7F0F001F003E007C00F800A0
:10543000F000E001E003C007800F000F001E003EF7
:10544000007CFF7FFF7F00000000000000000000E4
:10545000FF07800780078007800780078007800795
:105460008007800780078007800780078007800704
:105470008007800780078007800780078007FF0775
:10548000FF07000000780078003C003C001E001E72
:10549000000F000F80078007C003C003E001E00198
:1054A000F000F000780078003C003C001E001E0078
:1054B0000F000F0007000000F07FF000F000F00088
:1054C000F000F000F000F000F000F000F000F0005C
:1054D000F000F000F000F000F000F000F000F0004C
:1054E000F000F000F000F07FF07F0000C000C0018D
:1054F000C001E003E003F007F0077807780F380FEA
:105500003C1E3C1E1E3C1E3C0F380F7807780000E6
:10551000000000000000000000000000000000008B
:10552000000000000000000000000000000000007B
:10553000000000000000000000000000000000006B
:1055400000000000000000000000FFFFFFFF00005F
:1055500000000000F000000000000000000000005B
:10556000000000000000000000000000000000003B
:10557000000000000000000000000000000000002B
:10558000000000000000000000000000000000001B
:1055900000000000F80FFC3F7C3C3E003E003E0057
:1055A000FE07FE1F3E3E3E7C3E783E7C7E7CFF3FFB
:1055B000CF1F00000000000000000000003C003C85
:1055C000003C003C003C003CF83DFE3F3E3F1F3E9F
:1055D0000F3C0F3C0F3C0F3C0F3C0F3C1F3C1E3C54
:1055E0003E3FFC3FF03B00000000000000000000D8
:1055F000000000000000000000000000FE03FF0F9C
:10560000871F003E003E003C007C007C007C003C8C
:10561000003E003E871FFF0FFE0300000000000059
:10562000000000001F001F001F001F001F001F00C0
:10563000FF07FF1F3F3E1F3C1F7C1F7C1F7C1F7806
:105640001F781F7C1F7C3F3C7F3EFF1FDF0F000049
:10565000000000000000000000000000000000004A
:1056600000000000F803FC0F3E1F1E3E1F3C1F7C85
:10567000FF7FFF7F007C007C003C003E071FFF0F88
:10568000FE0300000000000000000000FF01E10335
:10569000C003C007C007C007FF7FFF7FC007C00768
:1056A000C007C007C007C007C007C007C007C007C2
:1056B000C007C007C0070000000000000000000095
:1056C000000000000000000000000000EF07FF1FC6
:1056D0007F3E1F3C1F7C1F7C1F781F781F781F7C1C
:1056E0001F7C3F3C7F3EFF1FDF0F1E001E001E0081
:1056F0007C38F83F003C003C003C003C003C003C57
:10570000FC3DFE3F9E3F1F3F1F3E1F3C1F3C1F3C7A
:105710001F3C1F3C1F3C1F3C1F3C1F3C1F3C00000C
:105720000000000000000000F001F0010000000097
:1057300000000000E07FE07FE001E001E001E00127
:10574000E001E001E001E001E001E001E001E00151
:10575000E00100000000000000000000F800F80078
:105760000000000000000000F83FF83FF800F800DB
:10577000F800F800F800F800F800F800F800F80069
:10578000F800F800F800F800F800F000F071E07F91
:10579000003C003C003C003C003C003C1F3C3E3CCC
:1057A0007C3CF83CF03DE03DC03FC03FE03FF03D79
:1057B000F83C7C3C3E3C1F3C1F3C000000000000CD
:1057C00000000000F07FF001F001F001F001F001B5
:1057D000F001F001F001F001F001F001F001F00141
:1057E000F001F001F001F001F001F001F001000022
:1057F00000000000000000000000000000000000A9
:10580000000000009EF7FFFFFFFFFFFFE7FBE7F947
:10581000C7F1C7F1C7F1C7F1C7F1C7F1C7F1C7F1C8
:10582000C7F10000000000000000000000000000C0
:105830000000000000000000FC3DFE3F9E3F1F3FB7
:105840001F3E1F3C1F3C1F3C1F3C1F3C1F3C1F3C7E
:105850001F3C1F3C1F3C0000000000000000000037
:10586000000000000000000000000000F007FC1F26
:105870003E3E1F3C1F7C0F780F780F780F780F7813
:105880001F7C1F3C3E3EFC1FF00700000000000094
:105890000000000000000000000000000000000008
:1058A000F83DFE3F3E3F1F3E0F3C0F3C0F3C0F3C80
:1058B0000F3C0F3C1F3C1E3E3E3FFC3FF83F003C70
:1058C000003C003C003C003C0000000000000000E8
:1058D00000000000EE07FE1F7E3E1E3C1E7C1E7870
:1058E0001E781E781E781E781E7C3E7C7E3EFE1F33
:1058F000DE0F1E001E001E001E001E000000000025
:1059000000000000000000007F1FFF1FE71FC71FEF
:10591000871F001F001F001F001F001F001F001F08
:10592000001F001F001F000000000000000000001A
:10593000000000000000000000000000FC07FE1F47
:105940000E1E003E003E003FE01FFC07FE003E0032
:105950001E001E003E3CFC3FF01F00000000000047
:1059600000000000000000000000800780078007A2
:10597000FF7FFF7F80078007800780078007800701
:105980008007800780078007C007FF03FF01000032
:105990000000000000000000000000000000000007
:1059A000000000001E3C1E3C1E3C1E3C1E3C1E3CDB
:1059B0001E3C1E3C1E3C1E3C3E3C7E3CFE3EFE1FF2
:1059C000DE0F0000000000000000000000000000EA
:1059D000000000000000000007F00F780F781E3C68
:1059E0001E3C1E3E3C1E3C1E780F780FF00FF00749
:1059F000F007E003E00300000000000000000000EA
:105A000000000000000000000000000003F0E3F1CF
:105A1000E3F3E7F3F7F3F7F3F77F777F7F7F7F7F9A
:105A20007F7F3E3E3E3E3E3E3E3E00000000000088
:105A30000000000000000000000000000000000066
:105A40000F7C1E3E3C3E3C1FF80FF007F007E003C2
:105A5000F007F807F80F7C1E3E3E1F3C1F78000041
:105A60000000000000000000000000000000000036
:105A70000000000007F80F780F7C1E3C1E3C3C1E07
:105A80003C1E3C1F780FF80FF007F007E003E0031F
:105A9000C003C003C0038007800F007F0000000028
:105AA0000000000000000000FF3FFF3F1F003E001D
:105AB0007C00F800F001E003C007800F001F001E0B
:105AC000003CFF7FFF7F000000000000000000009E
:105AD000FE01E003C003C003C003C003E001E00116
